{
  "contractName": "NftContract",
  "abi": [
    {
      "inputs": [],
      "stateMutability": "nonpayable",
      "type": "constructor"
    },
    {
      "anonymous": false,
      "inputs": [
        {
          "indexed": true,
          "internalType": "address",
          "name": "account",
          "type": "address"
        },
        {
          "indexed": true,
          "internalType": "address",
          "name": "operator",
          "type": "address"
        },
        {
          "indexed": false,
          "internalType": "bool",
          "name": "approved",
          "type": "bool"
        }
      ],
      "name": "ApprovalForAll",
      "type": "event"
    },
    {
      "anonymous": false,
      "inputs": [
        {
          "indexed": true,
          "internalType": "address",
          "name": "previousOwner",
          "type": "address"
        },
        {
          "indexed": true,
          "internalType": "address",
          "name": "newOwner",
          "type": "address"
        }
      ],
      "name": "OwnershipTransferred",
      "type": "event"
    },
    {
      "anonymous": false,
      "inputs": [
        {
          "indexed": true,
          "internalType": "address",
          "name": "operator",
          "type": "address"
        },
        {
          "indexed": true,
          "internalType": "address",
          "name": "from",
          "type": "address"
        },
        {
          "indexed": true,
          "internalType": "address",
          "name": "to",
          "type": "address"
        },
        {
          "indexed": false,
          "internalType": "uint256[]",
          "name": "ids",
          "type": "uint256[]"
        },
        {
          "indexed": false,
          "internalType": "uint256[]",
          "name": "values",
          "type": "uint256[]"
        }
      ],
      "name": "TransferBatch",
      "type": "event"
    },
    {
      "anonymous": false,
      "inputs": [
        {
          "indexed": true,
          "internalType": "address",
          "name": "operator",
          "type": "address"
        },
        {
          "indexed": true,
          "internalType": "address",
          "name": "from",
          "type": "address"
        },
        {
          "indexed": true,
          "internalType": "address",
          "name": "to",
          "type": "address"
        },
        {
          "indexed": false,
          "internalType": "uint256",
          "name": "id",
          "type": "uint256"
        },
        {
          "indexed": false,
          "internalType": "uint256",
          "name": "value",
          "type": "uint256"
        }
      ],
      "name": "TransferSingle",
      "type": "event"
    },
    {
      "anonymous": false,
      "inputs": [
        {
          "indexed": false,
          "internalType": "string",
          "name": "value",
          "type": "string"
        },
        {
          "indexed": true,
          "internalType": "uint256",
          "name": "id",
          "type": "uint256"
        }
      ],
      "name": "URI",
      "type": "event"
    },
    {
      "inputs": [
        {
          "internalType": "address",
          "name": "account",
          "type": "address"
        },
        {
          "internalType": "uint256",
          "name": "id",
          "type": "uint256"
        }
      ],
      "name": "balanceOf",
      "outputs": [
        {
          "internalType": "uint256",
          "name": "",
          "type": "uint256"
        }
      ],
      "stateMutability": "view",
      "type": "function",
      "constant": true
    },
    {
      "inputs": [
        {
          "internalType": "address[]",
          "name": "accounts",
          "type": "address[]"
        },
        {
          "internalType": "uint256[]",
          "name": "ids",
          "type": "uint256[]"
        }
      ],
      "name": "balanceOfBatch",
      "outputs": [
        {
          "internalType": "uint256[]",
          "name": "",
          "type": "uint256[]"
        }
      ],
      "stateMutability": "view",
      "type": "function",
      "constant": true
    },
    {
      "inputs": [
        {
          "internalType": "uint256",
          "name": "id",
          "type": "uint256"
        }
      ],
      "name": "exists",
      "outputs": [
        {
          "internalType": "bool",
          "name": "",
          "type": "bool"
        }
      ],
      "stateMutability": "view",
      "type": "function",
      "constant": true
    },
    {
      "inputs": [
        {
          "internalType": "address",
          "name": "account",
          "type": "address"
        },
        {
          "internalType": "address",
          "name": "operator",
          "type": "address"
        }
      ],
      "name": "isApprovedForAll",
      "outputs": [
        {
          "internalType": "bool",
          "name": "",
          "type": "bool"
        }
      ],
      "stateMutability": "view",
      "type": "function",
      "constant": true
    },
    {
      "inputs": [],
      "name": "owner",
      "outputs": [
        {
          "internalType": "address",
          "name": "",
          "type": "address"
        }
      ],
      "stateMutability": "view",
      "type": "function",
      "constant": true
    },
    {
      "inputs": [],
      "name": "renounceOwnership",
      "outputs": [],
      "stateMutability": "nonpayable",
      "type": "function"
    },
    {
      "inputs": [
        {
          "internalType": "address",
          "name": "from",
          "type": "address"
        },
        {
          "internalType": "address",
          "name": "to",
          "type": "address"
        },
        {
          "internalType": "uint256[]",
          "name": "ids",
          "type": "uint256[]"
        },
        {
          "internalType": "uint256[]",
          "name": "amounts",
          "type": "uint256[]"
        },
        {
          "internalType": "bytes",
          "name": "data",
          "type": "bytes"
        }
      ],
      "name": "safeBatchTransferFrom",
      "outputs": [],
      "stateMutability": "nonpayable",
      "type": "function"
    },
    {
      "inputs": [
        {
          "internalType": "address",
          "name": "from",
          "type": "address"
        },
        {
          "internalType": "address",
          "name": "to",
          "type": "address"
        },
        {
          "internalType": "uint256",
          "name": "id",
          "type": "uint256"
        },
        {
          "internalType": "uint256",
          "name": "amount",
          "type": "uint256"
        },
        {
          "internalType": "bytes",
          "name": "data",
          "type": "bytes"
        }
      ],
      "name": "safeTransferFrom",
      "outputs": [],
      "stateMutability": "nonpayable",
      "type": "function"
    },
    {
      "inputs": [
        {
          "internalType": "address",
          "name": "operator",
          "type": "address"
        },
        {
          "internalType": "bool",
          "name": "approved",
          "type": "bool"
        }
      ],
      "name": "setApprovalForAll",
      "outputs": [],
      "stateMutability": "nonpayable",
      "type": "function"
    },
    {
      "inputs": [
        {
          "internalType": "bytes4",
          "name": "interfaceId",
          "type": "bytes4"
        }
      ],
      "name": "supportsInterface",
      "outputs": [
        {
          "internalType": "bool",
          "name": "",
          "type": "bool"
        }
      ],
      "stateMutability": "view",
      "type": "function",
      "constant": true
    },
    {
      "inputs": [
        {
          "internalType": "uint256",
          "name": "id",
          "type": "uint256"
        }
      ],
      "name": "totalSupply",
      "outputs": [
        {
          "internalType": "uint256",
          "name": "",
          "type": "uint256"
        }
      ],
      "stateMutability": "view",
      "type": "function",
      "constant": true
    },
    {
      "inputs": [
        {
          "internalType": "address",
          "name": "newOwner",
          "type": "address"
        }
      ],
      "name": "transferOwnership",
      "outputs": [],
      "stateMutability": "nonpayable",
      "type": "function"
    },
    {
      "inputs": [
        {
          "internalType": "uint256",
          "name": "",
          "type": "uint256"
        }
      ],
      "name": "uri",
      "outputs": [
        {
          "internalType": "string",
          "name": "",
          "type": "string"
        }
      ],
      "stateMutability": "view",
      "type": "function",
      "constant": true
    },
    {
      "inputs": [
        {
          "internalType": "uint256",
          "name": "id",
          "type": "uint256"
        },
        {
          "internalType": "uint256",
          "name": "numberOfTokens",
          "type": "uint256"
        }
      ],
      "name": "mint",
      "outputs": [],
      "stateMutability": "payable",
      "type": "function",
      "payable": true
    },
    {
      "inputs": [
        {
          "internalType": "uint256",
          "name": "id",
          "type": "uint256"
        }
      ],
      "name": "endSaleForever",
      "outputs": [],
      "stateMutability": "nonpayable",
      "type": "function"
    },
    {
      "inputs": [
        {
          "internalType": "uint256",
          "name": "id",
          "type": "uint256"
        }
      ],
      "name": "togglePauseMinting",
      "outputs": [],
      "stateMutability": "nonpayable",
      "type": "function"
    },
    {
      "inputs": [],
      "name": "withdraw",
      "outputs": [],
      "stateMutability": "nonpayable",
      "type": "function"
    }
  ],
  "bytecode": "0x60806040523480156200001157600080fd5b506040518060400160405280600a81526020017f6e66745572697b69647d000000000000000000000000000000000000000000008152506200005981620001d660201b60201c565b506200007a6200006e620001f260201b60201c565b620001fa60201b60201c565b61025860076000600181526020019081526020016000208190555061012c60076000600281526020019081526020016000208190555060c8600760006003815260200190815260200160002081905550606460076000600481526020019081526020016000208190555060016006600060018152602001908152602001600020819055506001600660006002815260200190815260200160002081905550600160066000600381526020019081526020016000208190555060016006600060048152602001908152602001600020819055506714d1120d7b1600006005600060018152602001908152602001600020819055506729a2241af62c0000600560006002815260200190815260200160002081905550673e73362871420000600560006003815260200190815260200160002081905550676f05b59d3b200000600560006004815260200190815260200160002081905550620003d5565b8060029080519060200190620001ee929190620002c0565b5050565b600033905090565b6000600460009054906101000a900473ffffffffffffffffffffffffffffffffffffffff16905081600460006101000a81548173ffffffffffffffffffffffffffffffffffffffff021916908373ffffffffffffffffffffffffffffffffffffffff1602179055508173ffffffffffffffffffffffffffffffffffffffff168173ffffffffffffffffffffffffffffffffffffffff167f8be0079c531659141344cd1fd0a4f28419497f9722a3daafe3b4186f6b6457e060405160405180910390a35050565b828054620002ce906200039f565b90600052602060002090601f016020900481019282620002f257600085556200033e565b82601f106200030d57805160ff19168380011785556200033e565b828001600101855582156200033e579182015b828111156200033d57825182559160200191906001019062000320565b5b5090506200034d919062000351565b5090565b5b808211156200036c57600081600090555060010162000352565b5090565b7f4e487b7100000000000000000000000000000000000000000000000000000000600052602260045260246000fd5b60006002820490506001821680620003b857607f821691505b60208210811415620003cf57620003ce62000370565b5b50919050565b6137f280620003e56000396000f3fe6080604052600436106100fd5760003560e01c80634f558e7911610095578063bd85b03911610064578063bd85b03914610323578063e74aa01e14610360578063e985e9c514610389578063f242432a146103c6578063f2fde38b146103ef576100fd565b80634f558e791461027b578063715018a6146102b85780638da5cb5b146102cf578063a22cb465146102fa576100fd565b80632a298c8c116100d15780632a298c8c146101d55780632eb2c2d6146101fe5780633ccfd60b146102275780634e1273f41461023e576100fd565b8062fdd58e1461010257806301ffc9a71461013f5780630e89341c1461017c5780631b2ef1ca146101b9575b600080fd5b34801561010e57600080fd5b5061012960048036038101906101249190612046565b610418565b6040516101369190612095565b60405180910390f35b34801561014b57600080fd5b5061016660048036038101906101619190612108565b6104e1565b6040516101739190612150565b60405180910390f35b34801561018857600080fd5b506101a3600480360381019061019e919061216b565b6105c3565b6040516101b09190612231565b60405180910390f35b6101d360048036038101906101ce9190612253565b610657565b005b3480156101e157600080fd5b506101fc60048036038101906101f7919061216b565b6108b0565b005b34801561020a57600080fd5b5061022560048036038101906102209190612490565b61097b565b005b34801561023357600080fd5b5061023c610a1c565b005b34801561024a57600080fd5b5061026560048036038101906102609190612622565b610ae8565b6040516102729190612758565b60405180910390f35b34801561028757600080fd5b506102a2600480360381019061029d919061216b565b610c01565b6040516102af9190612150565b60405180910390f35b3480156102c457600080fd5b506102cd610c15565b005b3480156102db57600080fd5b506102e4610c9d565b6040516102f19190612789565b60405180910390f35b34801561030657600080fd5b50610321600480360381019061031c91906127d0565b610cc7565b005b34801561032f57600080fd5b5061034a6004803603810190610345919061216b565b610cdd565b6040516103579190612095565b60405180910390f35b34801561036c57600080fd5b506103876004803603810190610382919061216b565b610cfa565b005b34801561039557600080fd5b506103b060048036038101906103ab9190612810565b610da5565b6040516103bd9190612150565b60405180910390f35b3480156103d257600080fd5b506103ed60048036038101906103e89190612850565b610e39565b005b3480156103fb57600080fd5b50610416600480360381019061041191906128e7565b610eda565b005b60008073ffffffffffffffffffffffffffffffffffffffff168373ffffffffffffffffffffffffffffffffffffffff161415610489576040517f08c379a000000000000000000000000000000000000000000000000000000000815260040161048090612986565b60405180910390fd5b60008083815260200190815260200160002060008473ffffffffffffffffffffffffffffffffffffffff1673ffffffffffffffffffffffffffffffffffffffff16815260200190815260200160002054905092915050565b60007fd9b67a26000000000000000000000000000000000000000000000000000000007bffffffffffffffffffffffffffffffffffffffffffffffffffffffff1916827bffffffffffffffffffffffffffffffffffffffffffffffffffffffff191614806105ac57507f0e89341c000000000000000000000000000000000000000000000000000000007bffffffffffffffffffffffffffffffffffffffffffffffffffffffff1916827bffffffffffffffffffffffffffffffffffffffffffffffffffffffff1916145b806105bc57506105bb82610fd2565b5b9050919050565b6060600280546105d2906129d5565b80601f01602080910402602001604051908101604052809291908181526020018280546105fe906129d5565b801561064b5780601f106106205761010080835404028352916020019161064b565b820191906000526020600020905b81548152906001019060200180831161062e57829003601f168201915b50505050509050919050565b6008600083815260200190815260200160002060009054906101000a900460ff16156106b8576040517f08c379a00000000000000000000000000000000000000000000000000000000081526004016106af90612a79565b60405180910390fd5b600015156009600084815260200190815260200160002060009054906101000a900460ff1615151461071f576040517f08c379a000000000000000000000000000000000000000000000000000000000815260040161071690612ae5565b60405180910390fd5b6000811415610763576040517f08c379a000000000000000000000000000000000000000000000000000000000815260040161075a90612b77565b60405180910390fd5b60066000838152602001908152602001600020548111156107b9576040517f08c379a00000000000000000000000000000000000000000000000000000000081526004016107b090612c09565b60405180910390fd5b60076000838152602001908152602001600020546107e8826107da85610cdd565b61103c90919063ffffffff16565b1115610829576040517f08c379a000000000000000000000000000000000000000000000000000000000815260040161082090612c75565b60405180910390fd5b3461085082600560008681526020019081526020016000205461105290919063ffffffff16565b1115610891576040517f08c379a000000000000000000000000000000000000000000000000000000000815260040161088890612ce1565b60405180910390fd5b6108ac33838360405180602001604052806000815250611068565b5050565b6108b86111fe565b73ffffffffffffffffffffffffffffffffffffffff166108d6610c9d565b73ffffffffffffffffffffffffffffffffffffffff161461092c576040517f08c379a000000000000000000000000000000000000000000000000000000000815260040161092390612d4d565b60405180910390fd5b6008600082815260200190815260200160002060009054906101000a900460ff16156008600083815260200190815260200160002060006101000a81548160ff02191690831515021790555050565b6109836111fe565b73ffffffffffffffffffffffffffffffffffffffff168573ffffffffffffffffffffffffffffffffffffffff1614806109c957506109c8856109c36111fe565b610da5565b5b610a08576040517f08c379a00000000000000000000000000000000000000000000000000000000081526004016109ff90612ddf565b60405180910390fd5b610a158585858585611206565b5050505050565b610a246111fe565b73ffffffffffffffffffffffffffffffffffffffff16610a42610c9d565b73ffffffffffffffffffffffffffffffffffffffff1614610a98576040517f08c379a0000000000000000000000000000000000000000000000000000000008152600401610a8f90612d4d565b60405180910390fd5b610aa0610c9d565b73ffffffffffffffffffffffffffffffffffffffff166108fc479081150290604051600060405180830381858888f19350505050158015610ae5573d6000803e3d6000fd5b50565b60608151835114610b2e576040517f08c379a0000000000000000000000000000000000000000000000000000000008152600401610b2590612e71565b60405180910390fd5b6000835167ffffffffffffffff811115610b4b57610b4a612298565b5b604051908082528060200260200182016040528015610b795781602001602082028036833780820191505090505b50905060005b8451811015610bf657610bc6858281518110610b9e57610b9d612e91565b5b6020026020010151858381518110610bb957610bb8612e91565b5b6020026020010151610418565b828281518110610bd957610bd8612e91565b5b60200260200101818152505080610bef90612eef565b9050610b7f565b508091505092915050565b600080610c0d83610cdd565b119050919050565b610c1d6111fe565b73ffffffffffffffffffffffffffffffffffffffff16610c3b610c9d565b73ffffffffffffffffffffffffffffffffffffffff1614610c91576040517f08c379a0000000000000000000000000000000000000000000000000000000008152600401610c8890612d4d565b60405180910390fd5b610c9b600061151a565b565b6000600460009054906101000a900473ffffffffffffffffffffffffffffffffffffffff16905090565b610cd9610cd26111fe565b83836115e0565b5050565b600060036000838152602001908152602001600020549050919050565b610d026111fe565b73ffffffffffffffffffffffffffffffffffffffff16610d20610c9d565b73ffffffffffffffffffffffffffffffffffffffff1614610d76576040517f08c379a0000000000000000000000000000000000000000000000000000000008152600401610d6d90612d4d565b60405180910390fd5b60016009600083815260200190815260200160002060006101000a81548160ff02191690831515021790555050565b6000600160008473ffffffffffffffffffffffffffffffffffffffff1673ffffffffffffffffffffffffffffffffffffffff16815260200190815260200160002060008373ffffffffffffffffffffffffffffffffffffffff1673ffffffffffffffffffffffffffffffffffffffff16815260200190815260200160002060009054906101000a900460ff16905092915050565b610e416111fe565b73ffffffffffffffffffffffffffffffffffffffff168573ffffffffffffffffffffffffffffffffffffffff161480610e875750610e8685610e816111fe565b610da5565b5b610ec6576040517f08c379a0000000000000000000000000000000000000000000000000000000008152600401610ebd90612faa565b60405180910390fd5b610ed3858585858561174d565b5050505050565b610ee26111fe565b73ffffffffffffffffffffffffffffffffffffffff16610f00610c9d565b73ffffffffffffffffffffffffffffffffffffffff1614610f56576040517f08c379a0000000000000000000000000000000000000000000000000000000008152600401610f4d90612d4d565b60405180910390fd5b600073ffffffffffffffffffffffffffffffffffffffff168173ffffffffffffffffffffffffffffffffffffffff161415610fc6576040517f08c379a0000000000000000000000000000000000000000000000000000000008152600401610fbd9061303c565b60405180910390fd5b610fcf8161151a565b50565b60007f01ffc9a7000000000000000000000000000000000000000000000000000000007bffffffffffffffffffffffffffffffffffffffffffffffffffffffff1916827bffffffffffffffffffffffffffffffffffffffffffffffffffffffff1916149050919050565b6000818361104a919061305c565b905092915050565b6000818361106091906130b2565b905092915050565b600073ffffffffffffffffffffffffffffffffffffffff168473ffffffffffffffffffffffffffffffffffffffff1614156110d8576040517f08c379a00000000000000000000000000000000000000000000000000000000081526004016110cf9061317e565b60405180910390fd5b60006110e26111fe565b9050611103816000876110f4886119cf565b6110fd886119cf565b87611a49565b8260008086815260200190815260200160002060008773ffffffffffffffffffffffffffffffffffffffff1673ffffffffffffffffffffffffffffffffffffffff1681526020019081526020016000206000828254611162919061305c565b925050819055508473ffffffffffffffffffffffffffffffffffffffff16600073ffffffffffffffffffffffffffffffffffffffff168273ffffffffffffffffffffffffffffffffffffffff167fc3d58168c5ae7397731d063d5bbf3d657854427343f4c083240f7aacaa2d0f6287876040516111e092919061319e565b60405180910390a46111f781600087878787611bc3565b5050505050565b600033905090565b815183511461124a576040517f08c379a000000000000000000000000000000000000000000000000000000000815260040161124190613239565b60405180910390fd5b600073ffffffffffffffffffffffffffffffffffffffff168473ffffffffffffffffffffffffffffffffffffffff1614156112ba576040517f08c379a00000000000000000000000000000000000000000000000000000000081526004016112b1906132cb565b60405180910390fd5b60006112c46111fe565b90506112d4818787878787611a49565b60005b84518110156114855760008582815181106112f5576112f4612e91565b5b60200260200101519050600085838151811061131457611313612e91565b5b60200260200101519050600080600084815260200190815260200160002060008b73ffffffffffffffffffffffffffffffffffffffff1673ffffffffffffffffffffffffffffffffffffffff168152602001908152602001600020549050818110156113b5576040517f08c379a00000000000000000000000000000000000000000000000000000000081526004016113ac9061335d565b60405180910390fd5b81810360008085815260200190815260200160002060008c73ffffffffffffffffffffffffffffffffffffffff1673ffffffffffffffffffffffffffffffffffffffff168152602001908152602001600020819055508160008085815260200190815260200160002060008b73ffffffffffffffffffffffffffffffffffffffff1673ffffffffffffffffffffffffffffffffffffffff168152602001908152602001600020600082825461146a919061305c565b925050819055505050508061147e90612eef565b90506112d7565b508473ffffffffffffffffffffffffffffffffffffffff168673ffffffffffffffffffffffffffffffffffffffff168273ffffffffffffffffffffffffffffffffffffffff167f4a39dc06d4c0dbc64b70af90fd698a233a518aa5d07e595d983b8c0526c8f7fb87876040516114fc92919061337d565b60405180910390a4611512818787878787611d9b565b505050505050565b6000600460009054906101000a900473ffffffffffffffffffffffffffffffffffffffff16905081600460006101000a81548173ffffffffffffffffffffffffffffffffffffffff021916908373ffffffffffffffffffffffffffffffffffffffff1602179055508173ffffffffffffffffffffffffffffffffffffffff168173ffffffffffffffffffffffffffffffffffffffff167f8be0079c531659141344cd1fd0a4f28419497f9722a3daafe3b4186f6b6457e060405160405180910390a35050565b8173ffffffffffffffffffffffffffffffffffffffff168373ffffffffffffffffffffffffffffffffffffffff16141561164f576040517f08c379a000000000000000000000000000000000000000000000000000000000815260040161164690613426565b60405180910390fd5b80600160008573ffffffffffffffffffffffffffffffffffffffff1673ffffffffffffffffffffffffffffffffffffffff16815260200190815260200160002060008473ffffffffffffffffffffffffffffffffffffffff1673ffffffffffffffffffffffffffffffffffffffff16815260200190815260200160002060006101000a81548160ff0219169083151502179055508173ffffffffffffffffffffffffffffffffffffffff168373ffffffffffffffffffffffffffffffffffffffff167f17307eab39ab6107e8899845ad3d59bd9653f200f220920489ca2b5937696c31836040516117409190612150565b60405180910390a3505050565b600073ffffffffffffffffffffffffffffffffffffffff168473ffffffffffffffffffffffffffffffffffffffff1614156117bd576040517f08c379a00000000000000000000000000000000000000000000000000000000081526004016117b4906132cb565b60405180910390fd5b60006117c76111fe565b90506117e78187876117d8886119cf565b6117e1886119cf565b87611a49565b600080600086815260200190815260200160002060008873ffffffffffffffffffffffffffffffffffffffff1673ffffffffffffffffffffffffffffffffffffffff1681526020019081526020016000205490508381101561187e576040517f08c379a00000000000000000000000000000000000000000000000000000000081526004016118759061335d565b60405180910390fd5b83810360008087815260200190815260200160002060008973ffffffffffffffffffffffffffffffffffffffff1673ffffffffffffffffffffffffffffffffffffffff168152602001908152602001600020819055508360008087815260200190815260200160002060008873ffffffffffffffffffffffffffffffffffffffff1673ffffffffffffffffffffffffffffffffffffffff1681526020019081526020016000206000828254611933919061305c565b925050819055508573ffffffffffffffffffffffffffffffffffffffff168773ffffffffffffffffffffffffffffffffffffffff168373ffffffffffffffffffffffffffffffffffffffff167fc3d58168c5ae7397731d063d5bbf3d657854427343f4c083240f7aacaa2d0f6288886040516119b092919061319e565b60405180910390a46119c6828888888888611bc3565b50505050505050565b60606000600167ffffffffffffffff8111156119ee576119ed612298565b5b604051908082528060200260200182016040528015611a1c5781602001602082028036833780820191505090505b5090508281600081518110611a3457611a33612e91565b5b60200260200101818152505080915050919050565b611a57868686868686611f73565b600073ffffffffffffffffffffffffffffffffffffffff168573ffffffffffffffffffffffffffffffffffffffff161415611b095760005b8351811015611b0757828181518110611aab57611aaa612e91565b5b602002602001015160036000868481518110611aca57611ac9612e91565b5b602002602001015181526020019081526020016000206000828254611aef919061305c565b9250508190555080611b0090612eef565b9050611a8f565b505b600073ffffffffffffffffffffffffffffffffffffffff168473ffffffffffffffffffffffffffffffffffffffff161415611bbb5760005b8351811015611bb957828181518110611b5d57611b5c612e91565b5b602002602001015160036000868481518110611b7c57611b7b612e91565b5b602002602001015181526020019081526020016000206000828254611ba19190613446565b9250508190555080611bb290612eef565b9050611b41565b505b505050505050565b611be28473ffffffffffffffffffffffffffffffffffffffff16611f7b565b15611d93578373ffffffffffffffffffffffffffffffffffffffff1663f23a6e6187878686866040518663ffffffff1660e01b8152600401611c289594939291906134cf565b6020604051808303816000875af1925050508015611c6457506040513d601f19601f82011682018060405250810190611c61919061353e565b60015b611d0a57611c70613578565b806308c379a01415611ccd5750611c8561359a565b80611c905750611ccf565b806040517f08c379a0000000000000000000000000000000000000000000000000000000008152600401611cc49190612231565b60405180910390fd5b505b6040517f08c379a0000000000000000000000000000000000000000000000000000000008152600401611d01906136a2565b60405180910390fd5b63f23a6e6160e01b7bffffffffffffffffffffffffffffffffffffffffffffffffffffffff1916817bffffffffffffffffffffffffffffffffffffffffffffffffffffffff191614611d91576040517f08c379a0000000000000000000000000000000000000000000000000000000008152600401611d8890613734565b60405180910390fd5b505b505050505050565b611dba8473ffffffffffffffffffffffffffffffffffffffff16611f7b565b15611f6b578373ffffffffffffffffffffffffffffffffffffffff1663bc197c8187878686866040518663ffffffff1660e01b8152600401611e00959493929190613754565b6020604051808303816000875af1925050508015611e3c57506040513d601f19601f82011682018060405250810190611e39919061353e565b60015b611ee257611e48613578565b806308c379a01415611ea55750611e5d61359a565b80611e685750611ea7565b806040517f08c379a0000000000000000000000000000000000000000000000000000000008152600401611e9c9190612231565b60405180910390fd5b505b6040517f08c379a0000000000000000000000000000000000000000000000000000000008152600401611ed9906136a2565b60405180910390fd5b63bc197c8160e01b7bffffffffffffffffffffffffffffffffffffffffffffffffffffffff1916817bffffffffffffffffffffffffffffffffffffffffffffffffffffffff191614611f69576040517f08c379a0000000000000000000000000000000000000000000000000000000008152600401611f6090613734565b60405180910390fd5b505b505050505050565b505050505050565b6000808273ffffffffffffffffffffffffffffffffffffffff163b119050919050565b6000604051905090565b600080fd5b600080fd5b600073ffffffffffffffffffffffffffffffffffffffff82169050919050565b6000611fdd82611fb2565b9050919050565b611fed81611fd2565b8114611ff857600080fd5b50565b60008135905061200a81611fe4565b92915050565b6000819050919050565b61202381612010565b811461202e57600080fd5b50565b6000813590506120408161201a565b92915050565b6000806040838503121561205d5761205c611fa8565b5b600061206b85828601611ffb565b925050602061207c85828601612031565b9150509250929050565b61208f81612010565b82525050565b60006020820190506120aa6000830184612086565b92915050565b60007fffffffff0000000000000000000000000000000000000000000000000000000082169050919050565b6120e5816120b0565b81146120f057600080fd5b50565b600081359050612102816120dc565b92915050565b60006020828403121561211e5761211d611fa8565b5b600061212c848285016120f3565b91505092915050565b60008115159050919050565b61214a81612135565b82525050565b60006020820190506121656000830184612141565b92915050565b60006020828403121561218157612180611fa8565b5b600061218f84828501612031565b91505092915050565b600081519050919050565b600082825260208201905092915050565b60005b838110156121d25780820151818401526020810190506121b7565b838111156121e1576000848401525b50505050565b6000601f19601f8301169050919050565b600061220382612198565b61220d81856121a3565b935061221d8185602086016121b4565b612226816121e7565b840191505092915050565b6000602082019050818103600083015261224b81846121f8565b905092915050565b6000806040838503121561226a57612269611fa8565b5b600061227885828601612031565b925050602061228985828601612031565b9150509250929050565b600080fd5b7f4e487b7100000000000000000000000000000000000000000000000000000000600052604160045260246000fd5b6122d0826121e7565b810181811067ffffffffffffffff821117156122ef576122ee612298565b5b80604052505050565b6000612302611f9e565b905061230e82826122c7565b919050565b600067ffffffffffffffff82111561232e5761232d612298565b5b602082029050602081019050919050565b600080fd5b600061235761235284612313565b6122f8565b9050808382526020820190506020840283018581111561237a5761237961233f565b5b835b818110156123a3578061238f8882612031565b84526020840193505060208101905061237c565b5050509392505050565b600082601f8301126123c2576123c1612293565b5b81356123d2848260208601612344565b91505092915050565b600080fd5b600067ffffffffffffffff8211156123fb576123fa612298565b5b612404826121e7565b9050602081019050919050565b82818337600083830152505050565b600061243361242e846123e0565b6122f8565b90508281526020810184848401111561244f5761244e6123db565b5b61245a848285612411565b509392505050565b600082601f83011261247757612476612293565b5b8135612487848260208601612420565b91505092915050565b600080600080600060a086880312156124ac576124ab611fa8565b5b60006124ba88828901611ffb565b95505060206124cb88828901611ffb565b945050604086013567ffffffffffffffff8111156124ec576124eb611fad565b5b6124f8888289016123ad565b935050606086013567ffffffffffffffff81111561251957612518611fad565b5b612525888289016123ad565b925050608086013567ffffffffffffffff81111561254657612545611fad565b5b61255288828901612462565b9150509295509295909350565b600067ffffffffffffffff82111561257a57612579612298565b5b602082029050602081019050919050565b600061259e6125998461255f565b6122f8565b905080838252602082019050602084028301858111156125c1576125c061233f565b5b835b818110156125ea57806125d68882611ffb565b8452602084019350506020810190506125c3565b5050509392505050565b600082601f83011261260957612608612293565b5b813561261984826020860161258b565b91505092915050565b6000806040838503121561263957612638611fa8565b5b600083013567ffffffffffffffff81111561265757612656611fad565b5b612663858286016125f4565b925050602083013567ffffffffffffffff81111561268457612683611fad565b5b612690858286016123ad565b9150509250929050565b600081519050919050565b600082825260208201905092915050565b6000819050602082019050919050565b6126cf81612010565b82525050565b60006126e183836126c6565b60208301905092915050565b6000602082019050919050565b60006127058261269a565b61270f81856126a5565b935061271a836126b6565b8060005b8381101561274b57815161273288826126d5565b975061273d836126ed565b92505060018101905061271e565b5085935050505092915050565b6000602082019050818103600083015261277281846126fa565b905092915050565b61278381611fd2565b82525050565b600060208201905061279e600083018461277a565b92915050565b6127ad81612135565b81146127b857600080fd5b50565b6000813590506127ca816127a4565b92915050565b600080604083850312156127e7576127e6611fa8565b5b60006127f585828601611ffb565b9250506020612806858286016127bb565b9150509250929050565b6000806040838503121561282757612826611fa8565b5b600061283585828601611ffb565b925050602061284685828601611ffb565b9150509250929050565b600080600080600060a0868803121561286c5761286b611fa8565b5b600061287a88828901611ffb565b955050602061288b88828901611ffb565b945050604061289c88828901612031565b93505060606128ad88828901612031565b925050608086013567ffffffffffffffff8111156128ce576128cd611fad565b5b6128da88828901612462565b9150509295509295909350565b6000602082840312156128fd576128fc611fa8565b5b600061290b84828501611ffb565b91505092915050565b7f455243313135353a2062616c616e636520717565727920666f7220746865207a60008201527f65726f2061646472657373000000000000000000000000000000000000000000602082015250565b6000612970602b836121a3565b915061297b82612914565b604082019050919050565b6000602082019050818103600083015261299f81612963565b9050919050565b7f4e487b7100000000000000000000000000000000000000000000000000000000600052602260045260246000fd5b600060028204905060018216806129ed57607f821691505b60208210811415612a0157612a006129a6565b5b50919050565b7f546f6b656e204d696e74696e672069732063757272656e746c7920706175736560008201527f6400000000000000000000000000000000000000000000000000000000000000602082015250565b6000612a636021836121a3565b9150612a6e82612a07565b604082019050919050565b60006020820190508181036000830152612a9281612a56565b9050919050565b7f546f6b656e2053616c6520656e64656400000000000000000000000000000000600082015250565b6000612acf6010836121a3565b9150612ada82612a99565b602082019050919050565b60006020820190508181036000830152612afe81612ac2565b9050919050565b7f596f75206e65656420746f206d696e74206174206c65617374203120746f6b6560008201527f6e00000000000000000000000000000000000000000000000000000000000000602082015250565b6000612b616021836121a3565b9150612b6c82612b05565b604082019050919050565b60006020820190508181036000830152612b9081612b54565b9050919050565b7f4e756d626572206f6620746f6b656e73206d696e74656420657863656564732060008201527f6d6178696d756d20616c6c6f7761626c65000000000000000000000000000000602082015250565b6000612bf36031836121a3565b9150612bfe82612b97565b604082019050919050565b60006020820190508181036000830152612c2281612be6565b9050919050565b7f4d696e74696e6720776f756c6420657863656564206d61782e20737570706c79600082015250565b6000612c5f6020836121a3565b9150612c6a82612c29565b602082019050919050565b60006020820190508181036000830152612c8e81612c52565b9050919050565b7f4e6f7420656e6f7567682045746865722073656e742e00000000000000000000600082015250565b6000612ccb6016836121a3565b9150612cd682612c95565b602082019050919050565b60006020820190508181036000830152612cfa81612cbe565b9050919050565b7f4f776e61626c653a2063616c6c6572206973206e6f7420746865206f776e6572600082015250565b6000612d376020836121a3565b9150612d4282612d01565b602082019050919050565b60006020820190508181036000830152612d6681612d2a565b9050919050565b7f455243313135353a207472616e736665722063616c6c6572206973206e6f742060008201527f6f776e6572206e6f7220617070726f7665640000000000000000000000000000602082015250565b6000612dc96032836121a3565b9150612dd482612d6d565b604082019050919050565b60006020820190508181036000830152612df881612dbc565b9050919050565b7f455243313135353a206163636f756e747320616e6420696473206c656e67746860008201527f206d69736d617463680000000000000000000000000000000000000000000000602082015250565b6000612e5b6029836121a3565b9150612e6682612dff565b604082019050919050565b60006020820190508181036000830152612e8a81612e4e565b9050919050565b7f4e487b7100000000000000000000000000000000000000000000000000000000600052603260045260246000fd5b7f4e487b7100000000000000000000000000000000000000000000000000000000600052601160045260246000fd5b6000612efa82612010565b91507fffffffffffffffffffffffffffffffffffffffffffffffffffffffffffffffff821415612f2d57612f2c612ec0565b5b600182019050919050565b7f455243313135353a2063616c6c6572206973206e6f74206f776e6572206e6f7260008201527f20617070726f7665640000000000000000000000000000000000000000000000602082015250565b6000612f946029836121a3565b9150612f9f82612f38565b604082019050919050565b60006020820190508181036000830152612fc381612f87565b9050919050565b7f4f776e61626c653a206e6577206f776e657220697320746865207a65726f206160008201527f6464726573730000000000000000000000000000000000000000000000000000602082015250565b60006130266026836121a3565b915061303182612fca565b604082019050919050565b6000602082019050818103600083015261305581613019565b9050919050565b600061306782612010565b915061307283612010565b9250827fffffffffffffffffffffffffffffffffffffffffffffffffffffffffffffffff038211156130a7576130a6612ec0565b5b828201905092915050565b60006130bd82612010565b91506130c883612010565b9250817fffffffffffffffffffffffffffffffffffffffffffffffffffffffffffffffff048311821515161561310157613100612ec0565b5b828202905092915050565b7f455243313135353a206d696e7420746f20746865207a65726f2061646472657360008201527f7300000000000000000000000000000000000000000000000000000000000000602082015250565b60006131686021836121a3565b91506131738261310c565b604082019050919050565b600060208201905081810360008301526131978161315b565b9050919050565b60006040820190506131b36000830185612086565b6131c06020830184612086565b9392505050565b7f455243313135353a2069647320616e6420616d6f756e7473206c656e6774682060008201527f6d69736d61746368000000000000000000000000000000000000000000000000602082015250565b60006132236028836121a3565b915061322e826131c7565b604082019050919050565b6000602082019050818103600083015261325281613216565b9050919050565b7f455243313135353a207472616e7366657220746f20746865207a65726f20616460008201527f6472657373000000000000000000000000000000000000000000000000000000602082015250565b60006132b56025836121a3565b91506132c082613259565b604082019050919050565b600060208201905081810360008301526132e4816132a8565b9050919050565b7f455243313135353a20696e73756666696369656e742062616c616e636520666f60008201527f72207472616e7366657200000000000000000000000000000000000000000000602082015250565b6000613347602a836121a3565b9150613352826132eb565b604082019050919050565b600060208201905081810360008301526133768161333a565b9050919050565b6000604082019050818103600083015261339781856126fa565b905081810360208301526133ab81846126fa565b90509392505050565b7f455243313135353a2073657474696e6720617070726f76616c2073746174757360008201527f20666f722073656c660000000000000000000000000000000000000000000000602082015250565b60006134106029836121a3565b915061341b826133b4565b604082019050919050565b6000602082019050818103600083015261343f81613403565b9050919050565b600061345182612010565b915061345c83612010565b92508282101561346f5761346e612ec0565b5b828203905092915050565b600081519050919050565b600082825260208201905092915050565b60006134a18261347a565b6134ab8185613485565b93506134bb8185602086016121b4565b6134c4816121e7565b840191505092915050565b600060a0820190506134e4600083018861277a565b6134f1602083018761277a565b6134fe6040830186612086565b61350b6060830185612086565b818103608083015261351d8184613496565b90509695505050505050565b600081519050613538816120dc565b92915050565b60006020828403121561355457613553611fa8565b5b600061356284828501613529565b91505092915050565b60008160e01c9050919050565b600060033d11156135975760046000803e61359460005161356b565b90505b90565b600060443d10156135aa5761362d565b6135b2611f9e565b60043d036004823e80513d602482011167ffffffffffffffff821117156135da57505061362d565b808201805167ffffffffffffffff8111156135f8575050505061362d565b80602083010160043d03850181111561361557505050505061362d565b613624826020018501866122c7565b82955050505050505b90565b7f455243313135353a207472616e7366657220746f206e6f6e204552433131353560008201527f526563656976657220696d706c656d656e746572000000000000000000000000602082015250565b600061368c6034836121a3565b915061369782613630565b604082019050919050565b600060208201905081810360008301526136bb8161367f565b9050919050565b7f455243313135353a204552433131353552656365697665722072656a6563746560008201527f6420746f6b656e73000000000000000000000000000000000000000000000000602082015250565b600061371e6028836121a3565b9150613729826136c2565b604082019050919050565b6000602082019050818103600083015261374d81613711565b9050919050565b600060a082019050613769600083018861277a565b613776602083018761277a565b818103604083015261378881866126fa565b9050818103606083015261379c81856126fa565b905081810360808301526137b08184613496565b9050969550505050505056fea2646970667358221220374292166a1bae1745161ff2543be17f41b74dbd4071c33a15fc739fe462104764736f6c634300080c0033",
  "immutableReferences": {},
  "source": "// SPDX-License-Identifier: MIT\npragma solidity >=0.4.22 <0.9.0;\n\nimport \"@openzeppelin/contracts/utils/math/SafeMath.sol\";\nimport \"@openzeppelin/contracts/token/ERC1155/ERC1155.sol\";\nimport \"@openzeppelin/contracts/access/Ownable.sol\";\nimport \"@openzeppelin/contracts/token/ERC1155/extensions/ERC1155Supply.sol\";\nimport \"@openzeppelin/contracts/utils/math/SafeMath.sol\";\ncontract NftContract is ERC1155Supply,Ownable {\n  using SafeMath for uint;\n\n  mapping(uint256 => uint256) private mintPrices;\n  mapping(uint256 => uint256) private maxMints;\n  mapping(uint256 => uint256) private MAX_TOKENS;\n  \n  mapping(uint256 => bool) private mintPaused;\n  mapping(uint256 => bool) private mintingEndedForever;\n  constructor() ERC1155(\"nftUri{id}\") {\n        MAX_TOKENS[1] = 600;\n        MAX_TOKENS[2] = 300;\n        MAX_TOKENS[3] = 200;\n        MAX_TOKENS[4] = 100;\n\n        maxMints[1] = 1;\n        maxMints[2] = 1;\n        maxMints[3] = 1;\n        maxMints[4] = 1;\n\n        mintPrices[1] = 1.5 ether;\n        mintPrices[2] = 3 ether;\n        mintPrices[3] = 4.5 ether;\n        mintPrices[4] = 8 ether;\n  }\n\n  function mint(uint256 id,uint256 numberOfTokens) public payable {\n        require(!mintPaused[id], \"Token Minting is currently paused\");\n        require(mintingEndedForever[id] == false, \"Token Sale ended\");\n        require(numberOfTokens != 0, \"You need to mint at least 1 token\");\n        require(numberOfTokens <= maxMints[id], \"Number of tokens minted exceeds maximum allowable\");\n        require(totalSupply(id).add(numberOfTokens) <= MAX_TOKENS[id], \"Minting would exceed max. supply\");\n        require(mintPrices[id].mul(numberOfTokens) <= msg.value, \"Not enough Ether sent.\");\n\n        _mint(msg.sender, id,numberOfTokens,\"\");\n    }\n\n    function endSaleForever(uint256 id) external onlyOwner {\n        mintingEndedForever[id] = true;\n    }\n\n    function togglePauseMinting(uint256 id) external onlyOwner {\n        mintPaused[id] = !mintPaused[id];\n    }\n\n    function withdraw() external onlyOwner {\n        payable(owner()).transfer(address(this).balance);\n    }\n}\n",
  "sourcePath": "C:\\Users\\user\\blocks\\nftMinting\\contracts\\NftContract.sol",
  "compiler": {
    "name": "solc",
    "version": "0.8.12+commit.f00d7308.Emscripten.clang"
  },
  "schemaVersion": "3.4.3",
  "updatedAt": "2022-02-19T13:13:06.387Z",
  "networkType": "ethereum",
  "devdoc": {
    "kind": "dev",
    "methods": {
      "balanceOf(address,uint256)": {
        "details": "See {IERC1155-balanceOf}. Requirements: - `account` cannot be the zero address."
      },
      "balanceOfBatch(address[],uint256[])": {
        "details": "See {IERC1155-balanceOfBatch}. Requirements: - `accounts` and `ids` must have the same length."
      },
      "exists(uint256)": {
        "details": "Indicates whether any token exist with a given id, or not."
      },
      "isApprovedForAll(address,address)": {
        "details": "See {IERC1155-isApprovedForAll}."
      },
      "owner()": {
        "details": "Returns the address of the current owner."
      },
      "renounceOwnership()": {
        "details": "Leaves the contract without owner. It will not be possible to call `onlyOwner` functions anymore. Can only be called by the current owner. NOTE: Renouncing ownership will leave the contract without an owner, thereby removing any functionality that is only available to the owner."
      },
      "safeBatchTransferFrom(address,address,uint256[],uint256[],bytes)": {
        "details": "See {IERC1155-safeBatchTransferFrom}."
      },
      "safeTransferFrom(address,address,uint256,uint256,bytes)": {
        "details": "See {IERC1155-safeTransferFrom}."
      },
      "setApprovalForAll(address,bool)": {
        "details": "See {IERC1155-setApprovalForAll}."
      },
      "supportsInterface(bytes4)": {
        "details": "See {IERC165-supportsInterface}."
      },
      "totalSupply(uint256)": {
        "details": "Total amount of tokens in with a given id."
      },
      "transferOwnership(address)": {
        "details": "Transfers ownership of the contract to a new account (`newOwner`). Can only be called by the current owner."
      },
      "uri(uint256)": {
        "details": "See {IERC1155MetadataURI-uri}. This implementation returns the same URI for *all* token types. It relies on the token type ID substitution mechanism https://eips.ethereum.org/EIPS/eip-1155#metadata[defined in the EIP]. Clients calling this function must replace the `\\{id\\}` substring with the actual token type ID."
      }
    },
    "version": 1
  },
  "userdoc": {
    "kind": "user",
    "methods": {},
    "version": 1
  }
}