{
  "contractName": "NftContract",
  "abi": [
    {
      "inputs": [],
      "stateMutability": "nonpayable",
      "type": "constructor"
    },
    {
      "anonymous": false,
      "inputs": [
        {
          "indexed": true,
          "internalType": "address",
          "name": "account",
          "type": "address"
        },
        {
          "indexed": true,
          "internalType": "address",
          "name": "operator",
          "type": "address"
        },
        {
          "indexed": false,
          "internalType": "bool",
          "name": "approved",
          "type": "bool"
        }
      ],
      "name": "ApprovalForAll",
      "type": "event"
    },
    {
      "anonymous": false,
      "inputs": [
        {
          "indexed": true,
          "internalType": "address",
          "name": "previousOwner",
          "type": "address"
        },
        {
          "indexed": true,
          "internalType": "address",
          "name": "newOwner",
          "type": "address"
        }
      ],
      "name": "OwnershipTransferred",
      "type": "event"
    },
    {
      "anonymous": false,
      "inputs": [
        {
          "indexed": true,
          "internalType": "address",
          "name": "operator",
          "type": "address"
        },
        {
          "indexed": true,
          "internalType": "address",
          "name": "from",
          "type": "address"
        },
        {
          "indexed": true,
          "internalType": "address",
          "name": "to",
          "type": "address"
        },
        {
          "indexed": false,
          "internalType": "uint256[]",
          "name": "ids",
          "type": "uint256[]"
        },
        {
          "indexed": false,
          "internalType": "uint256[]",
          "name": "values",
          "type": "uint256[]"
        }
      ],
      "name": "TransferBatch",
      "type": "event"
    },
    {
      "anonymous": false,
      "inputs": [
        {
          "indexed": true,
          "internalType": "address",
          "name": "operator",
          "type": "address"
        },
        {
          "indexed": true,
          "internalType": "address",
          "name": "from",
          "type": "address"
        },
        {
          "indexed": true,
          "internalType": "address",
          "name": "to",
          "type": "address"
        },
        {
          "indexed": false,
          "internalType": "uint256",
          "name": "id",
          "type": "uint256"
        },
        {
          "indexed": false,
          "internalType": "uint256",
          "name": "value",
          "type": "uint256"
        }
      ],
      "name": "TransferSingle",
      "type": "event"
    },
    {
      "anonymous": false,
      "inputs": [
        {
          "indexed": false,
          "internalType": "string",
          "name": "value",
          "type": "string"
        },
        {
          "indexed": true,
          "internalType": "uint256",
          "name": "id",
          "type": "uint256"
        }
      ],
      "name": "URI",
      "type": "event"
    },
    {
      "inputs": [
        {
          "internalType": "address",
          "name": "account",
          "type": "address"
        },
        {
          "internalType": "uint256",
          "name": "id",
          "type": "uint256"
        }
      ],
      "name": "balanceOf",
      "outputs": [
        {
          "internalType": "uint256",
          "name": "",
          "type": "uint256"
        }
      ],
      "stateMutability": "view",
      "type": "function",
      "constant": true
    },
    {
      "inputs": [
        {
          "internalType": "address[]",
          "name": "accounts",
          "type": "address[]"
        },
        {
          "internalType": "uint256[]",
          "name": "ids",
          "type": "uint256[]"
        }
      ],
      "name": "balanceOfBatch",
      "outputs": [
        {
          "internalType": "uint256[]",
          "name": "",
          "type": "uint256[]"
        }
      ],
      "stateMutability": "view",
      "type": "function",
      "constant": true
    },
    {
      "inputs": [],
      "name": "deployTime",
      "outputs": [
        {
          "internalType": "uint256",
          "name": "",
          "type": "uint256"
        }
      ],
      "stateMutability": "view",
      "type": "function",
      "constant": true
    },
    {
      "inputs": [
        {
          "internalType": "uint256",
          "name": "id",
          "type": "uint256"
        }
      ],
      "name": "exists",
      "outputs": [
        {
          "internalType": "bool",
          "name": "",
          "type": "bool"
        }
      ],
      "stateMutability": "view",
      "type": "function",
      "constant": true
    },
    {
      "inputs": [
        {
          "internalType": "address",
          "name": "account",
          "type": "address"
        },
        {
          "internalType": "address",
          "name": "operator",
          "type": "address"
        }
      ],
      "name": "isApprovedForAll",
      "outputs": [
        {
          "internalType": "bool",
          "name": "",
          "type": "bool"
        }
      ],
      "stateMutability": "view",
      "type": "function",
      "constant": true
    },
    {
      "inputs": [],
      "name": "maxTokensPerMintPrivateSale",
      "outputs": [
        {
          "internalType": "uint256",
          "name": "",
          "type": "uint256"
        }
      ],
      "stateMutability": "view",
      "type": "function",
      "constant": true
    },
    {
      "inputs": [],
      "name": "maxTokensPerMintPublicSale",
      "outputs": [
        {
          "internalType": "uint256",
          "name": "",
          "type": "uint256"
        }
      ],
      "stateMutability": "view",
      "type": "function",
      "constant": true
    },
    {
      "inputs": [],
      "name": "maxTokensPerUserPrivateSale",
      "outputs": [
        {
          "internalType": "uint256",
          "name": "",
          "type": "uint256"
        }
      ],
      "stateMutability": "view",
      "type": "function",
      "constant": true
    },
    {
      "inputs": [],
      "name": "owner",
      "outputs": [
        {
          "internalType": "address",
          "name": "",
          "type": "address"
        }
      ],
      "stateMutability": "view",
      "type": "function",
      "constant": true
    },
    {
      "inputs": [],
      "name": "privateSalePrice",
      "outputs": [
        {
          "internalType": "uint256",
          "name": "",
          "type": "uint256"
        }
      ],
      "stateMutability": "view",
      "type": "function",
      "constant": true
    },
    {
      "inputs": [],
      "name": "publicSalePrice",
      "outputs": [
        {
          "internalType": "uint256",
          "name": "",
          "type": "uint256"
        }
      ],
      "stateMutability": "view",
      "type": "function",
      "constant": true
    },
    {
      "inputs": [],
      "name": "renounceOwnership",
      "outputs": [],
      "stateMutability": "nonpayable",
      "type": "function"
    },
    {
      "inputs": [
        {
          "internalType": "address",
          "name": "from",
          "type": "address"
        },
        {
          "internalType": "address",
          "name": "to",
          "type": "address"
        },
        {
          "internalType": "uint256[]",
          "name": "ids",
          "type": "uint256[]"
        },
        {
          "internalType": "uint256[]",
          "name": "amounts",
          "type": "uint256[]"
        },
        {
          "internalType": "bytes",
          "name": "data",
          "type": "bytes"
        }
      ],
      "name": "safeBatchTransferFrom",
      "outputs": [],
      "stateMutability": "nonpayable",
      "type": "function"
    },
    {
      "inputs": [
        {
          "internalType": "address",
          "name": "from",
          "type": "address"
        },
        {
          "internalType": "address",
          "name": "to",
          "type": "address"
        },
        {
          "internalType": "uint256",
          "name": "id",
          "type": "uint256"
        },
        {
          "internalType": "uint256",
          "name": "amount",
          "type": "uint256"
        },
        {
          "internalType": "bytes",
          "name": "data",
          "type": "bytes"
        }
      ],
      "name": "safeTransferFrom",
      "outputs": [],
      "stateMutability": "nonpayable",
      "type": "function"
    },
    {
      "inputs": [
        {
          "internalType": "address",
          "name": "operator",
          "type": "address"
        },
        {
          "internalType": "bool",
          "name": "approved",
          "type": "bool"
        }
      ],
      "name": "setApprovalForAll",
      "outputs": [],
      "stateMutability": "nonpayable",
      "type": "function"
    },
    {
      "inputs": [
        {
          "internalType": "bytes4",
          "name": "interfaceId",
          "type": "bytes4"
        }
      ],
      "name": "supportsInterface",
      "outputs": [
        {
          "internalType": "bool",
          "name": "",
          "type": "bool"
        }
      ],
      "stateMutability": "view",
      "type": "function",
      "constant": true
    },
    {
      "inputs": [
        {
          "internalType": "uint256",
          "name": "id",
          "type": "uint256"
        }
      ],
      "name": "totalSupply",
      "outputs": [
        {
          "internalType": "uint256",
          "name": "",
          "type": "uint256"
        }
      ],
      "stateMutability": "view",
      "type": "function",
      "constant": true
    },
    {
      "inputs": [
        {
          "internalType": "address",
          "name": "newOwner",
          "type": "address"
        }
      ],
      "name": "transferOwnership",
      "outputs": [],
      "stateMutability": "nonpayable",
      "type": "function"
    },
    {
      "inputs": [
        {
          "internalType": "uint256",
          "name": "_maxTokensPerUserPrivateSale",
          "type": "uint256"
        }
      ],
      "name": "setMaxTokensPerUserPrivateSale",
      "outputs": [],
      "stateMutability": "nonpayable",
      "type": "function"
    },
    {
      "inputs": [
        {
          "internalType": "uint256",
          "name": "_maxTokensPerMintPublicSale",
          "type": "uint256"
        }
      ],
      "name": "setMaxTokensPerMintPublicSale",
      "outputs": [],
      "stateMutability": "nonpayable",
      "type": "function"
    },
    {
      "inputs": [
        {
          "internalType": "uint256",
          "name": "_maxTokensPerMintPrivateSale",
          "type": "uint256"
        }
      ],
      "name": "setMaxTokensPerMintPrivateSale",
      "outputs": [],
      "stateMutability": "nonpayable",
      "type": "function"
    },
    {
      "inputs": [
        {
          "internalType": "uint256",
          "name": "_privateSalePrice",
          "type": "uint256"
        }
      ],
      "name": "setPrivateSalePrice",
      "outputs": [],
      "stateMutability": "nonpayable",
      "type": "function"
    },
    {
      "inputs": [
        {
          "internalType": "uint256",
          "name": "_publicSalePrice",
          "type": "uint256"
        }
      ],
      "name": "setPublicSalePrice",
      "outputs": [],
      "stateMutability": "nonpayable",
      "type": "function"
    },
    {
      "inputs": [],
      "name": "getTokenPrice",
      "outputs": [
        {
          "internalType": "uint256",
          "name": "",
          "type": "uint256"
        }
      ],
      "stateMutability": "view",
      "type": "function",
      "constant": true
    },
    {
      "inputs": [
        {
          "internalType": "uint256",
          "name": "id",
          "type": "uint256"
        },
        {
          "internalType": "uint256",
          "name": "numberOfTokens",
          "type": "uint256"
        }
      ],
      "name": "mint",
      "outputs": [],
      "stateMutability": "payable",
      "type": "function",
      "payable": true
    },
    {
      "inputs": [
        {
          "internalType": "address",
          "name": "user",
          "type": "address"
        }
      ],
      "name": "addPrivateSaleBuyer",
      "outputs": [],
      "stateMutability": "nonpayable",
      "type": "function"
    },
    {
      "inputs": [],
      "name": "togglePauseMinting",
      "outputs": [],
      "stateMutability": "nonpayable",
      "type": "function"
    },
    {
      "inputs": [],
      "name": "withdraw",
      "outputs": [],
      "stateMutability": "nonpayable",
      "type": "function"
    },
    {
      "inputs": [
        {
          "internalType": "uint256",
          "name": "id",
          "type": "uint256"
        }
      ],
      "name": "uri",
      "outputs": [
        {
          "internalType": "string",
          "name": "",
          "type": "string"
        }
      ],
      "stateMutability": "pure",
      "type": "function",
      "constant": true
    }
  ],
  "bytecode": "0x60806040523480156200001157600080fd5b506040518060800160405280605a8152602001620044ab605a91396200003d816200009a60201b60201c565b506200005e62000052620000b660201b60201c565b620000be60201b60201c565b67016345785d8a00006007819055506000600881905550426009819055506001600a819055506001600b819055506001600c8190555062000299565b8060029080519060200190620000b292919062000184565b5050565b600033905090565b6000600460009054906101000a900473ffffffffffffffffffffffffffffffffffffffff16905081600460006101000a81548173ffffffffffffffffffffffffffffffffffffffff021916908373ffffffffffffffffffffffffffffffffffffffff1602179055508173ffffffffffffffffffffffffffffffffffffffff168173ffffffffffffffffffffffffffffffffffffffff167f8be0079c531659141344cd1fd0a4f28419497f9722a3daafe3b4186f6b6457e060405160405180910390a35050565b828054620001929062000263565b90600052602060002090601f016020900481019282620001b6576000855562000202565b82601f10620001d157805160ff191683800117855562000202565b8280016001018555821562000202579182015b8281111562000201578251825591602001919060010190620001e4565b5b50905062000211919062000215565b5090565b5b808211156200023057600081600090555060010162000216565b5090565b7f4e487b7100000000000000000000000000000000000000000000000000000000600052602260045260246000fd5b600060028204905060018216806200027c57607f821691505b6020821081141562000293576200029262000234565b5b50919050565b61420280620002a96000396000f3fe6080604052600436106101c15760003560e01c80637a40624b116100f7578063ceb08b3911610095578063f242432a11610064578063f242432a1461061e578063f2fde38b14610647578063f560d41514610670578063fb85fd741461069b576101c1565b8063ceb08b3914610562578063dc0a68481461058d578063e985e9c5146105b6578063ee843812146105f3576101c1565b80639b6860c8116100d15780639b6860c8146104a8578063a22cb465146104d3578063bd85b039146104fc578063ca325a3314610539576101c1565b80637a40624b146104295780637bc36e04146104545780638da5cb5b1461047d576101c1565b80634b94f50e116101645780634f558e791161013e5780634f558e7914610383578063715018a6146103c05780637583d628146103d7578063791a251914610400576101c1565b80634b94f50e146102f05780634e1273f41461031b5780634f30fd1c14610358576101c1565b80631b2ef1ca116101a05780631b2ef1ca1461027d5780632eb2c2d6146102995780633ccfd60b146102c25780633e53afc3146102d9576101c1565b8062fdd58e146101c657806301ffc9a7146102035780630e89341c14610240575b600080fd5b3480156101d257600080fd5b506101ed60048036038101906101e891906127d5565b6106c4565b6040516101fa9190612824565b60405180910390f35b34801561020f57600080fd5b5061022a60048036038101906102259190612897565b61078d565b60405161023791906128df565b60405180910390f35b34801561024c57600080fd5b50610267600480360381019061026291906128fa565b61086f565b60405161027491906129c0565b60405180910390f35b610297600480360381019061029291906129e2565b6108a0565b005b3480156102a557600080fd5b506102c060048036038101906102bb9190612c1f565b610be0565b005b3480156102ce57600080fd5b506102d7610c81565b005b3480156102e557600080fd5b506102ee610d4d565b005b3480156102fc57600080fd5b50610305610df5565b6040516103129190612824565b60405180910390f35b34801561032757600080fd5b50610342600480360381019061033d9190612db1565b610e28565b60405161034f9190612ee7565b60405180910390f35b34801561036457600080fd5b5061036d610f41565b60405161037a9190612824565b60405180910390f35b34801561038f57600080fd5b506103aa60048036038101906103a591906128fa565b610f47565b6040516103b791906128df565b60405180910390f35b3480156103cc57600080fd5b506103d5610f5b565b005b3480156103e357600080fd5b506103fe60048036038101906103f991906128fa565b610fe3565b005b34801561040c57600080fd5b50610427600480360381019061042291906128fa565b611069565b005b34801561043557600080fd5b5061043e6110ef565b60405161044b9190612824565b60405180910390f35b34801561046057600080fd5b5061047b600480360381019061047691906128fa565b6110f5565b005b34801561048957600080fd5b5061049261117b565b60405161049f9190612f18565b60405180910390f35b3480156104b457600080fd5b506104bd6111a5565b6040516104ca9190612824565b60405180910390f35b3480156104df57600080fd5b506104fa60048036038101906104f59190612f5f565b6111ab565b005b34801561050857600080fd5b50610523600480360381019061051e91906128fa565b6111c1565b6040516105309190612824565b60405180910390f35b34801561054557600080fd5b50610560600480360381019061055b91906128fa565b6111de565b005b34801561056e57600080fd5b50610577611264565b6040516105849190612824565b60405180910390f35b34801561059957600080fd5b506105b460048036038101906105af9190612f9f565b61126a565b005b3480156105c257600080fd5b506105dd60048036038101906105d89190612fcc565b611341565b6040516105ea91906128df565b60405180910390f35b3480156105ff57600080fd5b506106086113d5565b6040516106159190612824565b60405180910390f35b34801561062a57600080fd5b506106456004803603810190610640919061300c565b6113db565b005b34801561065357600080fd5b5061066e60048036038101906106699190612f9f565b61147c565b005b34801561067c57600080fd5b50610685611574565b6040516106929190612824565b60405180910390f35b3480156106a757600080fd5b506106c260048036038101906106bd91906128fa565b61157a565b005b60008073ffffffffffffffffffffffffffffffffffffffff168373ffffffffffffffffffffffffffffffffffffffff161415610735576040517f08c379a000000000000000000000000000000000000000000000000000000000815260040161072c90613115565b60405180910390fd5b60008083815260200190815260200160002060008473ffffffffffffffffffffffffffffffffffffffff1673ffffffffffffffffffffffffffffffffffffffff16815260200190815260200160002054905092915050565b60007fd9b67a26000000000000000000000000000000000000000000000000000000007bffffffffffffffffffffffffffffffffffffffffffffffffffffffff1916827bffffffffffffffffffffffffffffffffffffffffffffffffffffffff1916148061085857507f0e89341c000000000000000000000000000000000000000000000000000000007bffffffffffffffffffffffffffffffffffffffffffffffffffffffff1916827bffffffffffffffffffffffffffffffffffffffffffffffffffffffff1916145b80610868575061086782611600565b5b9050919050565b606061087a8261166a565b60405160200161088a9190613255565b6040516020818303038152906040529050919050565b60001515600460149054906101000a900460ff161515146108f6576040517f08c379a00000000000000000000000000000000000000000000000000000000081526004016108ed906132f4565b60405180910390fd5b600081141561093a576040517f08c379a000000000000000000000000000000000000000000000000000000000815260040161093190613386565b60405180910390fd5b600042610955620151806009546117cb90919063ffffffff16565b10610b20576007549050600560003373ffffffffffffffffffffffffffffffffffffffff1673ffffffffffffffffffffffffffffffffffffffff16815260200190815260200160002060009054906101000a900460ff166109eb576040517f08c379a00000000000000000000000000000000000000000000000000000000081526004016109e2906133f2565b60405180910390fd5b600c54610a4083600660003373ffffffffffffffffffffffffffffffffffffffff1673ffffffffffffffffffffffffffffffffffffffff168152602001908152602001600020546117cb90919063ffffffff16565b1115610a81576040517f08c379a0000000000000000000000000000000000000000000000000000000008152600401610a7890613484565b60405180910390fd5b600b54821115610ac6576040517f08c379a0000000000000000000000000000000000000000000000000000000008152600401610abd9061353c565b60405180910390fd5b600660003373ffffffffffffffffffffffffffffffffffffffff1673ffffffffffffffffffffffffffffffffffffffff1681526020019081526020016000206000815480929190610b169061358b565b9190505550610b6b565b6008549050600a54821115610b6a576040517f08c379a0000000000000000000000000000000000000000000000000000000008152600401610b619061366c565b60405180910390fd5b5b34610b7f83836117e190919063ffffffff16565b1115610bc0576040517f08c379a0000000000000000000000000000000000000000000000000000000008152600401610bb7906136d8565b60405180910390fd5b610bdb338484604051806020016040528060008152506117f7565b505050565b610be861198d565b73ffffffffffffffffffffffffffffffffffffffff168573ffffffffffffffffffffffffffffffffffffffff161480610c2e5750610c2d85610c2861198d565b611341565b5b610c6d576040517f08c379a0000000000000000000000000000000000000000000000000000000008152600401610c649061376a565b60405180910390fd5b610c7a8585858585611995565b5050505050565b610c8961198d565b73ffffffffffffffffffffffffffffffffffffffff16610ca761117b565b73ffffffffffffffffffffffffffffffffffffffff1614610cfd576040517f08c379a0000000000000000000000000000000000000000000000000000000008152600401610cf4906137d6565b60405180910390fd5b610d0561117b565b73ffffffffffffffffffffffffffffffffffffffff166108fc479081150290604051600060405180830381858888f19350505050158015610d4a573d6000803e3d6000fd5b50565b610d5561198d565b73ffffffffffffffffffffffffffffffffffffffff16610d7361117b565b73ffffffffffffffffffffffffffffffffffffffff1614610dc9576040517f08c379a0000000000000000000000000000000000000000000000000000000008152600401610dc0906137d6565b60405180910390fd5b600460149054906101000a900460ff1615600460146101000a81548160ff021916908315150217905550565b600042610e10620151806009546117cb90919063ffffffff16565b10610e1f576007549050610e25565b60085490505b90565b60608151835114610e6e576040517f08c379a0000000000000000000000000000000000000000000000000000000008152600401610e6590613868565b60405180910390fd5b6000835167ffffffffffffffff811115610e8b57610e8a612a27565b5b604051908082528060200260200182016040528015610eb95781602001602082028036833780820191505090505b50905060005b8451811015610f3657610f06858281518110610ede57610edd613888565b5b6020026020010151858381518110610ef957610ef8613888565b5b60200260200101516106c4565b828281518110610f1957610f18613888565b5b60200260200101818152505080610f2f9061358b565b9050610ebf565b508091505092915050565b600c5481565b600080610f53836111c1565b119050919050565b610f6361198d565b73ffffffffffffffffffffffffffffffffffffffff16610f8161117b565b73ffffffffffffffffffffffffffffffffffffffff1614610fd7576040517f08c379a0000000000000000000000000000000000000000000000000000000008152600401610fce906137d6565b60405180910390fd5b610fe16000611ca9565b565b610feb61198d565b73ffffffffffffffffffffffffffffffffffffffff1661100961117b565b73ffffffffffffffffffffffffffffffffffffffff161461105f576040517f08c379a0000000000000000000000000000000000000000000000000000000008152600401611056906137d6565b60405180910390fd5b80600a8190555050565b61107161198d565b73ffffffffffffffffffffffffffffffffffffffff1661108f61117b565b73ffffffffffffffffffffffffffffffffffffffff16146110e5576040517f08c379a00000000000000000000000000000000000000000000000000000000081526004016110dc906137d6565b60405180910390fd5b8060088190555050565b60095481565b6110fd61198d565b73ffffffffffffffffffffffffffffffffffffffff1661111b61117b565b73ffffffffffffffffffffffffffffffffffffffff1614611171576040517f08c379a0000000000000000000000000000000000000000000000000000000008152600401611168906137d6565b60405180910390fd5b8060078190555050565b6000600460009054906101000a900473ffffffffffffffffffffffffffffffffffffffff16905090565b60085481565b6111bd6111b661198d565b8383611d6f565b5050565b600060036000838152602001908152602001600020549050919050565b6111e661198d565b73ffffffffffffffffffffffffffffffffffffffff1661120461117b565b73ffffffffffffffffffffffffffffffffffffffff161461125a576040517f08c379a0000000000000000000000000000000000000000000000000000000008152600401611251906137d6565b60405180910390fd5b80600c8190555050565b600b5481565b61127261198d565b73ffffffffffffffffffffffffffffffffffffffff1661129061117b565b73ffffffffffffffffffffffffffffffffffffffff16146112e6576040517f08c379a00000000000000000000000000000000000000000000000000000000081526004016112dd906137d6565b60405180910390fd5b6001600560008373ffffffffffffffffffffffffffffffffffffffff1673ffffffffffffffffffffffffffffffffffffffff16815260200190815260200160002060006101000a81548160ff02191690831515021790555050565b6000600160008473ffffffffffffffffffffffffffffffffffffffff1673ffffffffffffffffffffffffffffffffffffffff16815260200190815260200160002060008373ffffffffffffffffffffffffffffffffffffffff1673ffffffffffffffffffffffffffffffffffffffff16815260200190815260200160002060009054906101000a900460ff16905092915050565b600a5481565b6113e361198d565b73ffffffffffffffffffffffffffffffffffffffff168573ffffffffffffffffffffffffffffffffffffffff16148061142957506114288561142361198d565b611341565b5b611468576040517f08c379a000000000000000000000000000000000000000000000000000000000815260040161145f90613929565b60405180910390fd5b6114758585858585611edc565b5050505050565b61148461198d565b73ffffffffffffffffffffffffffffffffffffffff166114a261117b565b73ffffffffffffffffffffffffffffffffffffffff16146114f8576040517f08c379a00000000000000000000000000000000000000000000000000000000081526004016114ef906137d6565b60405180910390fd5b600073ffffffffffffffffffffffffffffffffffffffff168173ffffffffffffffffffffffffffffffffffffffff161415611568576040517f08c379a000000000000000000000000000000000000000000000000000000000815260040161155f906139bb565b60405180910390fd5b61157181611ca9565b50565b60075481565b61158261198d565b73ffffffffffffffffffffffffffffffffffffffff166115a061117b565b73ffffffffffffffffffffffffffffffffffffffff16146115f6576040517f08c379a00000000000000000000000000000000000000000000000000000000081526004016115ed906137d6565b60405180910390fd5b80600b8190555050565b60007f01ffc9a7000000000000000000000000000000000000000000000000000000007bffffffffffffffffffffffffffffffffffffffffffffffffffffffff1916827bffffffffffffffffffffffffffffffffffffffffffffffffffffffff1916149050919050565b606060008214156116b2576040518060400160405280600181526020017f300000000000000000000000000000000000000000000000000000000000000081525090506117c6565b600082905060005b600082146116e45780806116cd9061358b565b915050600a826116dd9190613a0a565b91506116ba565b60008167ffffffffffffffff811115611700576116ff612a27565b5b6040519080825280601f01601f1916602001820160405280156117325781602001600182028036833780820191505090505b5090505b600085146117bf5760018261174b9190613a3b565b9150600a8561175a9190613a6f565b60306117669190613aa0565b60f81b81838151811061177c5761177b613888565b5b60200101907effffffffffffffffffffffffffffffffffffffffffffffffffffffffffffff1916908160001a905350600a856117b89190613a0a565b9450611736565b8093505050505b919050565b600081836117d99190613aa0565b905092915050565b600081836117ef9190613af6565b905092915050565b600073ffffffffffffffffffffffffffffffffffffffff168473ffffffffffffffffffffffffffffffffffffffff161415611867576040517f08c379a000000000000000000000000000000000000000000000000000000000815260040161185e90613bc2565b60405180910390fd5b600061187161198d565b9050611892816000876118838861215e565b61188c8861215e565b876121d8565b8260008086815260200190815260200160002060008773ffffffffffffffffffffffffffffffffffffffff1673ffffffffffffffffffffffffffffffffffffffff16815260200190815260200160002060008282546118f19190613aa0565b925050819055508473ffffffffffffffffffffffffffffffffffffffff16600073ffffffffffffffffffffffffffffffffffffffff168273ffffffffffffffffffffffffffffffffffffffff167fc3d58168c5ae7397731d063d5bbf3d657854427343f4c083240f7aacaa2d0f62878760405161196f929190613be2565b60405180910390a461198681600087878787612352565b5050505050565b600033905090565b81518351146119d9576040517f08c379a00000000000000000000000000000000000000000000000000000000081526004016119d090613c7d565b60405180910390fd5b600073ffffffffffffffffffffffffffffffffffffffff168473ffffffffffffffffffffffffffffffffffffffff161415611a49576040517f08c379a0000000000000000000000000000000000000000000000000000000008152600401611a4090613d0f565b60405180910390fd5b6000611a5361198d565b9050611a638187878787876121d8565b60005b8451811015611c14576000858281518110611a8457611a83613888565b5b602002602001015190506000858381518110611aa357611aa2613888565b5b60200260200101519050600080600084815260200190815260200160002060008b73ffffffffffffffffffffffffffffffffffffffff1673ffffffffffffffffffffffffffffffffffffffff16815260200190815260200160002054905081811015611b44576040517f08c379a0000000000000000000000000000000000000000000000000000000008152600401611b3b90613da1565b60405180910390fd5b81810360008085815260200190815260200160002060008c73ffffffffffffffffffffffffffffffffffffffff1673ffffffffffffffffffffffffffffffffffffffff168152602001908152602001600020819055508160008085815260200190815260200160002060008b73ffffffffffffffffffffffffffffffffffffffff1673ffffffffffffffffffffffffffffffffffffffff1681526020019081526020016000206000828254611bf99190613aa0565b9250508190555050505080611c0d9061358b565b9050611a66565b508473ffffffffffffffffffffffffffffffffffffffff168673ffffffffffffffffffffffffffffffffffffffff168273ffffffffffffffffffffffffffffffffffffffff167f4a39dc06d4c0dbc64b70af90fd698a233a518aa5d07e595d983b8c0526c8f7fb8787604051611c8b929190613dc1565b60405180910390a4611ca181878787878761252a565b505050505050565b6000600460009054906101000a900473ffffffffffffffffffffffffffffffffffffffff16905081600460006101000a81548173ffffffffffffffffffffffffffffffffffffffff021916908373ffffffffffffffffffffffffffffffffffffffff1602179055508173ffffffffffffffffffffffffffffffffffffffff168173ffffffffffffffffffffffffffffffffffffffff167f8be0079c531659141344cd1fd0a4f28419497f9722a3daafe3b4186f6b6457e060405160405180910390a35050565b8173ffffffffffffffffffffffffffffffffffffffff168373ffffffffffffffffffffffffffffffffffffffff161415611dde576040517f08c379a0000000000000000000000000000000000000000000000000000000008152600401611dd590613e6a565b60405180910390fd5b80600160008573ffffffffffffffffffffffffffffffffffffffff1673ffffffffffffffffffffffffffffffffffffffff16815260200190815260200160002060008473ffffffffffffffffffffffffffffffffffffffff1673ffffffffffffffffffffffffffffffffffffffff16815260200190815260200160002060006101000a81548160ff0219169083151502179055508173ffffffffffffffffffffffffffffffffffffffff168373ffffffffffffffffffffffffffffffffffffffff167f17307eab39ab6107e8899845ad3d59bd9653f200f220920489ca2b5937696c3183604051611ecf91906128df565b60405180910390a3505050565b600073ffffffffffffffffffffffffffffffffffffffff168473ffffffffffffffffffffffffffffffffffffffff161415611f4c576040517f08c379a0000000000000000000000000000000000000000000000000000000008152600401611f4390613d0f565b60405180910390fd5b6000611f5661198d565b9050611f76818787611f678861215e565b611f708861215e565b876121d8565b600080600086815260200190815260200160002060008873ffffffffffffffffffffffffffffffffffffffff1673ffffffffffffffffffffffffffffffffffffffff1681526020019081526020016000205490508381101561200d576040517f08c379a000000000000000000000000000000000000000000000000000000000815260040161200490613da1565b60405180910390fd5b83810360008087815260200190815260200160002060008973ffffffffffffffffffffffffffffffffffffffff1673ffffffffffffffffffffffffffffffffffffffff168152602001908152602001600020819055508360008087815260200190815260200160002060008873ffffffffffffffffffffffffffffffffffffffff1673ffffffffffffffffffffffffffffffffffffffff16815260200190815260200160002060008282546120c29190613aa0565b925050819055508573ffffffffffffffffffffffffffffffffffffffff168773ffffffffffffffffffffffffffffffffffffffff168373ffffffffffffffffffffffffffffffffffffffff167fc3d58168c5ae7397731d063d5bbf3d657854427343f4c083240f7aacaa2d0f62888860405161213f929190613be2565b60405180910390a4612155828888888888612352565b50505050505050565b60606000600167ffffffffffffffff81111561217d5761217c612a27565b5b6040519080825280602002602001820160405280156121ab5781602001602082028036833780820191505090505b50905082816000815181106121c3576121c2613888565b5b60200260200101818152505080915050919050565b6121e6868686868686612702565b600073ffffffffffffffffffffffffffffffffffffffff168573ffffffffffffffffffffffffffffffffffffffff1614156122985760005b83518110156122965782818151811061223a57612239613888565b5b60200260200101516003600086848151811061225957612258613888565b5b60200260200101518152602001908152602001600020600082825461227e9190613aa0565b925050819055508061228f9061358b565b905061221e565b505b600073ffffffffffffffffffffffffffffffffffffffff168473ffffffffffffffffffffffffffffffffffffffff16141561234a5760005b8351811015612348578281815181106122ec576122eb613888565b5b60200260200101516003600086848151811061230b5761230a613888565b5b6020026020010151815260200190815260200160002060008282546123309190613a3b565b92505081905550806123419061358b565b90506122d0565b505b505050505050565b6123718473ffffffffffffffffffffffffffffffffffffffff1661270a565b15612522578373ffffffffffffffffffffffffffffffffffffffff1663f23a6e6187878686866040518663ffffffff1660e01b81526004016123b7959493929190613edf565b6020604051808303816000875af19250505080156123f357506040513d601f19601f820116820180604052508101906123f09190613f4e565b60015b612499576123ff613f88565b806308c379a0141561245c5750612414613faa565b8061241f575061245e565b806040517f08c379a000000000000000000000000000000000000000000000000000000000815260040161245391906129c0565b60405180910390fd5b505b6040517f08c379a0000000000000000000000000000000000000000000000000000000008152600401612490906140b2565b60405180910390fd5b63f23a6e6160e01b7bffffffffffffffffffffffffffffffffffffffffffffffffffffffff1916817bffffffffffffffffffffffffffffffffffffffffffffffffffffffff191614612520576040517f08c379a000000000000000000000000000000000000000000000000000000000815260040161251790614144565b60405180910390fd5b505b505050505050565b6125498473ffffffffffffffffffffffffffffffffffffffff1661270a565b156126fa578373ffffffffffffffffffffffffffffffffffffffff1663bc197c8187878686866040518663ffffffff1660e01b815260040161258f959493929190614164565b6020604051808303816000875af19250505080156125cb57506040513d601f19601f820116820180604052508101906125c89190613f4e565b60015b612671576125d7613f88565b806308c379a0141561263457506125ec613faa565b806125f75750612636565b806040517f08c379a000000000000000000000000000000000000000000000000000000000815260040161262b91906129c0565b60405180910390fd5b505b6040517f08c379a0000000000000000000000000000000000000000000000000000000008152600401612668906140b2565b60405180910390fd5b63bc197c8160e01b7bffffffffffffffffffffffffffffffffffffffffffffffffffffffff1916817bffffffffffffffffffffffffffffffffffffffffffffffffffffffff1916146126f8576040517f08c379a00000000000000000000000000000000000000000000000000000000081526004016126ef90614144565b60405180910390fd5b505b505050505050565b505050505050565b6000808273ffffffffffffffffffffffffffffffffffffffff163b119050919050565b6000604051905090565b600080fd5b600080fd5b600073ffffffffffffffffffffffffffffffffffffffff82169050919050565b600061276c82612741565b9050919050565b61277c81612761565b811461278757600080fd5b50565b60008135905061279981612773565b92915050565b6000819050919050565b6127b28161279f565b81146127bd57600080fd5b50565b6000813590506127cf816127a9565b92915050565b600080604083850312156127ec576127eb612737565b5b60006127fa8582860161278a565b925050602061280b858286016127c0565b9150509250929050565b61281e8161279f565b82525050565b60006020820190506128396000830184612815565b92915050565b60007fffffffff0000000000000000000000000000000000000000000000000000000082169050919050565b6128748161283f565b811461287f57600080fd5b50565b6000813590506128918161286b565b92915050565b6000602082840312156128ad576128ac612737565b5b60006128bb84828501612882565b91505092915050565b60008115159050919050565b6128d9816128c4565b82525050565b60006020820190506128f460008301846128d0565b92915050565b6000602082840312156129105761290f612737565b5b600061291e848285016127c0565b91505092915050565b600081519050919050565b600082825260208201905092915050565b60005b83811015612961578082015181840152602081019050612946565b83811115612970576000848401525b50505050565b6000601f19601f8301169050919050565b600061299282612927565b61299c8185612932565b93506129ac818560208601612943565b6129b581612976565b840191505092915050565b600060208201905081810360008301526129da8184612987565b905092915050565b600080604083850312156129f9576129f8612737565b5b6000612a07858286016127c0565b9250506020612a18858286016127c0565b9150509250929050565b600080fd5b7f4e487b7100000000000000000000000000000000000000000000000000000000600052604160045260246000fd5b612a5f82612976565b810181811067ffffffffffffffff82111715612a7e57612a7d612a27565b5b80604052505050565b6000612a9161272d565b9050612a9d8282612a56565b919050565b600067ffffffffffffffff821115612abd57612abc612a27565b5b602082029050602081019050919050565b600080fd5b6000612ae6612ae184612aa2565b612a87565b90508083825260208201905060208402830185811115612b0957612b08612ace565b5b835b81811015612b325780612b1e88826127c0565b845260208401935050602081019050612b0b565b5050509392505050565b600082601f830112612b5157612b50612a22565b5b8135612b61848260208601612ad3565b91505092915050565b600080fd5b600067ffffffffffffffff821115612b8a57612b89612a27565b5b612b9382612976565b9050602081019050919050565b82818337600083830152505050565b6000612bc2612bbd84612b6f565b612a87565b905082815260208101848484011115612bde57612bdd612b6a565b5b612be9848285612ba0565b509392505050565b600082601f830112612c0657612c05612a22565b5b8135612c16848260208601612baf565b91505092915050565b600080600080600060a08688031215612c3b57612c3a612737565b5b6000612c498882890161278a565b9550506020612c5a8882890161278a565b945050604086013567ffffffffffffffff811115612c7b57612c7a61273c565b5b612c8788828901612b3c565b935050606086013567ffffffffffffffff811115612ca857612ca761273c565b5b612cb488828901612b3c565b925050608086013567ffffffffffffffff811115612cd557612cd461273c565b5b612ce188828901612bf1565b9150509295509295909350565b600067ffffffffffffffff821115612d0957612d08612a27565b5b602082029050602081019050919050565b6000612d2d612d2884612cee565b612a87565b90508083825260208201905060208402830185811115612d5057612d4f612ace565b5b835b81811015612d795780612d65888261278a565b845260208401935050602081019050612d52565b5050509392505050565b600082601f830112612d9857612d97612a22565b5b8135612da8848260208601612d1a565b91505092915050565b60008060408385031215612dc857612dc7612737565b5b600083013567ffffffffffffffff811115612de657612de561273c565b5b612df285828601612d83565b925050602083013567ffffffffffffffff811115612e1357612e1261273c565b5b612e1f85828601612b3c565b9150509250929050565b600081519050919050565b600082825260208201905092915050565b6000819050602082019050919050565b612e5e8161279f565b82525050565b6000612e708383612e55565b60208301905092915050565b6000602082019050919050565b6000612e9482612e29565b612e9e8185612e34565b9350612ea983612e45565b8060005b83811015612eda578151612ec18882612e64565b9750612ecc83612e7c565b925050600181019050612ead565b5085935050505092915050565b60006020820190508181036000830152612f018184612e89565b905092915050565b612f1281612761565b82525050565b6000602082019050612f2d6000830184612f09565b92915050565b612f3c816128c4565b8114612f4757600080fd5b50565b600081359050612f5981612f33565b92915050565b60008060408385031215612f7657612f75612737565b5b6000612f848582860161278a565b9250506020612f9585828601612f4a565b9150509250929050565b600060208284031215612fb557612fb4612737565b5b6000612fc38482850161278a565b91505092915050565b60008060408385031215612fe357612fe2612737565b5b6000612ff18582860161278a565b92505060206130028582860161278a565b9150509250929050565b600080600080600060a0868803121561302857613027612737565b5b60006130368882890161278a565b95505060206130478882890161278a565b9450506040613058888289016127c0565b9350506060613069888289016127c0565b925050608086013567ffffffffffffffff81111561308a5761308961273c565b5b61309688828901612bf1565b9150509295509295909350565b7f455243313135353a2062616c616e636520717565727920666f7220746865207a60008201527f65726f2061646472657373000000000000000000000000000000000000000000602082015250565b60006130ff602b83612932565b915061310a826130a3565b604082019050919050565b6000602082019050818103600083015261312e816130f2565b9050919050565b600081905092915050565b7f68747470733a2f2f676174657761792e70696e6174612e636c6f75642f69706660008201527f732f516d5245677a646964474e354a587956337a506237446f5868703574344460208201527f4468376f6f694d6257696653736e6d682f000000000000000000000000000000604082015250565b60006131c2605183613135565b91506131cd82613140565b605182019050919050565b60006131e382612927565b6131ed8185613135565b93506131fd818560208601612943565b80840191505092915050565b7f2e6a736f6e000000000000000000000000000000000000000000000000000000600082015250565b600061323f600583613135565b915061324a82613209565b600582019050919050565b6000613260826131b5565b915061326c82846131d8565b915061327782613232565b915081905092915050565b7f546f6b656e204d696e74696e672069732063757272656e746c7920706175736560008201527f6400000000000000000000000000000000000000000000000000000000000000602082015250565b60006132de602183612932565b91506132e982613282565b604082019050919050565b6000602082019050818103600083015261330d816132d1565b9050919050565b7f596f75206e65656420746f206d696e74206174206c65617374203120746f6b6560008201527f6e00000000000000000000000000000000000000000000000000000000000000602082015250565b6000613370602183612932565b915061337b82613314565b604082019050919050565b6000602082019050818103600083015261339f81613363565b9050919050565b7f54686520616464726573732069736e277420617574686f72697a656400000000600082015250565b60006133dc601c83612932565b91506133e7826133a6565b602082019050919050565b6000602082019050818103600083015261340b816133cf565b9050919050565b7f4e756d626572206f6620746f6b656e73206d696e74656420657863656564206d60008201527f6178696d756d2073657420666f7220707269766174652073616c650000000000602082015250565b600061346e603b83612932565b915061347982613412565b604082019050919050565b6000602082019050818103600083015261349d81613461565b9050919050565b7f4e756d626572206f6620746f6b656e73206d696e74656420657863656564206d60008201527f6178696d756d2073657420666f7220707269766174652073616c65207065722060208201527f6d696e7400000000000000000000000000000000000000000000000000000000604082015250565b6000613526604483612932565b9150613531826134a4565b606082019050919050565b6000602082019050818103600083015261355581613519565b9050919050565b7f4e487b7100000000000000000000000000000000000000000000000000000000600052601160045260246000fd5b60006135968261279f565b91507fffffffffffffffffffffffffffffffffffffffffffffffffffffffffffffffff8214156135c9576135c861355c565b5b600182019050919050565b7f4e756d626572206f6620746f6b656e73206d696e74656420657863656564206d60008201527f6178696d756d2073657420666f72207075626c69632073616c6520706572206d60208201527f696e740000000000000000000000000000000000000000000000000000000000604082015250565b6000613656604383612932565b9150613661826135d4565b606082019050919050565b6000602082019050818103600083015261368581613649565b9050919050565b7f4e6f7420656e6f7567682045746865722073656e742e00000000000000000000600082015250565b60006136c2601683612932565b91506136cd8261368c565b602082019050919050565b600060208201905081810360008301526136f1816136b5565b9050919050565b7f455243313135353a207472616e736665722063616c6c6572206973206e6f742060008201527f6f776e6572206e6f7220617070726f7665640000000000000000000000000000602082015250565b6000613754603283612932565b915061375f826136f8565b604082019050919050565b6000602082019050818103600083015261378381613747565b9050919050565b7f4f776e61626c653a2063616c6c6572206973206e6f7420746865206f776e6572600082015250565b60006137c0602083612932565b91506137cb8261378a565b602082019050919050565b600060208201905081810360008301526137ef816137b3565b9050919050565b7f455243313135353a206163636f756e747320616e6420696473206c656e67746860008201527f206d69736d617463680000000000000000000000000000000000000000000000602082015250565b6000613852602983612932565b915061385d826137f6565b604082019050919050565b6000602082019050818103600083015261388181613845565b9050919050565b7f4e487b7100000000000000000000000000000000000000000000000000000000600052603260045260246000fd5b7f455243313135353a2063616c6c6572206973206e6f74206f776e6572206e6f7260008201527f20617070726f7665640000000000000000000000000000000000000000000000602082015250565b6000613913602983612932565b915061391e826138b7565b604082019050919050565b6000602082019050818103600083015261394281613906565b9050919050565b7f4f776e61626c653a206e6577206f776e657220697320746865207a65726f206160008201527f6464726573730000000000000000000000000000000000000000000000000000602082015250565b60006139a5602683612932565b91506139b082613949565b604082019050919050565b600060208201905081810360008301526139d481613998565b9050919050565b7f4e487b7100000000000000000000000000000000000000000000000000000000600052601260045260246000fd5b6000613a158261279f565b9150613a208361279f565b925082613a3057613a2f6139db565b5b828204905092915050565b6000613a468261279f565b9150613a518361279f565b925082821015613a6457613a6361355c565b5b828203905092915050565b6000613a7a8261279f565b9150613a858361279f565b925082613a9557613a946139db565b5b828206905092915050565b6000613aab8261279f565b9150613ab68361279f565b9250827fffffffffffffffffffffffffffffffffffffffffffffffffffffffffffffffff03821115613aeb57613aea61355c565b5b828201905092915050565b6000613b018261279f565b9150613b0c8361279f565b9250817fffffffffffffffffffffffffffffffffffffffffffffffffffffffffffffffff0483118215151615613b4557613b4461355c565b5b828202905092915050565b7f455243313135353a206d696e7420746f20746865207a65726f2061646472657360008201527f7300000000000000000000000000000000000000000000000000000000000000602082015250565b6000613bac602183612932565b9150613bb782613b50565b604082019050919050565b60006020820190508181036000830152613bdb81613b9f565b9050919050565b6000604082019050613bf76000830185612815565b613c046020830184612815565b9392505050565b7f455243313135353a2069647320616e6420616d6f756e7473206c656e6774682060008201527f6d69736d61746368000000000000000000000000000000000000000000000000602082015250565b6000613c67602883612932565b9150613c7282613c0b565b604082019050919050565b60006020820190508181036000830152613c9681613c5a565b9050919050565b7f455243313135353a207472616e7366657220746f20746865207a65726f20616460008201527f6472657373000000000000000000000000000000000000000000000000000000602082015250565b6000613cf9602583612932565b9150613d0482613c9d565b604082019050919050565b60006020820190508181036000830152613d2881613cec565b9050919050565b7f455243313135353a20696e73756666696369656e742062616c616e636520666f60008201527f72207472616e7366657200000000000000000000000000000000000000000000602082015250565b6000613d8b602a83612932565b9150613d9682613d2f565b604082019050919050565b60006020820190508181036000830152613dba81613d7e565b9050919050565b60006040820190508181036000830152613ddb8185612e89565b90508181036020830152613def8184612e89565b90509392505050565b7f455243313135353a2073657474696e6720617070726f76616c2073746174757360008201527f20666f722073656c660000000000000000000000000000000000000000000000602082015250565b6000613e54602983612932565b9150613e5f82613df8565b604082019050919050565b60006020820190508181036000830152613e8381613e47565b9050919050565b600081519050919050565b600082825260208201905092915050565b6000613eb182613e8a565b613ebb8185613e95565b9350613ecb818560208601612943565b613ed481612976565b840191505092915050565b600060a082019050613ef46000830188612f09565b613f016020830187612f09565b613f0e6040830186612815565b613f1b6060830185612815565b8181036080830152613f2d8184613ea6565b90509695505050505050565b600081519050613f488161286b565b92915050565b600060208284031215613f6457613f63612737565b5b6000613f7284828501613f39565b91505092915050565b60008160e01c9050919050565b600060033d1115613fa75760046000803e613fa4600051613f7b565b90505b90565b600060443d1015613fba5761403d565b613fc261272d565b60043d036004823e80513d602482011167ffffffffffffffff82111715613fea57505061403d565b808201805167ffffffffffffffff811115614008575050505061403d565b80602083010160043d03850181111561402557505050505061403d565b61403482602001850186612a56565b82955050505050505b90565b7f455243313135353a207472616e7366657220746f206e6f6e204552433131353560008201527f526563656976657220696d706c656d656e746572000000000000000000000000602082015250565b600061409c603483612932565b91506140a782614040565b604082019050919050565b600060208201905081810360008301526140cb8161408f565b9050919050565b7f455243313135353a204552433131353552656365697665722072656a6563746560008201527f6420746f6b656e73000000000000000000000000000000000000000000000000602082015250565b600061412e602883612932565b9150614139826140d2565b604082019050919050565b6000602082019050818103600083015261415d81614121565b9050919050565b600060a0820190506141796000830188612f09565b6141866020830187612f09565b81810360408301526141988186612e89565b905081810360608301526141ac8185612e89565b905081810360808301526141c08184613ea6565b9050969550505050505056fea26469706673582212204d1e569e88588b5dc856a1510ef682201c09d1b5242e079d45d7f5af0d2d47c164736f6c634300080c003368747470733a2f2f676174657761792e70696e6174612e636c6f75642f697066732f516d5245677a646964474e354a587956337a506237446f586870357434444468376f6f694d6257696653736e6d682f7b69647d2e6a736f6e",
  "immutableReferences": {},
  "source": "// SPDX-License-Identifier: MIT\npragma solidity >=0.4.22 <0.9.0;\n\nimport \"@openzeppelin/contracts/utils/math/SafeMath.sol\";\nimport \"@openzeppelin/contracts/token/ERC1155/ERC1155.sol\";\nimport \"@openzeppelin/contracts/access/Ownable.sol\";\nimport \"@openzeppelin/contracts/token/ERC1155/extensions/ERC1155Supply.sol\";\nimport \"@openzeppelin/contracts/utils/math/SafeMath.sol\";\nimport \"@openzeppelin/contracts/utils/Strings.sol\";\ncontract NftContract is ERC1155Supply,Ownable {\n  using SafeMath for uint;\n  \n  bool private mintPaused;\n\n  mapping(address=>bool) private privateSaleUserWhitelist;\n  mapping(address=>uint256) private privateSaleUserMints;\n  uint256 public privateSalePrice;\n  uint256 public publicSalePrice;\n  uint256 public deployTime;\n  uint256 public maxTokensPerMintPublicSale;\n  uint256 public maxTokensPerMintPrivateSale;\n  uint256 public maxTokensPerUserPrivateSale;\n\n\n  constructor() ERC1155(\"https://gateway.pinata.cloud/ipfs/QmREgzdidGN5JXyV3zPb7DoXhp5t4DDh7ooiMbWifSsnmh/{id}.json\") {\n        privateSalePrice=0.1 ether;\n        publicSalePrice=0 ether;\n        deployTime=block.timestamp;\n        maxTokensPerMintPublicSale=1;\n        maxTokensPerMintPrivateSale=1;\n        maxTokensPerUserPrivateSale=1;\n  }\n\n  function setMaxTokensPerUserPrivateSale(uint256 _maxTokensPerUserPrivateSale) external onlyOwner{\n      maxTokensPerUserPrivateSale=_maxTokensPerUserPrivateSale;\n  }\n  function setMaxTokensPerMintPublicSale(uint256 _maxTokensPerMintPublicSale) external onlyOwner{\n      maxTokensPerMintPublicSale=_maxTokensPerMintPublicSale;\n  }\n  function setMaxTokensPerMintPrivateSale(uint256 _maxTokensPerMintPrivateSale) external onlyOwner{\n      maxTokensPerMintPrivateSale=_maxTokensPerMintPrivateSale;\n  }\n  function setPrivateSalePrice(uint256 _privateSalePrice) external onlyOwner{\n      privateSalePrice=_privateSalePrice;\n  }\n  function setPublicSalePrice(uint256 _publicSalePrice) external onlyOwner{\n      publicSalePrice=_publicSalePrice;\n  }\n\n  function getTokenPrice() public view returns(uint256){\n      if(deployTime.add(1 days)>=block.timestamp){\n        return privateSalePrice;\n      }else{\n        return publicSalePrice;\n      }\n  }\n\n\n  function mint(uint256 id,uint256 numberOfTokens) public payable {\n        require(mintPaused==false, \"Token Minting is currently paused\");\n        require(numberOfTokens != 0, \"You need to mint at least 1 token\");\n        uint256 salePrice;\n        //Private Sale\n        if(deployTime.add(1 days)>=block.timestamp){\n            salePrice=privateSalePrice;\n            require(privateSaleUserWhitelist[msg.sender],\"The address isn't authorized\");\n            require(privateSaleUserMints[msg.sender].add(numberOfTokens)<=maxTokensPerUserPrivateSale,\"Number of tokens minted exceed maximum set for private sale\");\n            require(numberOfTokens<=maxTokensPerMintPrivateSale,\"Number of tokens minted exceed maximum set for private sale per mint\");\n            privateSaleUserMints[msg.sender]++;\n        }else{\n            salePrice=publicSalePrice;\n            require(numberOfTokens<=maxTokensPerMintPublicSale,\"Number of tokens minted exceed maximum set for public sale per mint\");\n        }\n        require(salePrice.mul(numberOfTokens) <= msg.value, \"Not enough Ether sent.\");\n\n        _mint(msg.sender, id,numberOfTokens,\"\");\n    }\n\n\n    function addPrivateSaleBuyer(address user)external onlyOwner{\n        privateSaleUserWhitelist[user]=true;\n    }\n\n    function togglePauseMinting() external onlyOwner {\n        mintPaused = !mintPaused;\n    }\n\n    function withdraw() external onlyOwner {\n        payable(owner()).transfer(address(this).balance);\n    }\n\n    function uri(uint256 id) override public pure returns(string memory){\n        return string(\n            abi.encodePacked(\n                \"https://gateway.pinata.cloud/ipfs/QmREgzdidGN5JXyV3zPb7DoXhp5t4DDh7ooiMbWifSsnmh/\",\n                Strings.toString(id),\n                \".json\"\n            )\n        );\n    }\n}\n",
  "sourcePath": "C:\\Users\\user\\blocks\\nftMinting\\contracts\\NftContract.sol",
  "compiler": {
    "name": "solc",
    "version": "0.8.12+commit.f00d7308.Emscripten.clang"
  },
  "schemaVersion": "3.4.3",
  "updatedAt": "2022-02-27T10:12:24.293Z",
  "networkType": "ethereum",
  "devdoc": {
    "kind": "dev",
    "methods": {
      "balanceOf(address,uint256)": {
        "details": "See {IERC1155-balanceOf}. Requirements: - `account` cannot be the zero address."
      },
      "balanceOfBatch(address[],uint256[])": {
        "details": "See {IERC1155-balanceOfBatch}. Requirements: - `accounts` and `ids` must have the same length."
      },
      "exists(uint256)": {
        "details": "Indicates whether any token exist with a given id, or not."
      },
      "isApprovedForAll(address,address)": {
        "details": "See {IERC1155-isApprovedForAll}."
      },
      "owner()": {
        "details": "Returns the address of the current owner."
      },
      "renounceOwnership()": {
        "details": "Leaves the contract without owner. It will not be possible to call `onlyOwner` functions anymore. Can only be called by the current owner. NOTE: Renouncing ownership will leave the contract without an owner, thereby removing any functionality that is only available to the owner."
      },
      "safeBatchTransferFrom(address,address,uint256[],uint256[],bytes)": {
        "details": "See {IERC1155-safeBatchTransferFrom}."
      },
      "safeTransferFrom(address,address,uint256,uint256,bytes)": {
        "details": "See {IERC1155-safeTransferFrom}."
      },
      "setApprovalForAll(address,bool)": {
        "details": "See {IERC1155-setApprovalForAll}."
      },
      "supportsInterface(bytes4)": {
        "details": "See {IERC165-supportsInterface}."
      },
      "totalSupply(uint256)": {
        "details": "Total amount of tokens in with a given id."
      },
      "transferOwnership(address)": {
        "details": "Transfers ownership of the contract to a new account (`newOwner`). Can only be called by the current owner."
      }
    },
    "version": 1
  },
  "userdoc": {
    "kind": "user",
    "methods": {},
    "version": 1
  }
}