{
  "contractName": "NftContract",
  "abi": [
    {
      "inputs": [],
      "stateMutability": "nonpayable",
      "type": "constructor"
    },
    {
      "anonymous": false,
      "inputs": [
        {
          "indexed": true,
          "internalType": "address",
          "name": "account",
          "type": "address"
        },
        {
          "indexed": true,
          "internalType": "address",
          "name": "operator",
          "type": "address"
        },
        {
          "indexed": false,
          "internalType": "bool",
          "name": "approved",
          "type": "bool"
        }
      ],
      "name": "ApprovalForAll",
      "type": "event"
    },
    {
      "anonymous": false,
      "inputs": [
        {
          "indexed": true,
          "internalType": "address",
          "name": "previousOwner",
          "type": "address"
        },
        {
          "indexed": true,
          "internalType": "address",
          "name": "newOwner",
          "type": "address"
        }
      ],
      "name": "OwnershipTransferred",
      "type": "event"
    },
    {
      "anonymous": false,
      "inputs": [
        {
          "indexed": true,
          "internalType": "address",
          "name": "operator",
          "type": "address"
        },
        {
          "indexed": true,
          "internalType": "address",
          "name": "from",
          "type": "address"
        },
        {
          "indexed": true,
          "internalType": "address",
          "name": "to",
          "type": "address"
        },
        {
          "indexed": false,
          "internalType": "uint256[]",
          "name": "ids",
          "type": "uint256[]"
        },
        {
          "indexed": false,
          "internalType": "uint256[]",
          "name": "values",
          "type": "uint256[]"
        }
      ],
      "name": "TransferBatch",
      "type": "event"
    },
    {
      "anonymous": false,
      "inputs": [
        {
          "indexed": true,
          "internalType": "address",
          "name": "operator",
          "type": "address"
        },
        {
          "indexed": true,
          "internalType": "address",
          "name": "from",
          "type": "address"
        },
        {
          "indexed": true,
          "internalType": "address",
          "name": "to",
          "type": "address"
        },
        {
          "indexed": false,
          "internalType": "uint256",
          "name": "id",
          "type": "uint256"
        },
        {
          "indexed": false,
          "internalType": "uint256",
          "name": "value",
          "type": "uint256"
        }
      ],
      "name": "TransferSingle",
      "type": "event"
    },
    {
      "anonymous": false,
      "inputs": [
        {
          "indexed": false,
          "internalType": "string",
          "name": "value",
          "type": "string"
        },
        {
          "indexed": true,
          "internalType": "uint256",
          "name": "id",
          "type": "uint256"
        }
      ],
      "name": "URI",
      "type": "event"
    },
    {
      "inputs": [
        {
          "internalType": "uint256",
          "name": "",
          "type": "uint256"
        }
      ],
      "name": "MAX_TOKENS",
      "outputs": [
        {
          "internalType": "uint256",
          "name": "",
          "type": "uint256"
        }
      ],
      "stateMutability": "view",
      "type": "function",
      "constant": true
    },
    {
      "inputs": [
        {
          "internalType": "address",
          "name": "account",
          "type": "address"
        },
        {
          "internalType": "uint256",
          "name": "id",
          "type": "uint256"
        }
      ],
      "name": "balanceOf",
      "outputs": [
        {
          "internalType": "uint256",
          "name": "",
          "type": "uint256"
        }
      ],
      "stateMutability": "view",
      "type": "function",
      "constant": true
    },
    {
      "inputs": [
        {
          "internalType": "address[]",
          "name": "accounts",
          "type": "address[]"
        },
        {
          "internalType": "uint256[]",
          "name": "ids",
          "type": "uint256[]"
        }
      ],
      "name": "balanceOfBatch",
      "outputs": [
        {
          "internalType": "uint256[]",
          "name": "",
          "type": "uint256[]"
        }
      ],
      "stateMutability": "view",
      "type": "function",
      "constant": true
    },
    {
      "inputs": [
        {
          "internalType": "uint256",
          "name": "id",
          "type": "uint256"
        }
      ],
      "name": "exists",
      "outputs": [
        {
          "internalType": "bool",
          "name": "",
          "type": "bool"
        }
      ],
      "stateMutability": "view",
      "type": "function",
      "constant": true
    },
    {
      "inputs": [
        {
          "internalType": "address",
          "name": "account",
          "type": "address"
        },
        {
          "internalType": "address",
          "name": "operator",
          "type": "address"
        }
      ],
      "name": "isApprovedForAll",
      "outputs": [
        {
          "internalType": "bool",
          "name": "",
          "type": "bool"
        }
      ],
      "stateMutability": "view",
      "type": "function",
      "constant": true
    },
    {
      "inputs": [],
      "name": "owner",
      "outputs": [
        {
          "internalType": "address",
          "name": "",
          "type": "address"
        }
      ],
      "stateMutability": "view",
      "type": "function",
      "constant": true
    },
    {
      "inputs": [],
      "name": "renounceOwnership",
      "outputs": [],
      "stateMutability": "nonpayable",
      "type": "function"
    },
    {
      "inputs": [
        {
          "internalType": "address",
          "name": "from",
          "type": "address"
        },
        {
          "internalType": "address",
          "name": "to",
          "type": "address"
        },
        {
          "internalType": "uint256[]",
          "name": "ids",
          "type": "uint256[]"
        },
        {
          "internalType": "uint256[]",
          "name": "amounts",
          "type": "uint256[]"
        },
        {
          "internalType": "bytes",
          "name": "data",
          "type": "bytes"
        }
      ],
      "name": "safeBatchTransferFrom",
      "outputs": [],
      "stateMutability": "nonpayable",
      "type": "function"
    },
    {
      "inputs": [
        {
          "internalType": "address",
          "name": "from",
          "type": "address"
        },
        {
          "internalType": "address",
          "name": "to",
          "type": "address"
        },
        {
          "internalType": "uint256",
          "name": "id",
          "type": "uint256"
        },
        {
          "internalType": "uint256",
          "name": "amount",
          "type": "uint256"
        },
        {
          "internalType": "bytes",
          "name": "data",
          "type": "bytes"
        }
      ],
      "name": "safeTransferFrom",
      "outputs": [],
      "stateMutability": "nonpayable",
      "type": "function"
    },
    {
      "inputs": [
        {
          "internalType": "address",
          "name": "operator",
          "type": "address"
        },
        {
          "internalType": "bool",
          "name": "approved",
          "type": "bool"
        }
      ],
      "name": "setApprovalForAll",
      "outputs": [],
      "stateMutability": "nonpayable",
      "type": "function"
    },
    {
      "inputs": [
        {
          "internalType": "bytes4",
          "name": "interfaceId",
          "type": "bytes4"
        }
      ],
      "name": "supportsInterface",
      "outputs": [
        {
          "internalType": "bool",
          "name": "",
          "type": "bool"
        }
      ],
      "stateMutability": "view",
      "type": "function",
      "constant": true
    },
    {
      "inputs": [
        {
          "internalType": "uint256",
          "name": "id",
          "type": "uint256"
        }
      ],
      "name": "totalSupply",
      "outputs": [
        {
          "internalType": "uint256",
          "name": "",
          "type": "uint256"
        }
      ],
      "stateMutability": "view",
      "type": "function",
      "constant": true
    },
    {
      "inputs": [
        {
          "internalType": "address",
          "name": "newOwner",
          "type": "address"
        }
      ],
      "name": "transferOwnership",
      "outputs": [],
      "stateMutability": "nonpayable",
      "type": "function"
    },
    {
      "inputs": [
        {
          "internalType": "uint256",
          "name": "id",
          "type": "uint256"
        },
        {
          "internalType": "uint256",
          "name": "numberOfTokens",
          "type": "uint256"
        }
      ],
      "name": "mint",
      "outputs": [],
      "stateMutability": "payable",
      "type": "function",
      "payable": true
    },
    {
      "inputs": [
        {
          "internalType": "uint256",
          "name": "id",
          "type": "uint256"
        }
      ],
      "name": "endSaleForever",
      "outputs": [],
      "stateMutability": "nonpayable",
      "type": "function"
    },
    {
      "inputs": [
        {
          "internalType": "uint256",
          "name": "id",
          "type": "uint256"
        }
      ],
      "name": "togglePauseMinting",
      "outputs": [],
      "stateMutability": "nonpayable",
      "type": "function"
    },
    {
      "inputs": [],
      "name": "withdraw",
      "outputs": [],
      "stateMutability": "nonpayable",
      "type": "function"
    },
    {
      "inputs": [
        {
          "internalType": "uint256",
          "name": "id",
          "type": "uint256"
        }
      ],
      "name": "uri",
      "outputs": [
        {
          "internalType": "string",
          "name": "",
          "type": "string"
        }
      ],
      "stateMutability": "pure",
      "type": "function",
      "constant": true
    }
  ],
  "bytecode": "0x6080604052662386f26fc10000600a553480156200001c57600080fd5b506040518060800160405280605a815260200162003ef2605a913962000048816200021060201b60201c565b50620000696200005d6200022c60201b60201c565b6200023460201b60201c565b600660076000808152602001908152602001600020819055506006600760006001815260200190815260200160002081905550600660076000600281526020019081526020016000208190555060066007600060038152602001908152602001600020819055506006600760006004815260200190815260200160002081905550600160066000808152602001908152602001600020819055506001600660006001815260200190815260200160002081905550600160066000600281526020019081526020016000208190555060016006600060038152602001908152602001600020819055506001600660006004815260200190815260200160002081905550662386f26fc10000600560008081526020019081526020016000208190555066470de4df820000600560006001815260200190815260200160002081905550666a94d74f430000600560006002815260200190815260200160002081905550668e1bc9bf04000060056000600381526020019081526020016000208190555066b1a2bc2ec500006005600060048152602001908152602001600020819055506200040f565b806002908051906020019062000228929190620002fa565b5050565b600033905090565b6000600460009054906101000a900473ffffffffffffffffffffffffffffffffffffffff16905081600460006101000a81548173ffffffffffffffffffffffffffffffffffffffff021916908373ffffffffffffffffffffffffffffffffffffffff1602179055508173ffffffffffffffffffffffffffffffffffffffff168173ffffffffffffffffffffffffffffffffffffffff167f8be0079c531659141344cd1fd0a4f28419497f9722a3daafe3b4186f6b6457e060405160405180910390a35050565b8280546200030890620003d9565b90600052602060002090601f0160209004810192826200032c576000855562000378565b82601f106200034757805160ff191683800117855562000378565b8280016001018555821562000378579182015b82811115620003775782518255916020019190600101906200035a565b5b5090506200038791906200038b565b5090565b5b80821115620003a65760008160009055506001016200038c565b5090565b7f4e487b7100000000000000000000000000000000000000000000000000000000600052602260045260246000fd5b60006002820490506001821680620003f257607f821691505b60208210811415620004095762000408620003aa565b5b50919050565b613ad3806200041f6000396000f3fe6080604052600436106101085760003560e01c8063715018a611610095578063dcd57d7111610064578063dcd57d711461036b578063e74aa01e146103a8578063e985e9c5146103d1578063f242432a1461040e578063f2fde38b1461043757610108565b8063715018a6146102c35780638da5cb5b146102da578063a22cb46514610305578063bd85b0391461032e57610108565b80632a298c8c116100dc5780632a298c8c146101e05780632eb2c2d6146102095780633ccfd60b146102325780634e1273f4146102495780634f558e791461028657610108565b8062fdd58e1461010d57806301ffc9a71461014a5780630e89341c146101875780631b2ef1ca146101c4575b600080fd5b34801561011957600080fd5b50610134600480360381019061012f91906121aa565b610460565b60405161014191906121f9565b60405180910390f35b34801561015657600080fd5b50610171600480360381019061016c919061226c565b610529565b60405161017e91906122b4565b60405180910390f35b34801561019357600080fd5b506101ae60048036038101906101a991906122cf565b61060b565b6040516101bb9190612395565b60405180910390f35b6101de60048036038101906101d991906123b7565b61063c565b005b3480156101ec57600080fd5b50610207600480360381019061020291906122cf565b61089b565b005b34801561021557600080fd5b50610230600480360381019061022b91906125f4565b610966565b005b34801561023e57600080fd5b50610247610a07565b005b34801561025557600080fd5b50610270600480360381019061026b9190612786565b610ad3565b60405161027d91906128bc565b60405180910390f35b34801561029257600080fd5b506102ad60048036038101906102a891906122cf565b610bec565b6040516102ba91906122b4565b60405180910390f35b3480156102cf57600080fd5b506102d8610c00565b005b3480156102e657600080fd5b506102ef610c88565b6040516102fc91906128ed565b60405180910390f35b34801561031157600080fd5b5061032c60048036038101906103279190612934565b610cb2565b005b34801561033a57600080fd5b50610355600480360381019061035091906122cf565b610cc8565b60405161036291906121f9565b60405180910390f35b34801561037757600080fd5b50610392600480360381019061038d91906122cf565b610ce5565b60405161039f91906121f9565b60405180910390f35b3480156103b457600080fd5b506103cf60048036038101906103ca91906122cf565b610cfd565b005b3480156103dd57600080fd5b506103f860048036038101906103f39190612974565b610da8565b60405161040591906122b4565b60405180910390f35b34801561041a57600080fd5b50610435600480360381019061043091906129b4565b610e3c565b005b34801561044357600080fd5b5061045e60048036038101906104599190612a4b565b610edd565b005b60008073ffffffffffffffffffffffffffffffffffffffff168373ffffffffffffffffffffffffffffffffffffffff1614156104d1576040517f08c379a00000000000000000000000000000000000000000000000000000000081526004016104c890612aea565b60405180910390fd5b60008083815260200190815260200160002060008473ffffffffffffffffffffffffffffffffffffffff1673ffffffffffffffffffffffffffffffffffffffff16815260200190815260200160002054905092915050565b60007fd9b67a26000000000000000000000000000000000000000000000000000000007bffffffffffffffffffffffffffffffffffffffffffffffffffffffff1916827bffffffffffffffffffffffffffffffffffffffffffffffffffffffff191614806105f457507f0e89341c000000000000000000000000000000000000000000000000000000007bffffffffffffffffffffffffffffffffffffffffffffffffffffffff1916827bffffffffffffffffffffffffffffffffffffffffffffffffffffffff1916145b80610604575061060382610fd5565b5b9050919050565b60606106168261103f565b6040516020016106269190612c2a565b6040516020818303038152906040529050919050565b600015156008600084815260200190815260200160002060009054906101000a900460ff161515146106a3576040517f08c379a000000000000000000000000000000000000000000000000000000000815260040161069a90612cc9565b60405180910390fd5b600015156009600084815260200190815260200160002060009054906101000a900460ff1615151461070a576040517f08c379a000000000000000000000000000000000000000000000000000000000815260040161070190612d35565b60405180910390fd5b600081141561074e576040517f08c379a000000000000000000000000000000000000000000000000000000000815260040161074590612dc7565b60405180910390fd5b60066000838152602001908152602001600020548111156107a4576040517f08c379a000000000000000000000000000000000000000000000000000000000815260040161079b90612e59565b60405180910390fd5b60076000838152602001908152602001600020546107d3826107c585610cc8565b6111a090919063ffffffff16565b1115610814576040517f08c379a000000000000000000000000000000000000000000000000000000000815260040161080b90612ec5565b60405180910390fd5b3461083b8260056000868152602001908152602001600020546111b690919063ffffffff16565b111561087c576040517f08c379a000000000000000000000000000000000000000000000000000000000815260040161087390612f31565b60405180910390fd5b610897338383604051806020016040528060008152506111cc565b5050565b6108a3611362565b73ffffffffffffffffffffffffffffffffffffffff166108c1610c88565b73ffffffffffffffffffffffffffffffffffffffff1614610917576040517f08c379a000000000000000000000000000000000000000000000000000000000815260040161090e90612f9d565b60405180910390fd5b6008600082815260200190815260200160002060009054906101000a900460ff16156008600083815260200190815260200160002060006101000a81548160ff02191690831515021790555050565b61096e611362565b73ffffffffffffffffffffffffffffffffffffffff168573ffffffffffffffffffffffffffffffffffffffff1614806109b457506109b3856109ae611362565b610da8565b5b6109f3576040517f08c379a00000000000000000000000000000000000000000000000000000000081526004016109ea9061302f565b60405180910390fd5b610a00858585858561136a565b5050505050565b610a0f611362565b73ffffffffffffffffffffffffffffffffffffffff16610a2d610c88565b73ffffffffffffffffffffffffffffffffffffffff1614610a83576040517f08c379a0000000000000000000000000000000000000000000000000000000008152600401610a7a90612f9d565b60405180910390fd5b610a8b610c88565b73ffffffffffffffffffffffffffffffffffffffff166108fc479081150290604051600060405180830381858888f19350505050158015610ad0573d6000803e3d6000fd5b50565b60608151835114610b19576040517f08c379a0000000000000000000000000000000000000000000000000000000008152600401610b10906130c1565b60405180910390fd5b6000835167ffffffffffffffff811115610b3657610b356123fc565b5b604051908082528060200260200182016040528015610b645781602001602082028036833780820191505090505b50905060005b8451811015610be157610bb1858281518110610b8957610b886130e1565b5b6020026020010151858381518110610ba457610ba36130e1565b5b6020026020010151610460565b828281518110610bc457610bc36130e1565b5b60200260200101818152505080610bda9061313f565b9050610b6a565b508091505092915050565b600080610bf883610cc8565b119050919050565b610c08611362565b73ffffffffffffffffffffffffffffffffffffffff16610c26610c88565b73ffffffffffffffffffffffffffffffffffffffff1614610c7c576040517f08c379a0000000000000000000000000000000000000000000000000000000008152600401610c7390612f9d565b60405180910390fd5b610c86600061167e565b565b6000600460009054906101000a900473ffffffffffffffffffffffffffffffffffffffff16905090565b610cc4610cbd611362565b8383611744565b5050565b600060036000838152602001908152602001600020549050919050565b60076020528060005260406000206000915090505481565b610d05611362565b73ffffffffffffffffffffffffffffffffffffffff16610d23610c88565b73ffffffffffffffffffffffffffffffffffffffff1614610d79576040517f08c379a0000000000000000000000000000000000000000000000000000000008152600401610d7090612f9d565b60405180910390fd5b60016009600083815260200190815260200160002060006101000a81548160ff02191690831515021790555050565b6000600160008473ffffffffffffffffffffffffffffffffffffffff1673ffffffffffffffffffffffffffffffffffffffff16815260200190815260200160002060008373ffffffffffffffffffffffffffffffffffffffff1673ffffffffffffffffffffffffffffffffffffffff16815260200190815260200160002060009054906101000a900460ff16905092915050565b610e44611362565b73ffffffffffffffffffffffffffffffffffffffff168573ffffffffffffffffffffffffffffffffffffffff161480610e8a5750610e8985610e84611362565b610da8565b5b610ec9576040517f08c379a0000000000000000000000000000000000000000000000000000000008152600401610ec0906131fa565b60405180910390fd5b610ed685858585856118b1565b5050505050565b610ee5611362565b73ffffffffffffffffffffffffffffffffffffffff16610f03610c88565b73ffffffffffffffffffffffffffffffffffffffff1614610f59576040517f08c379a0000000000000000000000000000000000000000000000000000000008152600401610f5090612f9d565b60405180910390fd5b600073ffffffffffffffffffffffffffffffffffffffff168173ffffffffffffffffffffffffffffffffffffffff161415610fc9576040517f08c379a0000000000000000000000000000000000000000000000000000000008152600401610fc09061328c565b60405180910390fd5b610fd28161167e565b50565b60007f01ffc9a7000000000000000000000000000000000000000000000000000000007bffffffffffffffffffffffffffffffffffffffffffffffffffffffff1916827bffffffffffffffffffffffffffffffffffffffffffffffffffffffff1916149050919050565b60606000821415611087576040518060400160405280600181526020017f3000000000000000000000000000000000000000000000000000000000000000815250905061119b565b600082905060005b600082146110b95780806110a29061313f565b915050600a826110b291906132db565b915061108f565b60008167ffffffffffffffff8111156110d5576110d46123fc565b5b6040519080825280601f01601f1916602001820160405280156111075781602001600182028036833780820191505090505b5090505b6000851461119457600182611120919061330c565b9150600a8561112f9190613340565b603061113b9190613371565b60f81b818381518110611151576111506130e1565b5b60200101907effffffffffffffffffffffffffffffffffffffffffffffffffffffffffffff1916908160001a905350600a8561118d91906132db565b945061110b565b8093505050505b919050565b600081836111ae9190613371565b905092915050565b600081836111c491906133c7565b905092915050565b600073ffffffffffffffffffffffffffffffffffffffff168473ffffffffffffffffffffffffffffffffffffffff16141561123c576040517f08c379a000000000000000000000000000000000000000000000000000000000815260040161123390613493565b60405180910390fd5b6000611246611362565b90506112678160008761125888611b33565b61126188611b33565b87611bad565b8260008086815260200190815260200160002060008773ffffffffffffffffffffffffffffffffffffffff1673ffffffffffffffffffffffffffffffffffffffff16815260200190815260200160002060008282546112c69190613371565b925050819055508473ffffffffffffffffffffffffffffffffffffffff16600073ffffffffffffffffffffffffffffffffffffffff168273ffffffffffffffffffffffffffffffffffffffff167fc3d58168c5ae7397731d063d5bbf3d657854427343f4c083240f7aacaa2d0f6287876040516113449291906134b3565b60405180910390a461135b81600087878787611d27565b5050505050565b600033905090565b81518351146113ae576040517f08c379a00000000000000000000000000000000000000000000000000000000081526004016113a59061354e565b60405180910390fd5b600073ffffffffffffffffffffffffffffffffffffffff168473ffffffffffffffffffffffffffffffffffffffff16141561141e576040517f08c379a0000000000000000000000000000000000000000000000000000000008152600401611415906135e0565b60405180910390fd5b6000611428611362565b9050611438818787878787611bad565b60005b84518110156115e9576000858281518110611459576114586130e1565b5b602002602001015190506000858381518110611478576114776130e1565b5b60200260200101519050600080600084815260200190815260200160002060008b73ffffffffffffffffffffffffffffffffffffffff1673ffffffffffffffffffffffffffffffffffffffff16815260200190815260200160002054905081811015611519576040517f08c379a000000000000000000000000000000000000000000000000000000000815260040161151090613672565b60405180910390fd5b81810360008085815260200190815260200160002060008c73ffffffffffffffffffffffffffffffffffffffff1673ffffffffffffffffffffffffffffffffffffffff168152602001908152602001600020819055508160008085815260200190815260200160002060008b73ffffffffffffffffffffffffffffffffffffffff1673ffffffffffffffffffffffffffffffffffffffff16815260200190815260200160002060008282546115ce9190613371565b92505081905550505050806115e29061313f565b905061143b565b508473ffffffffffffffffffffffffffffffffffffffff168673ffffffffffffffffffffffffffffffffffffffff168273ffffffffffffffffffffffffffffffffffffffff167f4a39dc06d4c0dbc64b70af90fd698a233a518aa5d07e595d983b8c0526c8f7fb8787604051611660929190613692565b60405180910390a4611676818787878787611eff565b505050505050565b6000600460009054906101000a900473ffffffffffffffffffffffffffffffffffffffff16905081600460006101000a81548173ffffffffffffffffffffffffffffffffffffffff021916908373ffffffffffffffffffffffffffffffffffffffff1602179055508173ffffffffffffffffffffffffffffffffffffffff168173ffffffffffffffffffffffffffffffffffffffff167f8be0079c531659141344cd1fd0a4f28419497f9722a3daafe3b4186f6b6457e060405160405180910390a35050565b8173ffffffffffffffffffffffffffffffffffffffff168373ffffffffffffffffffffffffffffffffffffffff1614156117b3576040517f08c379a00000000000000000000000000000000000000000000000000000000081526004016117aa9061373b565b60405180910390fd5b80600160008573ffffffffffffffffffffffffffffffffffffffff1673ffffffffffffffffffffffffffffffffffffffff16815260200190815260200160002060008473ffffffffffffffffffffffffffffffffffffffff1673ffffffffffffffffffffffffffffffffffffffff16815260200190815260200160002060006101000a81548160ff0219169083151502179055508173ffffffffffffffffffffffffffffffffffffffff168373ffffffffffffffffffffffffffffffffffffffff167f17307eab39ab6107e8899845ad3d59bd9653f200f220920489ca2b5937696c31836040516118a491906122b4565b60405180910390a3505050565b600073ffffffffffffffffffffffffffffffffffffffff168473ffffffffffffffffffffffffffffffffffffffff161415611921576040517f08c379a0000000000000000000000000000000000000000000000000000000008152600401611918906135e0565b60405180910390fd5b600061192b611362565b905061194b81878761193c88611b33565b61194588611b33565b87611bad565b600080600086815260200190815260200160002060008873ffffffffffffffffffffffffffffffffffffffff1673ffffffffffffffffffffffffffffffffffffffff168152602001908152602001600020549050838110156119e2576040517f08c379a00000000000000000000000000000000000000000000000000000000081526004016119d990613672565b60405180910390fd5b83810360008087815260200190815260200160002060008973ffffffffffffffffffffffffffffffffffffffff1673ffffffffffffffffffffffffffffffffffffffff168152602001908152602001600020819055508360008087815260200190815260200160002060008873ffffffffffffffffffffffffffffffffffffffff1673ffffffffffffffffffffffffffffffffffffffff1681526020019081526020016000206000828254611a979190613371565b925050819055508573ffffffffffffffffffffffffffffffffffffffff168773ffffffffffffffffffffffffffffffffffffffff168373ffffffffffffffffffffffffffffffffffffffff167fc3d58168c5ae7397731d063d5bbf3d657854427343f4c083240f7aacaa2d0f628888604051611b149291906134b3565b60405180910390a4611b2a828888888888611d27565b50505050505050565b60606000600167ffffffffffffffff811115611b5257611b516123fc565b5b604051908082528060200260200182016040528015611b805781602001602082028036833780820191505090505b5090508281600081518110611b9857611b976130e1565b5b60200260200101818152505080915050919050565b611bbb8686868686866120d7565b600073ffffffffffffffffffffffffffffffffffffffff168573ffffffffffffffffffffffffffffffffffffffff161415611c6d5760005b8351811015611c6b57828181518110611c0f57611c0e6130e1565b5b602002602001015160036000868481518110611c2e57611c2d6130e1565b5b602002602001015181526020019081526020016000206000828254611c539190613371565b9250508190555080611c649061313f565b9050611bf3565b505b600073ffffffffffffffffffffffffffffffffffffffff168473ffffffffffffffffffffffffffffffffffffffff161415611d1f5760005b8351811015611d1d57828181518110611cc157611cc06130e1565b5b602002602001015160036000868481518110611ce057611cdf6130e1565b5b602002602001015181526020019081526020016000206000828254611d05919061330c565b9250508190555080611d169061313f565b9050611ca5565b505b505050505050565b611d468473ffffffffffffffffffffffffffffffffffffffff166120df565b15611ef7578373ffffffffffffffffffffffffffffffffffffffff1663f23a6e6187878686866040518663ffffffff1660e01b8152600401611d8c9594939291906137b0565b6020604051808303816000875af1925050508015611dc857506040513d601f19601f82011682018060405250810190611dc5919061381f565b60015b611e6e57611dd4613859565b806308c379a01415611e315750611de961387b565b80611df45750611e33565b806040517f08c379a0000000000000000000000000000000000000000000000000000000008152600401611e289190612395565b60405180910390fd5b505b6040517f08c379a0000000000000000000000000000000000000000000000000000000008152600401611e6590613983565b60405180910390fd5b63f23a6e6160e01b7bffffffffffffffffffffffffffffffffffffffffffffffffffffffff1916817bffffffffffffffffffffffffffffffffffffffffffffffffffffffff191614611ef5576040517f08c379a0000000000000000000000000000000000000000000000000000000008152600401611eec90613a15565b60405180910390fd5b505b505050505050565b611f1e8473ffffffffffffffffffffffffffffffffffffffff166120df565b156120cf578373ffffffffffffffffffffffffffffffffffffffff1663bc197c8187878686866040518663ffffffff1660e01b8152600401611f64959493929190613a35565b6020604051808303816000875af1925050508015611fa057506040513d601f19601f82011682018060405250810190611f9d919061381f565b60015b61204657611fac613859565b806308c379a014156120095750611fc161387b565b80611fcc575061200b565b806040517f08c379a00000000000000000000000000000000000000000000000000000000081526004016120009190612395565b60405180910390fd5b505b6040517f08c379a000000000000000000000000000000000000000000000000000000000815260040161203d90613983565b60405180910390fd5b63bc197c8160e01b7bffffffffffffffffffffffffffffffffffffffffffffffffffffffff1916817bffffffffffffffffffffffffffffffffffffffffffffffffffffffff1916146120cd576040517f08c379a00000000000000000000000000000000000000000000000000000000081526004016120c490613a15565b60405180910390fd5b505b505050505050565b505050505050565b6000808273ffffffffffffffffffffffffffffffffffffffff163b119050919050565b6000604051905090565b600080fd5b600080fd5b600073ffffffffffffffffffffffffffffffffffffffff82169050919050565b600061214182612116565b9050919050565b61215181612136565b811461215c57600080fd5b50565b60008135905061216e81612148565b92915050565b6000819050919050565b61218781612174565b811461219257600080fd5b50565b6000813590506121a48161217e565b92915050565b600080604083850312156121c1576121c061210c565b5b60006121cf8582860161215f565b92505060206121e085828601612195565b9150509250929050565b6121f381612174565b82525050565b600060208201905061220e60008301846121ea565b92915050565b60007fffffffff0000000000000000000000000000000000000000000000000000000082169050919050565b61224981612214565b811461225457600080fd5b50565b60008135905061226681612240565b92915050565b6000602082840312156122825761228161210c565b5b600061229084828501612257565b91505092915050565b60008115159050919050565b6122ae81612299565b82525050565b60006020820190506122c960008301846122a5565b92915050565b6000602082840312156122e5576122e461210c565b5b60006122f384828501612195565b91505092915050565b600081519050919050565b600082825260208201905092915050565b60005b8381101561233657808201518184015260208101905061231b565b83811115612345576000848401525b50505050565b6000601f19601f8301169050919050565b6000612367826122fc565b6123718185612307565b9350612381818560208601612318565b61238a8161234b565b840191505092915050565b600060208201905081810360008301526123af818461235c565b905092915050565b600080604083850312156123ce576123cd61210c565b5b60006123dc85828601612195565b92505060206123ed85828601612195565b9150509250929050565b600080fd5b7f4e487b7100000000000000000000000000000000000000000000000000000000600052604160045260246000fd5b6124348261234b565b810181811067ffffffffffffffff82111715612453576124526123fc565b5b80604052505050565b6000612466612102565b9050612472828261242b565b919050565b600067ffffffffffffffff821115612492576124916123fc565b5b602082029050602081019050919050565b600080fd5b60006124bb6124b684612477565b61245c565b905080838252602082019050602084028301858111156124de576124dd6124a3565b5b835b8181101561250757806124f38882612195565b8452602084019350506020810190506124e0565b5050509392505050565b600082601f830112612526576125256123f7565b5b81356125368482602086016124a8565b91505092915050565b600080fd5b600067ffffffffffffffff82111561255f5761255e6123fc565b5b6125688261234b565b9050602081019050919050565b82818337600083830152505050565b600061259761259284612544565b61245c565b9050828152602081018484840111156125b3576125b261253f565b5b6125be848285612575565b509392505050565b600082601f8301126125db576125da6123f7565b5b81356125eb848260208601612584565b91505092915050565b600080600080600060a086880312156126105761260f61210c565b5b600061261e8882890161215f565b955050602061262f8882890161215f565b945050604086013567ffffffffffffffff8111156126505761264f612111565b5b61265c88828901612511565b935050606086013567ffffffffffffffff81111561267d5761267c612111565b5b61268988828901612511565b925050608086013567ffffffffffffffff8111156126aa576126a9612111565b5b6126b6888289016125c6565b9150509295509295909350565b600067ffffffffffffffff8211156126de576126dd6123fc565b5b602082029050602081019050919050565b60006127026126fd846126c3565b61245c565b90508083825260208201905060208402830185811115612725576127246124a3565b5b835b8181101561274e578061273a888261215f565b845260208401935050602081019050612727565b5050509392505050565b600082601f83011261276d5761276c6123f7565b5b813561277d8482602086016126ef565b91505092915050565b6000806040838503121561279d5761279c61210c565b5b600083013567ffffffffffffffff8111156127bb576127ba612111565b5b6127c785828601612758565b925050602083013567ffffffffffffffff8111156127e8576127e7612111565b5b6127f485828601612511565b9150509250929050565b600081519050919050565b600082825260208201905092915050565b6000819050602082019050919050565b61283381612174565b82525050565b6000612845838361282a565b60208301905092915050565b6000602082019050919050565b6000612869826127fe565b6128738185612809565b935061287e8361281a565b8060005b838110156128af5781516128968882612839565b97506128a183612851565b925050600181019050612882565b5085935050505092915050565b600060208201905081810360008301526128d6818461285e565b905092915050565b6128e781612136565b82525050565b600060208201905061290260008301846128de565b92915050565b61291181612299565b811461291c57600080fd5b50565b60008135905061292e81612908565b92915050565b6000806040838503121561294b5761294a61210c565b5b60006129598582860161215f565b925050602061296a8582860161291f565b9150509250929050565b6000806040838503121561298b5761298a61210c565b5b60006129998582860161215f565b92505060206129aa8582860161215f565b9150509250929050565b600080600080600060a086880312156129d0576129cf61210c565b5b60006129de8882890161215f565b95505060206129ef8882890161215f565b9450506040612a0088828901612195565b9350506060612a1188828901612195565b925050608086013567ffffffffffffffff811115612a3257612a31612111565b5b612a3e888289016125c6565b9150509295509295909350565b600060208284031215612a6157612a6061210c565b5b6000612a6f8482850161215f565b91505092915050565b7f455243313135353a2062616c616e636520717565727920666f7220746865207a60008201527f65726f2061646472657373000000000000000000000000000000000000000000602082015250565b6000612ad4602b83612307565b9150612adf82612a78565b604082019050919050565b60006020820190508181036000830152612b0381612ac7565b9050919050565b600081905092915050565b7f68747470733a2f2f676174657761792e70696e6174612e636c6f75642f69706660008201527f732f516d5245677a646964474e354a587956337a506237446f5868703574344460208201527f4468376f6f694d6257696653736e6d682f000000000000000000000000000000604082015250565b6000612b97605183612b0a565b9150612ba282612b15565b605182019050919050565b6000612bb8826122fc565b612bc28185612b0a565b9350612bd2818560208601612318565b80840191505092915050565b7f2e6a736f6e000000000000000000000000000000000000000000000000000000600082015250565b6000612c14600583612b0a565b9150612c1f82612bde565b600582019050919050565b6000612c3582612b8a565b9150612c418284612bad565b9150612c4c82612c07565b915081905092915050565b7f546f6b656e204d696e74696e672069732063757272656e746c7920706175736560008201527f6400000000000000000000000000000000000000000000000000000000000000602082015250565b6000612cb3602183612307565b9150612cbe82612c57565b604082019050919050565b60006020820190508181036000830152612ce281612ca6565b9050919050565b7f546f6b656e2053616c6520656e64656400000000000000000000000000000000600082015250565b6000612d1f601083612307565b9150612d2a82612ce9565b602082019050919050565b60006020820190508181036000830152612d4e81612d12565b9050919050565b7f596f75206e65656420746f206d696e74206174206c65617374203120746f6b6560008201527f6e00000000000000000000000000000000000000000000000000000000000000602082015250565b6000612db1602183612307565b9150612dbc82612d55565b604082019050919050565b60006020820190508181036000830152612de081612da4565b9050919050565b7f4e756d626572206f6620746f6b656e73206d696e74656420657863656564732060008201527f6d6178696d756d20616c6c6f7761626c65000000000000000000000000000000602082015250565b6000612e43603183612307565b9150612e4e82612de7565b604082019050919050565b60006020820190508181036000830152612e7281612e36565b9050919050565b7f4d696e74696e6720776f756c6420657863656564206d61782e20737570706c79600082015250565b6000612eaf602083612307565b9150612eba82612e79565b602082019050919050565b60006020820190508181036000830152612ede81612ea2565b9050919050565b7f4e6f7420656e6f7567682045746865722073656e742e00000000000000000000600082015250565b6000612f1b601683612307565b9150612f2682612ee5565b602082019050919050565b60006020820190508181036000830152612f4a81612f0e565b9050919050565b7f4f776e61626c653a2063616c6c6572206973206e6f7420746865206f776e6572600082015250565b6000612f87602083612307565b9150612f9282612f51565b602082019050919050565b60006020820190508181036000830152612fb681612f7a565b9050919050565b7f455243313135353a207472616e736665722063616c6c6572206973206e6f742060008201527f6f776e6572206e6f7220617070726f7665640000000000000000000000000000602082015250565b6000613019603283612307565b915061302482612fbd565b604082019050919050565b600060208201905081810360008301526130488161300c565b9050919050565b7f455243313135353a206163636f756e747320616e6420696473206c656e67746860008201527f206d69736d617463680000000000000000000000000000000000000000000000602082015250565b60006130ab602983612307565b91506130b68261304f565b604082019050919050565b600060208201905081810360008301526130da8161309e565b9050919050565b7f4e487b7100000000000000000000000000000000000000000000000000000000600052603260045260246000fd5b7f4e487b7100000000000000000000000000000000000000000000000000000000600052601160045260246000fd5b600061314a82612174565b91507fffffffffffffffffffffffffffffffffffffffffffffffffffffffffffffffff82141561317d5761317c613110565b5b600182019050919050565b7f455243313135353a2063616c6c6572206973206e6f74206f776e6572206e6f7260008201527f20617070726f7665640000000000000000000000000000000000000000000000602082015250565b60006131e4602983612307565b91506131ef82613188565b604082019050919050565b60006020820190508181036000830152613213816131d7565b9050919050565b7f4f776e61626c653a206e6577206f776e657220697320746865207a65726f206160008201527f6464726573730000000000000000000000000000000000000000000000000000602082015250565b6000613276602683612307565b91506132818261321a565b604082019050919050565b600060208201905081810360008301526132a581613269565b9050919050565b7f4e487b7100000000000000000000000000000000000000000000000000000000600052601260045260246000fd5b60006132e682612174565b91506132f183612174565b925082613301576133006132ac565b5b828204905092915050565b600061331782612174565b915061332283612174565b92508282101561333557613334613110565b5b828203905092915050565b600061334b82612174565b915061335683612174565b925082613366576133656132ac565b5b828206905092915050565b600061337c82612174565b915061338783612174565b9250827fffffffffffffffffffffffffffffffffffffffffffffffffffffffffffffffff038211156133bc576133bb613110565b5b828201905092915050565b60006133d282612174565b91506133dd83612174565b9250817fffffffffffffffffffffffffffffffffffffffffffffffffffffffffffffffff048311821515161561341657613415613110565b5b828202905092915050565b7f455243313135353a206d696e7420746f20746865207a65726f2061646472657360008201527f7300000000000000000000000000000000000000000000000000000000000000602082015250565b600061347d602183612307565b915061348882613421565b604082019050919050565b600060208201905081810360008301526134ac81613470565b9050919050565b60006040820190506134c860008301856121ea565b6134d560208301846121ea565b9392505050565b7f455243313135353a2069647320616e6420616d6f756e7473206c656e6774682060008201527f6d69736d61746368000000000000000000000000000000000000000000000000602082015250565b6000613538602883612307565b9150613543826134dc565b604082019050919050565b600060208201905081810360008301526135678161352b565b9050919050565b7f455243313135353a207472616e7366657220746f20746865207a65726f20616460008201527f6472657373000000000000000000000000000000000000000000000000000000602082015250565b60006135ca602583612307565b91506135d58261356e565b604082019050919050565b600060208201905081810360008301526135f9816135bd565b9050919050565b7f455243313135353a20696e73756666696369656e742062616c616e636520666f60008201527f72207472616e7366657200000000000000000000000000000000000000000000602082015250565b600061365c602a83612307565b915061366782613600565b604082019050919050565b6000602082019050818103600083015261368b8161364f565b9050919050565b600060408201905081810360008301526136ac818561285e565b905081810360208301526136c0818461285e565b90509392505050565b7f455243313135353a2073657474696e6720617070726f76616c2073746174757360008201527f20666f722073656c660000000000000000000000000000000000000000000000602082015250565b6000613725602983612307565b9150613730826136c9565b604082019050919050565b6000602082019050818103600083015261375481613718565b9050919050565b600081519050919050565b600082825260208201905092915050565b60006137828261375b565b61378c8185613766565b935061379c818560208601612318565b6137a58161234b565b840191505092915050565b600060a0820190506137c560008301886128de565b6137d260208301876128de565b6137df60408301866121ea565b6137ec60608301856121ea565b81810360808301526137fe8184613777565b90509695505050505050565b60008151905061381981612240565b92915050565b6000602082840312156138355761383461210c565b5b60006138438482850161380a565b91505092915050565b60008160e01c9050919050565b600060033d11156138785760046000803e61387560005161384c565b90505b90565b600060443d101561388b5761390e565b613893612102565b60043d036004823e80513d602482011167ffffffffffffffff821117156138bb57505061390e565b808201805167ffffffffffffffff8111156138d9575050505061390e565b80602083010160043d0385018111156138f657505050505061390e565b6139058260200185018661242b565b82955050505050505b90565b7f455243313135353a207472616e7366657220746f206e6f6e204552433131353560008201527f526563656976657220696d706c656d656e746572000000000000000000000000602082015250565b600061396d603483612307565b915061397882613911565b604082019050919050565b6000602082019050818103600083015261399c81613960565b9050919050565b7f455243313135353a204552433131353552656365697665722072656a6563746560008201527f6420746f6b656e73000000000000000000000000000000000000000000000000602082015250565b60006139ff602883612307565b9150613a0a826139a3565b604082019050919050565b60006020820190508181036000830152613a2e816139f2565b9050919050565b600060a082019050613a4a60008301886128de565b613a5760208301876128de565b8181036040830152613a69818661285e565b90508181036060830152613a7d818561285e565b90508181036080830152613a918184613777565b9050969550505050505056fea2646970667358221220e3480c970044a165e19c4dad90adbd81d35038dd260b7ea89b165888960fa28964736f6c634300080c003368747470733a2f2f676174657761792e70696e6174612e636c6f75642f697066732f516d5245677a646964474e354a587956337a506237446f586870357434444468376f6f694d6257696653736e6d682f7b69647d2e6a736f6e",
  "immutableReferences": {},
  "source": "// SPDX-License-Identifier: MIT\npragma solidity >=0.4.22 <0.9.0;\n\nimport \"@openzeppelin/contracts/utils/math/SafeMath.sol\";\nimport \"@openzeppelin/contracts/token/ERC1155/ERC1155.sol\";\nimport \"@openzeppelin/contracts/access/Ownable.sol\";\nimport \"@openzeppelin/contracts/token/ERC1155/extensions/ERC1155Supply.sol\";\nimport \"@openzeppelin/contracts/utils/math/SafeMath.sol\";\nimport \"@openzeppelin/contracts/utils/Strings.sol\";\ncontract NftContract is ERC1155Supply,Ownable {\n  using SafeMath for uint;\n\n  mapping(uint256 => uint256) private mintPrices;\n  mapping(uint256 => uint256) private maxMints;\n  mapping(uint256 => uint256) public MAX_TOKENS;\n  \n  mapping(uint256 => bool) private mintPaused;\n  mapping(uint256 => bool) private mintingEndedForever;\n  uint256 privateSalePrice=0.01 ether;\n  constructor() ERC1155(\"https://gateway.pinata.cloud/ipfs/QmREgzdidGN5JXyV3zPb7DoXhp5t4DDh7ooiMbWifSsnmh/{id}.json\") {\n        MAX_TOKENS[0] = 6;\n        MAX_TOKENS[1] = 6;\n        MAX_TOKENS[2] = 6;\n        MAX_TOKENS[3] = 6;\n        MAX_TOKENS[4] = 6;\n\n        maxMints[0] = 1;\n        maxMints[1] = 1;\n        maxMints[2] = 1;\n        maxMints[3] = 1;\n        maxMints[4] = 1;\n\n        mintPrices[0] = 0.01 ether;\n        mintPrices[1] = 0.02 ether;\n        mintPrices[2] = 0.03 ether;\n        mintPrices[3] = 0.04 ether;\n        mintPrices[4] = 0.05 ether;\n  }\n\n  function mint(uint256 id,uint256 numberOfTokens) public payable {\n        require(mintPaused[id]==false, \"Token Minting is currently paused\");\n        require(mintingEndedForever[id] == false, \"Token Sale ended\");\n        require(numberOfTokens != 0, \"You need to mint at least 1 token\");\n        require(numberOfTokens <= maxMints[id], \"Number of tokens minted exceeds maximum allowable\");\n        require(totalSupply(id).add(numberOfTokens) <= MAX_TOKENS[id], \"Minting would exceed max. supply\");\n        require(mintPrices[id].mul(numberOfTokens) <= msg.value, \"Not enough Ether sent.\");\n\n        _mint(msg.sender, id,numberOfTokens,\"\");\n    }\n\n    function endSaleForever(uint256 id) external onlyOwner {\n        mintingEndedForever[id] = true;\n    }\n\n    function togglePauseMinting(uint256 id) external onlyOwner {\n        mintPaused[id] = !mintPaused[id];\n    }\n\n    function withdraw() external onlyOwner {\n        payable(owner()).transfer(address(this).balance);\n    }\n\n    function uri(uint256 id) override public pure returns(string memory){\n        return string(\n            abi.encodePacked(\n                \"https://gateway.pinata.cloud/ipfs/QmREgzdidGN5JXyV3zPb7DoXhp5t4DDh7ooiMbWifSsnmh/\",\n                Strings.toString(id),\n                \".json\"\n            )\n        );\n    }\n}\n",
  "sourcePath": "C:\\Users\\user\\blocks\\nftMinting\\contracts\\NftContract.sol",
  "compiler": {
    "name": "solc",
    "version": "0.8.12+commit.f00d7308.Emscripten.clang"
  },
  "schemaVersion": "3.4.3",
  "updatedAt": "2022-02-25T15:35:18.716Z",
  "networkType": "ethereum",
  "devdoc": {
    "kind": "dev",
    "methods": {
      "balanceOf(address,uint256)": {
        "details": "See {IERC1155-balanceOf}. Requirements: - `account` cannot be the zero address."
      },
      "balanceOfBatch(address[],uint256[])": {
        "details": "See {IERC1155-balanceOfBatch}. Requirements: - `accounts` and `ids` must have the same length."
      },
      "exists(uint256)": {
        "details": "Indicates whether any token exist with a given id, or not."
      },
      "isApprovedForAll(address,address)": {
        "details": "See {IERC1155-isApprovedForAll}."
      },
      "owner()": {
        "details": "Returns the address of the current owner."
      },
      "renounceOwnership()": {
        "details": "Leaves the contract without owner. It will not be possible to call `onlyOwner` functions anymore. Can only be called by the current owner. NOTE: Renouncing ownership will leave the contract without an owner, thereby removing any functionality that is only available to the owner."
      },
      "safeBatchTransferFrom(address,address,uint256[],uint256[],bytes)": {
        "details": "See {IERC1155-safeBatchTransferFrom}."
      },
      "safeTransferFrom(address,address,uint256,uint256,bytes)": {
        "details": "See {IERC1155-safeTransferFrom}."
      },
      "setApprovalForAll(address,bool)": {
        "details": "See {IERC1155-setApprovalForAll}."
      },
      "supportsInterface(bytes4)": {
        "details": "See {IERC165-supportsInterface}."
      },
      "totalSupply(uint256)": {
        "details": "Total amount of tokens in with a given id."
      },
      "transferOwnership(address)": {
        "details": "Transfers ownership of the contract to a new account (`newOwner`). Can only be called by the current owner."
      }
    },
    "version": 1
  },
  "userdoc": {
    "kind": "user",
    "methods": {},
    "version": 1
  }
}