{
  "contractName": "NftContract",
  "abi": [
    {
      "inputs": [],
      "stateMutability": "nonpayable",
      "type": "constructor"
    },
    {
      "anonymous": false,
      "inputs": [
        {
          "indexed": true,
          "internalType": "address",
          "name": "account",
          "type": "address"
        },
        {
          "indexed": true,
          "internalType": "address",
          "name": "operator",
          "type": "address"
        },
        {
          "indexed": false,
          "internalType": "bool",
          "name": "approved",
          "type": "bool"
        }
      ],
      "name": "ApprovalForAll",
      "type": "event"
    },
    {
      "anonymous": false,
      "inputs": [
        {
          "indexed": true,
          "internalType": "address",
          "name": "previousOwner",
          "type": "address"
        },
        {
          "indexed": true,
          "internalType": "address",
          "name": "newOwner",
          "type": "address"
        }
      ],
      "name": "OwnershipTransferred",
      "type": "event"
    },
    {
      "anonymous": false,
      "inputs": [
        {
          "indexed": true,
          "internalType": "address",
          "name": "operator",
          "type": "address"
        },
        {
          "indexed": true,
          "internalType": "address",
          "name": "from",
          "type": "address"
        },
        {
          "indexed": true,
          "internalType": "address",
          "name": "to",
          "type": "address"
        },
        {
          "indexed": false,
          "internalType": "uint256[]",
          "name": "ids",
          "type": "uint256[]"
        },
        {
          "indexed": false,
          "internalType": "uint256[]",
          "name": "values",
          "type": "uint256[]"
        }
      ],
      "name": "TransferBatch",
      "type": "event"
    },
    {
      "anonymous": false,
      "inputs": [
        {
          "indexed": true,
          "internalType": "address",
          "name": "operator",
          "type": "address"
        },
        {
          "indexed": true,
          "internalType": "address",
          "name": "from",
          "type": "address"
        },
        {
          "indexed": true,
          "internalType": "address",
          "name": "to",
          "type": "address"
        },
        {
          "indexed": false,
          "internalType": "uint256",
          "name": "id",
          "type": "uint256"
        },
        {
          "indexed": false,
          "internalType": "uint256",
          "name": "value",
          "type": "uint256"
        }
      ],
      "name": "TransferSingle",
      "type": "event"
    },
    {
      "anonymous": false,
      "inputs": [
        {
          "indexed": false,
          "internalType": "string",
          "name": "value",
          "type": "string"
        },
        {
          "indexed": true,
          "internalType": "uint256",
          "name": "id",
          "type": "uint256"
        }
      ],
      "name": "URI",
      "type": "event"
    },
    {
      "inputs": [
        {
          "internalType": "address",
          "name": "account",
          "type": "address"
        },
        {
          "internalType": "uint256",
          "name": "id",
          "type": "uint256"
        }
      ],
      "name": "balanceOf",
      "outputs": [
        {
          "internalType": "uint256",
          "name": "",
          "type": "uint256"
        }
      ],
      "stateMutability": "view",
      "type": "function",
      "constant": true
    },
    {
      "inputs": [
        {
          "internalType": "address[]",
          "name": "accounts",
          "type": "address[]"
        },
        {
          "internalType": "uint256[]",
          "name": "ids",
          "type": "uint256[]"
        }
      ],
      "name": "balanceOfBatch",
      "outputs": [
        {
          "internalType": "uint256[]",
          "name": "",
          "type": "uint256[]"
        }
      ],
      "stateMutability": "view",
      "type": "function",
      "constant": true
    },
    {
      "inputs": [],
      "name": "deployTime",
      "outputs": [
        {
          "internalType": "uint256",
          "name": "",
          "type": "uint256"
        }
      ],
      "stateMutability": "view",
      "type": "function",
      "constant": true
    },
    {
      "inputs": [
        {
          "internalType": "uint256",
          "name": "id",
          "type": "uint256"
        }
      ],
      "name": "exists",
      "outputs": [
        {
          "internalType": "bool",
          "name": "",
          "type": "bool"
        }
      ],
      "stateMutability": "view",
      "type": "function",
      "constant": true
    },
    {
      "inputs": [
        {
          "internalType": "address",
          "name": "account",
          "type": "address"
        },
        {
          "internalType": "address",
          "name": "operator",
          "type": "address"
        }
      ],
      "name": "isApprovedForAll",
      "outputs": [
        {
          "internalType": "bool",
          "name": "",
          "type": "bool"
        }
      ],
      "stateMutability": "view",
      "type": "function",
      "constant": true
    },
    {
      "inputs": [],
      "name": "maxTokensPerMintPrivateSale",
      "outputs": [
        {
          "internalType": "uint256",
          "name": "",
          "type": "uint256"
        }
      ],
      "stateMutability": "view",
      "type": "function",
      "constant": true
    },
    {
      "inputs": [],
      "name": "maxTokensPerMintPublicSale",
      "outputs": [
        {
          "internalType": "uint256",
          "name": "",
          "type": "uint256"
        }
      ],
      "stateMutability": "view",
      "type": "function",
      "constant": true
    },
    {
      "inputs": [],
      "name": "maxTokensPerUserPrivateSale",
      "outputs": [
        {
          "internalType": "uint256",
          "name": "",
          "type": "uint256"
        }
      ],
      "stateMutability": "view",
      "type": "function",
      "constant": true
    },
    {
      "inputs": [],
      "name": "owner",
      "outputs": [
        {
          "internalType": "address",
          "name": "",
          "type": "address"
        }
      ],
      "stateMutability": "view",
      "type": "function",
      "constant": true
    },
    {
      "inputs": [],
      "name": "privateSalePrice",
      "outputs": [
        {
          "internalType": "uint256",
          "name": "",
          "type": "uint256"
        }
      ],
      "stateMutability": "view",
      "type": "function",
      "constant": true
    },
    {
      "inputs": [
        {
          "internalType": "uint256",
          "name": "",
          "type": "uint256"
        }
      ],
      "name": "publicSalePrice",
      "outputs": [
        {
          "internalType": "uint256",
          "name": "",
          "type": "uint256"
        }
      ],
      "stateMutability": "view",
      "type": "function",
      "constant": true
    },
    {
      "inputs": [],
      "name": "renounceOwnership",
      "outputs": [],
      "stateMutability": "nonpayable",
      "type": "function"
    },
    {
      "inputs": [
        {
          "internalType": "address",
          "name": "from",
          "type": "address"
        },
        {
          "internalType": "address",
          "name": "to",
          "type": "address"
        },
        {
          "internalType": "uint256[]",
          "name": "ids",
          "type": "uint256[]"
        },
        {
          "internalType": "uint256[]",
          "name": "amounts",
          "type": "uint256[]"
        },
        {
          "internalType": "bytes",
          "name": "data",
          "type": "bytes"
        }
      ],
      "name": "safeBatchTransferFrom",
      "outputs": [],
      "stateMutability": "nonpayable",
      "type": "function"
    },
    {
      "inputs": [
        {
          "internalType": "address",
          "name": "from",
          "type": "address"
        },
        {
          "internalType": "address",
          "name": "to",
          "type": "address"
        },
        {
          "internalType": "uint256",
          "name": "id",
          "type": "uint256"
        },
        {
          "internalType": "uint256",
          "name": "amount",
          "type": "uint256"
        },
        {
          "internalType": "bytes",
          "name": "data",
          "type": "bytes"
        }
      ],
      "name": "safeTransferFrom",
      "outputs": [],
      "stateMutability": "nonpayable",
      "type": "function"
    },
    {
      "inputs": [
        {
          "internalType": "address",
          "name": "operator",
          "type": "address"
        },
        {
          "internalType": "bool",
          "name": "approved",
          "type": "bool"
        }
      ],
      "name": "setApprovalForAll",
      "outputs": [],
      "stateMutability": "nonpayable",
      "type": "function"
    },
    {
      "inputs": [
        {
          "internalType": "bytes4",
          "name": "interfaceId",
          "type": "bytes4"
        }
      ],
      "name": "supportsInterface",
      "outputs": [
        {
          "internalType": "bool",
          "name": "",
          "type": "bool"
        }
      ],
      "stateMutability": "view",
      "type": "function",
      "constant": true
    },
    {
      "inputs": [
        {
          "internalType": "uint256",
          "name": "id",
          "type": "uint256"
        }
      ],
      "name": "totalSupply",
      "outputs": [
        {
          "internalType": "uint256",
          "name": "",
          "type": "uint256"
        }
      ],
      "stateMutability": "view",
      "type": "function",
      "constant": true
    },
    {
      "inputs": [
        {
          "internalType": "address",
          "name": "newOwner",
          "type": "address"
        }
      ],
      "name": "transferOwnership",
      "outputs": [],
      "stateMutability": "nonpayable",
      "type": "function"
    },
    {
      "inputs": [
        {
          "internalType": "uint256",
          "name": "_maxTokensPerUserPrivateSale",
          "type": "uint256"
        }
      ],
      "name": "setMaxTokensPerUserPrivateSale",
      "outputs": [],
      "stateMutability": "nonpayable",
      "type": "function"
    },
    {
      "inputs": [
        {
          "internalType": "uint256",
          "name": "_maxTokensPerMintPublicSale",
          "type": "uint256"
        }
      ],
      "name": "setMaxTokensPerMintPublicSale",
      "outputs": [],
      "stateMutability": "nonpayable",
      "type": "function"
    },
    {
      "inputs": [
        {
          "internalType": "uint256",
          "name": "_maxTokensPerMintPrivateSale",
          "type": "uint256"
        }
      ],
      "name": "setMaxTokensPerMintPrivateSale",
      "outputs": [],
      "stateMutability": "nonpayable",
      "type": "function"
    },
    {
      "inputs": [
        {
          "internalType": "uint256",
          "name": "_privateSalePrice",
          "type": "uint256"
        }
      ],
      "name": "setPrivateSalePrice",
      "outputs": [],
      "stateMutability": "nonpayable",
      "type": "function"
    },
    {
      "inputs": [
        {
          "internalType": "uint256",
          "name": "id",
          "type": "uint256"
        },
        {
          "internalType": "uint256",
          "name": "_publicSalePrice",
          "type": "uint256"
        }
      ],
      "name": "setPublicSalePrice",
      "outputs": [],
      "stateMutability": "nonpayable",
      "type": "function"
    },
    {
      "inputs": [
        {
          "internalType": "uint256",
          "name": "id",
          "type": "uint256"
        }
      ],
      "name": "getTokenPrice",
      "outputs": [
        {
          "internalType": "uint256",
          "name": "",
          "type": "uint256"
        }
      ],
      "stateMutability": "view",
      "type": "function",
      "constant": true
    },
    {
      "inputs": [
        {
          "internalType": "uint256",
          "name": "id",
          "type": "uint256"
        },
        {
          "internalType": "uint256",
          "name": "numberOfTokens",
          "type": "uint256"
        }
      ],
      "name": "mint",
      "outputs": [],
      "stateMutability": "payable",
      "type": "function",
      "payable": true
    },
    {
      "inputs": [
        {
          "internalType": "address",
          "name": "user",
          "type": "address"
        }
      ],
      "name": "addPrivateSaleBuyer",
      "outputs": [],
      "stateMutability": "nonpayable",
      "type": "function"
    },
    {
      "inputs": [],
      "name": "togglePauseMinting",
      "outputs": [],
      "stateMutability": "nonpayable",
      "type": "function"
    },
    {
      "inputs": [],
      "name": "withdraw",
      "outputs": [],
      "stateMutability": "nonpayable",
      "type": "function"
    },
    {
      "inputs": [
        {
          "internalType": "uint256",
          "name": "id",
          "type": "uint256"
        }
      ],
      "name": "uri",
      "outputs": [
        {
          "internalType": "string",
          "name": "",
          "type": "string"
        }
      ],
      "stateMutability": "pure",
      "type": "function",
      "constant": true
    }
  ],
  "bytecode": "0x60806040523480156200001157600080fd5b506040518060800160405280605a815260200162004576605a91396200003d81620000f960201b60201c565b506200005e620000526200011560201b60201c565b6200011d60201b60201c565b67016345785d8a000060078190555060006008600080815260200190815260200160002081905550600060086000600181526020019081526020016000208190555060006008600060028152602001908152602001600020819055506000600860006003815260200190815260200160002081905550426009819055506001600a819055506001600b819055506001600c81905550620002f8565b806002908051906020019062000111929190620001e3565b5050565b600033905090565b6000600460009054906101000a900473ffffffffffffffffffffffffffffffffffffffff16905081600460006101000a81548173ffffffffffffffffffffffffffffffffffffffff021916908373ffffffffffffffffffffffffffffffffffffffff1602179055508173ffffffffffffffffffffffffffffffffffffffff168173ffffffffffffffffffffffffffffffffffffffff167f8be0079c531659141344cd1fd0a4f28419497f9722a3daafe3b4186f6b6457e060405160405180910390a35050565b828054620001f190620002c2565b90600052602060002090601f01602090048101928262000215576000855562000261565b82601f106200023057805160ff191683800117855562000261565b8280016001018555821562000261579182015b828111156200026057825182559160200191906001019062000243565b5b50905062000270919062000274565b5090565b5b808211156200028f57600081600090555060010162000275565b5090565b7f4e487b7100000000000000000000000000000000000000000000000000000000600052602260045260246000fd5b60006002820490506001821680620002db57607f821691505b60208210811415620002f257620002f162000293565b5b50919050565b61426e80620003086000396000f3fe6080604052600436106101c15760003560e01c80637a40624b116100f7578063ceb08b3911610095578063f242432a11610064578063f242432a14610642578063f2fde38b1461066b578063f560d41514610694578063fb85fd74146106bf576101c1565b8063ceb08b3914610586578063dc0a6848146105b1578063e985e9c5146105da578063ee84381214610617576101c1565b8063a22cb465116100d1578063a22cb465146104ba578063bd85b039146104e3578063c457fb3714610520578063ca325a331461055d576101c1565b80637a40624b1461043b5780637bc36e04146104665780638da5cb5b1461048f576101c1565b80633ccfd60b116101645780634f30fd1c1161013e5780634f30fd1c146103935780634f558e79146103be578063715018a6146103fb5780637583d62814610412576101c1565b80633ccfd60b146103285780633e53afc31461033f5780634e1273f414610356576101c1565b80630e89341c116101a05780630e89341c1461027d5780631b2ef1ca146102ba5780632eb2c2d6146102d6578063344ed51a146102ff576101c1565b8062fdd58e146101c657806301ffc9a714610203578063029ecbe614610240575b600080fd5b3480156101d257600080fd5b506101ed60048036038101906101e89190612841565b6106e8565b6040516101fa9190612890565b60405180910390f35b34801561020f57600080fd5b5061022a60048036038101906102259190612903565b6107b1565b604051610237919061294b565b60405180910390f35b34801561024c57600080fd5b5061026760048036038101906102629190612966565b610893565b6040516102749190612890565b60405180910390f35b34801561028957600080fd5b506102a4600480360381019061029f9190612966565b6108ab565b6040516102b19190612a2c565b60405180910390f35b6102d460048036038101906102cf9190612a4e565b6108dc565b005b3480156102e257600080fd5b506102fd60048036038101906102f89190612c8b565b610c2d565b005b34801561030b57600080fd5b5061032660048036038101906103219190612a4e565b610cce565b005b34801561033457600080fd5b5061033d610d66565b005b34801561034b57600080fd5b50610354610e32565b005b34801561036257600080fd5b5061037d60048036038101906103789190612e1d565b610eda565b60405161038a9190612f53565b60405180910390f35b34801561039f57600080fd5b506103a8610ff3565b6040516103b59190612890565b60405180910390f35b3480156103ca57600080fd5b506103e560048036038101906103e09190612966565b610ff9565b6040516103f2919061294b565b60405180910390f35b34801561040757600080fd5b5061041061100d565b005b34801561041e57600080fd5b5061043960048036038101906104349190612966565b611095565b005b34801561044757600080fd5b5061045061111b565b60405161045d9190612890565b60405180910390f35b34801561047257600080fd5b5061048d60048036038101906104889190612966565b611121565b005b34801561049b57600080fd5b506104a46111a7565b6040516104b19190612f84565b60405180910390f35b3480156104c657600080fd5b506104e160048036038101906104dc9190612fcb565b6111d1565b005b3480156104ef57600080fd5b5061050a60048036038101906105059190612966565b6111e7565b6040516105179190612890565b60405180910390f35b34801561052c57600080fd5b5061054760048036038101906105429190612966565b611204565b6040516105549190612890565b60405180910390f35b34801561056957600080fd5b50610584600480360381019061057f9190612966565b61124a565b005b34801561059257600080fd5b5061059b6112d0565b6040516105a89190612890565b60405180910390f35b3480156105bd57600080fd5b506105d860048036038101906105d3919061300b565b6112d6565b005b3480156105e657600080fd5b5061060160048036038101906105fc9190613038565b6113ad565b60405161060e919061294b565b60405180910390f35b34801561062357600080fd5b5061062c611441565b6040516106399190612890565b60405180910390f35b34801561064e57600080fd5b5061066960048036038101906106649190613078565b611447565b005b34801561067757600080fd5b50610692600480360381019061068d919061300b565b6114e8565b005b3480156106a057600080fd5b506106a96115e0565b6040516106b69190612890565b60405180910390f35b3480156106cb57600080fd5b506106e660048036038101906106e19190612966565b6115e6565b005b60008073ffffffffffffffffffffffffffffffffffffffff168373ffffffffffffffffffffffffffffffffffffffff161415610759576040517f08c379a000000000000000000000000000000000000000000000000000000000815260040161075090613181565b60405180910390fd5b60008083815260200190815260200160002060008473ffffffffffffffffffffffffffffffffffffffff1673ffffffffffffffffffffffffffffffffffffffff16815260200190815260200160002054905092915050565b60007fd9b67a26000000000000000000000000000000000000000000000000000000007bffffffffffffffffffffffffffffffffffffffffffffffffffffffff1916827bffffffffffffffffffffffffffffffffffffffffffffffffffffffff1916148061087c57507f0e89341c000000000000000000000000000000000000000000000000000000007bffffffffffffffffffffffffffffffffffffffffffffffffffffffff1916827bffffffffffffffffffffffffffffffffffffffffffffffffffffffff1916145b8061088c575061088b8261166c565b5b9050919050565b60086020528060005260406000206000915090505481565b60606108b6826116d6565b6040516020016108c691906132c1565b6040516020818303038152906040529050919050565b60001515600460149054906101000a900460ff16151514610932576040517f08c379a000000000000000000000000000000000000000000000000000000000815260040161092990613360565b60405180910390fd5b6000811415610976576040517f08c379a000000000000000000000000000000000000000000000000000000000815260040161096d906133f2565b60405180910390fd5b6000426109916201518060095461183790919063ffffffff16565b10610b5c576007549050600560003373ffffffffffffffffffffffffffffffffffffffff1673ffffffffffffffffffffffffffffffffffffffff16815260200190815260200160002060009054906101000a900460ff16610a27576040517f08c379a0000000000000000000000000000000000000000000000000000000008152600401610a1e9061345e565b60405180910390fd5b600c54610a7c83600660003373ffffffffffffffffffffffffffffffffffffffff1673ffffffffffffffffffffffffffffffffffffffff1681526020019081526020016000205461183790919063ffffffff16565b1115610abd576040517f08c379a0000000000000000000000000000000000000000000000000000000008152600401610ab4906134f0565b60405180910390fd5b600b54821115610b02576040517f08c379a0000000000000000000000000000000000000000000000000000000008152600401610af9906135a8565b60405180910390fd5b600660003373ffffffffffffffffffffffffffffffffffffffff1673ffffffffffffffffffffffffffffffffffffffff1681526020019081526020016000206000815480929190610b52906135f7565b9190505550610bb8565b60086000848152602001908152602001600020549050600a54821115610bb7576040517f08c379a0000000000000000000000000000000000000000000000000000000008152600401610bae906136d8565b60405180910390fd5b5b34610bcc838361184d90919063ffffffff16565b1115610c0d576040517f08c379a0000000000000000000000000000000000000000000000000000000008152600401610c0490613744565b60405180910390fd5b610c2833848460405180602001604052806000815250611863565b505050565b610c356119f9565b73ffffffffffffffffffffffffffffffffffffffff168573ffffffffffffffffffffffffffffffffffffffff161480610c7b5750610c7a85610c756119f9565b6113ad565b5b610cba576040517f08c379a0000000000000000000000000000000000000000000000000000000008152600401610cb1906137d6565b60405180910390fd5b610cc78585858585611a01565b5050505050565b610cd66119f9565b73ffffffffffffffffffffffffffffffffffffffff16610cf46111a7565b73ffffffffffffffffffffffffffffffffffffffff1614610d4a576040517f08c379a0000000000000000000000000000000000000000000000000000000008152600401610d4190613842565b60405180910390fd5b8060086000848152602001908152602001600020819055505050565b610d6e6119f9565b73ffffffffffffffffffffffffffffffffffffffff16610d8c6111a7565b73ffffffffffffffffffffffffffffffffffffffff1614610de2576040517f08c379a0000000000000000000000000000000000000000000000000000000008152600401610dd990613842565b60405180910390fd5b610dea6111a7565b73ffffffffffffffffffffffffffffffffffffffff166108fc479081150290604051600060405180830381858888f19350505050158015610e2f573d6000803e3d6000fd5b50565b610e3a6119f9565b73ffffffffffffffffffffffffffffffffffffffff16610e586111a7565b73ffffffffffffffffffffffffffffffffffffffff1614610eae576040517f08c379a0000000000000000000000000000000000000000000000000000000008152600401610ea590613842565b60405180910390fd5b600460149054906101000a900460ff1615600460146101000a81548160ff021916908315150217905550565b60608151835114610f20576040517f08c379a0000000000000000000000000000000000000000000000000000000008152600401610f17906138d4565b60405180910390fd5b6000835167ffffffffffffffff811115610f3d57610f3c612a93565b5b604051908082528060200260200182016040528015610f6b5781602001602082028036833780820191505090505b50905060005b8451811015610fe857610fb8858281518110610f9057610f8f6138f4565b5b6020026020010151858381518110610fab57610faa6138f4565b5b60200260200101516106e8565b828281518110610fcb57610fca6138f4565b5b60200260200101818152505080610fe1906135f7565b9050610f71565b508091505092915050565b600c5481565b600080611005836111e7565b119050919050565b6110156119f9565b73ffffffffffffffffffffffffffffffffffffffff166110336111a7565b73ffffffffffffffffffffffffffffffffffffffff1614611089576040517f08c379a000000000000000000000000000000000000000000000000000000000815260040161108090613842565b60405180910390fd5b6110936000611d15565b565b61109d6119f9565b73ffffffffffffffffffffffffffffffffffffffff166110bb6111a7565b73ffffffffffffffffffffffffffffffffffffffff1614611111576040517f08c379a000000000000000000000000000000000000000000000000000000000815260040161110890613842565b60405180910390fd5b80600a8190555050565b60095481565b6111296119f9565b73ffffffffffffffffffffffffffffffffffffffff166111476111a7565b73ffffffffffffffffffffffffffffffffffffffff161461119d576040517f08c379a000000000000000000000000000000000000000000000000000000000815260040161119490613842565b60405180910390fd5b8060078190555050565b6000600460009054906101000a900473ffffffffffffffffffffffffffffffffffffffff16905090565b6111e36111dc6119f9565b8383611ddb565b5050565b600060036000838152602001908152602001600020549050919050565b60004261121f6201518060095461183790919063ffffffff16565b1061122e576007549050611245565b600860008381526020019081526020016000205490505b919050565b6112526119f9565b73ffffffffffffffffffffffffffffffffffffffff166112706111a7565b73ffffffffffffffffffffffffffffffffffffffff16146112c6576040517f08c379a00000000000000000000000000000000000000000000000000000000081526004016112bd90613842565b60405180910390fd5b80600c8190555050565b600b5481565b6112de6119f9565b73ffffffffffffffffffffffffffffffffffffffff166112fc6111a7565b73ffffffffffffffffffffffffffffffffffffffff1614611352576040517f08c379a000000000000000000000000000000000000000000000000000000000815260040161134990613842565b60405180910390fd5b6001600560008373ffffffffffffffffffffffffffffffffffffffff1673ffffffffffffffffffffffffffffffffffffffff16815260200190815260200160002060006101000a81548160ff02191690831515021790555050565b6000600160008473ffffffffffffffffffffffffffffffffffffffff1673ffffffffffffffffffffffffffffffffffffffff16815260200190815260200160002060008373ffffffffffffffffffffffffffffffffffffffff1673ffffffffffffffffffffffffffffffffffffffff16815260200190815260200160002060009054906101000a900460ff16905092915050565b600a5481565b61144f6119f9565b73ffffffffffffffffffffffffffffffffffffffff168573ffffffffffffffffffffffffffffffffffffffff16148061149557506114948561148f6119f9565b6113ad565b5b6114d4576040517f08c379a00000000000000000000000000000000000000000000000000000000081526004016114cb90613995565b60405180910390fd5b6114e18585858585611f48565b5050505050565b6114f06119f9565b73ffffffffffffffffffffffffffffffffffffffff1661150e6111a7565b73ffffffffffffffffffffffffffffffffffffffff1614611564576040517f08c379a000000000000000000000000000000000000000000000000000000000815260040161155b90613842565b60405180910390fd5b600073ffffffffffffffffffffffffffffffffffffffff168173ffffffffffffffffffffffffffffffffffffffff1614156115d4576040517f08c379a00000000000000000000000000000000000000000000000000000000081526004016115cb90613a27565b60405180910390fd5b6115dd81611d15565b50565b60075481565b6115ee6119f9565b73ffffffffffffffffffffffffffffffffffffffff1661160c6111a7565b73ffffffffffffffffffffffffffffffffffffffff1614611662576040517f08c379a000000000000000000000000000000000000000000000000000000000815260040161165990613842565b60405180910390fd5b80600b8190555050565b60007f01ffc9a7000000000000000000000000000000000000000000000000000000007bffffffffffffffffffffffffffffffffffffffffffffffffffffffff1916827bffffffffffffffffffffffffffffffffffffffffffffffffffffffff1916149050919050565b6060600082141561171e576040518060400160405280600181526020017f30000000000000000000000000000000000000000000000000000000000000008152509050611832565b600082905060005b60008214611750578080611739906135f7565b915050600a826117499190613a76565b9150611726565b60008167ffffffffffffffff81111561176c5761176b612a93565b5b6040519080825280601f01601f19166020018201604052801561179e5781602001600182028036833780820191505090505b5090505b6000851461182b576001826117b79190613aa7565b9150600a856117c69190613adb565b60306117d29190613b0c565b60f81b8183815181106117e8576117e76138f4565b5b60200101907effffffffffffffffffffffffffffffffffffffffffffffffffffffffffffff1916908160001a905350600a856118249190613a76565b94506117a2565b8093505050505b919050565b600081836118459190613b0c565b905092915050565b6000818361185b9190613b62565b905092915050565b600073ffffffffffffffffffffffffffffffffffffffff168473ffffffffffffffffffffffffffffffffffffffff1614156118d3576040517f08c379a00000000000000000000000000000000000000000000000000000000081526004016118ca90613c2e565b60405180910390fd5b60006118dd6119f9565b90506118fe816000876118ef886121ca565b6118f8886121ca565b87612244565b8260008086815260200190815260200160002060008773ffffffffffffffffffffffffffffffffffffffff1673ffffffffffffffffffffffffffffffffffffffff168152602001908152602001600020600082825461195d9190613b0c565b925050819055508473ffffffffffffffffffffffffffffffffffffffff16600073ffffffffffffffffffffffffffffffffffffffff168273ffffffffffffffffffffffffffffffffffffffff167fc3d58168c5ae7397731d063d5bbf3d657854427343f4c083240f7aacaa2d0f6287876040516119db929190613c4e565b60405180910390a46119f2816000878787876123be565b5050505050565b600033905090565b8151835114611a45576040517f08c379a0000000000000000000000000000000000000000000000000000000008152600401611a3c90613ce9565b60405180910390fd5b600073ffffffffffffffffffffffffffffffffffffffff168473ffffffffffffffffffffffffffffffffffffffff161415611ab5576040517f08c379a0000000000000000000000000000000000000000000000000000000008152600401611aac90613d7b565b60405180910390fd5b6000611abf6119f9565b9050611acf818787878787612244565b60005b8451811015611c80576000858281518110611af057611aef6138f4565b5b602002602001015190506000858381518110611b0f57611b0e6138f4565b5b60200260200101519050600080600084815260200190815260200160002060008b73ffffffffffffffffffffffffffffffffffffffff1673ffffffffffffffffffffffffffffffffffffffff16815260200190815260200160002054905081811015611bb0576040517f08c379a0000000000000000000000000000000000000000000000000000000008152600401611ba790613e0d565b60405180910390fd5b81810360008085815260200190815260200160002060008c73ffffffffffffffffffffffffffffffffffffffff1673ffffffffffffffffffffffffffffffffffffffff168152602001908152602001600020819055508160008085815260200190815260200160002060008b73ffffffffffffffffffffffffffffffffffffffff1673ffffffffffffffffffffffffffffffffffffffff1681526020019081526020016000206000828254611c659190613b0c565b9250508190555050505080611c79906135f7565b9050611ad2565b508473ffffffffffffffffffffffffffffffffffffffff168673ffffffffffffffffffffffffffffffffffffffff168273ffffffffffffffffffffffffffffffffffffffff167f4a39dc06d4c0dbc64b70af90fd698a233a518aa5d07e595d983b8c0526c8f7fb8787604051611cf7929190613e2d565b60405180910390a4611d0d818787878787612596565b505050505050565b6000600460009054906101000a900473ffffffffffffffffffffffffffffffffffffffff16905081600460006101000a81548173ffffffffffffffffffffffffffffffffffffffff021916908373ffffffffffffffffffffffffffffffffffffffff1602179055508173ffffffffffffffffffffffffffffffffffffffff168173ffffffffffffffffffffffffffffffffffffffff167f8be0079c531659141344cd1fd0a4f28419497f9722a3daafe3b4186f6b6457e060405160405180910390a35050565b8173ffffffffffffffffffffffffffffffffffffffff168373ffffffffffffffffffffffffffffffffffffffff161415611e4a576040517f08c379a0000000000000000000000000000000000000000000000000000000008152600401611e4190613ed6565b60405180910390fd5b80600160008573ffffffffffffffffffffffffffffffffffffffff1673ffffffffffffffffffffffffffffffffffffffff16815260200190815260200160002060008473ffffffffffffffffffffffffffffffffffffffff1673ffffffffffffffffffffffffffffffffffffffff16815260200190815260200160002060006101000a81548160ff0219169083151502179055508173ffffffffffffffffffffffffffffffffffffffff168373ffffffffffffffffffffffffffffffffffffffff167f17307eab39ab6107e8899845ad3d59bd9653f200f220920489ca2b5937696c3183604051611f3b919061294b565b60405180910390a3505050565b600073ffffffffffffffffffffffffffffffffffffffff168473ffffffffffffffffffffffffffffffffffffffff161415611fb8576040517f08c379a0000000000000000000000000000000000000000000000000000000008152600401611faf90613d7b565b60405180910390fd5b6000611fc26119f9565b9050611fe2818787611fd3886121ca565b611fdc886121ca565b87612244565b600080600086815260200190815260200160002060008873ffffffffffffffffffffffffffffffffffffffff1673ffffffffffffffffffffffffffffffffffffffff16815260200190815260200160002054905083811015612079576040517f08c379a000000000000000000000000000000000000000000000000000000000815260040161207090613e0d565b60405180910390fd5b83810360008087815260200190815260200160002060008973ffffffffffffffffffffffffffffffffffffffff1673ffffffffffffffffffffffffffffffffffffffff168152602001908152602001600020819055508360008087815260200190815260200160002060008873ffffffffffffffffffffffffffffffffffffffff1673ffffffffffffffffffffffffffffffffffffffff168152602001908152602001600020600082825461212e9190613b0c565b925050819055508573ffffffffffffffffffffffffffffffffffffffff168773ffffffffffffffffffffffffffffffffffffffff168373ffffffffffffffffffffffffffffffffffffffff167fc3d58168c5ae7397731d063d5bbf3d657854427343f4c083240f7aacaa2d0f6288886040516121ab929190613c4e565b60405180910390a46121c18288888888886123be565b50505050505050565b60606000600167ffffffffffffffff8111156121e9576121e8612a93565b5b6040519080825280602002602001820160405280156122175781602001602082028036833780820191505090505b509050828160008151811061222f5761222e6138f4565b5b60200260200101818152505080915050919050565b61225286868686868661276e565b600073ffffffffffffffffffffffffffffffffffffffff168573ffffffffffffffffffffffffffffffffffffffff1614156123045760005b8351811015612302578281815181106122a6576122a56138f4565b5b6020026020010151600360008684815181106122c5576122c46138f4565b5b6020026020010151815260200190815260200160002060008282546122ea9190613b0c565b92505081905550806122fb906135f7565b905061228a565b505b600073ffffffffffffffffffffffffffffffffffffffff168473ffffffffffffffffffffffffffffffffffffffff1614156123b65760005b83518110156123b457828181518110612358576123576138f4565b5b602002602001015160036000868481518110612377576123766138f4565b5b60200260200101518152602001908152602001600020600082825461239c9190613aa7565b92505081905550806123ad906135f7565b905061233c565b505b505050505050565b6123dd8473ffffffffffffffffffffffffffffffffffffffff16612776565b1561258e578373ffffffffffffffffffffffffffffffffffffffff1663f23a6e6187878686866040518663ffffffff1660e01b8152600401612423959493929190613f4b565b6020604051808303816000875af192505050801561245f57506040513d601f19601f8201168201806040525081019061245c9190613fba565b60015b6125055761246b613ff4565b806308c379a014156124c85750612480614016565b8061248b57506124ca565b806040517f08c379a00000000000000000000000000000000000000000000000000000000081526004016124bf9190612a2c565b60405180910390fd5b505b6040517f08c379a00000000000000000000000000000000000000000000000000000000081526004016124fc9061411e565b60405180910390fd5b63f23a6e6160e01b7bffffffffffffffffffffffffffffffffffffffffffffffffffffffff1916817bffffffffffffffffffffffffffffffffffffffffffffffffffffffff19161461258c576040517f08c379a0000000000000000000000000000000000000000000000000000000008152600401612583906141b0565b60405180910390fd5b505b505050505050565b6125b58473ffffffffffffffffffffffffffffffffffffffff16612776565b15612766578373ffffffffffffffffffffffffffffffffffffffff1663bc197c8187878686866040518663ffffffff1660e01b81526004016125fb9594939291906141d0565b6020604051808303816000875af192505050801561263757506040513d601f19601f820116820180604052508101906126349190613fba565b60015b6126dd57612643613ff4565b806308c379a014156126a05750612658614016565b8061266357506126a2565b806040517f08c379a00000000000000000000000000000000000000000000000000000000081526004016126979190612a2c565b60405180910390fd5b505b6040517f08c379a00000000000000000000000000000000000000000000000000000000081526004016126d49061411e565b60405180910390fd5b63bc197c8160e01b7bffffffffffffffffffffffffffffffffffffffffffffffffffffffff1916817bffffffffffffffffffffffffffffffffffffffffffffffffffffffff191614612764576040517f08c379a000000000000000000000000000000000000000000000000000000000815260040161275b906141b0565b60405180910390fd5b505b505050505050565b505050505050565b6000808273ffffffffffffffffffffffffffffffffffffffff163b119050919050565b6000604051905090565b600080fd5b600080fd5b600073ffffffffffffffffffffffffffffffffffffffff82169050919050565b60006127d8826127ad565b9050919050565b6127e8816127cd565b81146127f357600080fd5b50565b600081359050612805816127df565b92915050565b6000819050919050565b61281e8161280b565b811461282957600080fd5b50565b60008135905061283b81612815565b92915050565b60008060408385031215612858576128576127a3565b5b6000612866858286016127f6565b92505060206128778582860161282c565b9150509250929050565b61288a8161280b565b82525050565b60006020820190506128a56000830184612881565b92915050565b60007fffffffff0000000000000000000000000000000000000000000000000000000082169050919050565b6128e0816128ab565b81146128eb57600080fd5b50565b6000813590506128fd816128d7565b92915050565b600060208284031215612919576129186127a3565b5b6000612927848285016128ee565b91505092915050565b60008115159050919050565b61294581612930565b82525050565b6000602082019050612960600083018461293c565b92915050565b60006020828403121561297c5761297b6127a3565b5b600061298a8482850161282c565b91505092915050565b600081519050919050565b600082825260208201905092915050565b60005b838110156129cd5780820151818401526020810190506129b2565b838111156129dc576000848401525b50505050565b6000601f19601f8301169050919050565b60006129fe82612993565b612a08818561299e565b9350612a188185602086016129af565b612a21816129e2565b840191505092915050565b60006020820190508181036000830152612a4681846129f3565b905092915050565b60008060408385031215612a6557612a646127a3565b5b6000612a738582860161282c565b9250506020612a848582860161282c565b9150509250929050565b600080fd5b7f4e487b7100000000000000000000000000000000000000000000000000000000600052604160045260246000fd5b612acb826129e2565b810181811067ffffffffffffffff82111715612aea57612ae9612a93565b5b80604052505050565b6000612afd612799565b9050612b098282612ac2565b919050565b600067ffffffffffffffff821115612b2957612b28612a93565b5b602082029050602081019050919050565b600080fd5b6000612b52612b4d84612b0e565b612af3565b90508083825260208201905060208402830185811115612b7557612b74612b3a565b5b835b81811015612b9e5780612b8a888261282c565b845260208401935050602081019050612b77565b5050509392505050565b600082601f830112612bbd57612bbc612a8e565b5b8135612bcd848260208601612b3f565b91505092915050565b600080fd5b600067ffffffffffffffff821115612bf657612bf5612a93565b5b612bff826129e2565b9050602081019050919050565b82818337600083830152505050565b6000612c2e612c2984612bdb565b612af3565b905082815260208101848484011115612c4a57612c49612bd6565b5b612c55848285612c0c565b509392505050565b600082601f830112612c7257612c71612a8e565b5b8135612c82848260208601612c1b565b91505092915050565b600080600080600060a08688031215612ca757612ca66127a3565b5b6000612cb5888289016127f6565b9550506020612cc6888289016127f6565b945050604086013567ffffffffffffffff811115612ce757612ce66127a8565b5b612cf388828901612ba8565b935050606086013567ffffffffffffffff811115612d1457612d136127a8565b5b612d2088828901612ba8565b925050608086013567ffffffffffffffff811115612d4157612d406127a8565b5b612d4d88828901612c5d565b9150509295509295909350565b600067ffffffffffffffff821115612d7557612d74612a93565b5b602082029050602081019050919050565b6000612d99612d9484612d5a565b612af3565b90508083825260208201905060208402830185811115612dbc57612dbb612b3a565b5b835b81811015612de55780612dd188826127f6565b845260208401935050602081019050612dbe565b5050509392505050565b600082601f830112612e0457612e03612a8e565b5b8135612e14848260208601612d86565b91505092915050565b60008060408385031215612e3457612e336127a3565b5b600083013567ffffffffffffffff811115612e5257612e516127a8565b5b612e5e85828601612def565b925050602083013567ffffffffffffffff811115612e7f57612e7e6127a8565b5b612e8b85828601612ba8565b9150509250929050565b600081519050919050565b600082825260208201905092915050565b6000819050602082019050919050565b612eca8161280b565b82525050565b6000612edc8383612ec1565b60208301905092915050565b6000602082019050919050565b6000612f0082612e95565b612f0a8185612ea0565b9350612f1583612eb1565b8060005b83811015612f46578151612f2d8882612ed0565b9750612f3883612ee8565b925050600181019050612f19565b5085935050505092915050565b60006020820190508181036000830152612f6d8184612ef5565b905092915050565b612f7e816127cd565b82525050565b6000602082019050612f996000830184612f75565b92915050565b612fa881612930565b8114612fb357600080fd5b50565b600081359050612fc581612f9f565b92915050565b60008060408385031215612fe257612fe16127a3565b5b6000612ff0858286016127f6565b925050602061300185828601612fb6565b9150509250929050565b600060208284031215613021576130206127a3565b5b600061302f848285016127f6565b91505092915050565b6000806040838503121561304f5761304e6127a3565b5b600061305d858286016127f6565b925050602061306e858286016127f6565b9150509250929050565b600080600080600060a08688031215613094576130936127a3565b5b60006130a2888289016127f6565b95505060206130b3888289016127f6565b94505060406130c48882890161282c565b93505060606130d58882890161282c565b925050608086013567ffffffffffffffff8111156130f6576130f56127a8565b5b61310288828901612c5d565b9150509295509295909350565b7f455243313135353a2062616c616e636520717565727920666f7220746865207a60008201527f65726f2061646472657373000000000000000000000000000000000000000000602082015250565b600061316b602b8361299e565b91506131768261310f565b604082019050919050565b6000602082019050818103600083015261319a8161315e565b9050919050565b600081905092915050565b7f68747470733a2f2f676174657761792e70696e6174612e636c6f75642f69706660008201527f732f516d5245677a646964474e354a587956337a506237446f5868703574344460208201527f4468376f6f694d6257696653736e6d682f000000000000000000000000000000604082015250565b600061322e6051836131a1565b9150613239826131ac565b605182019050919050565b600061324f82612993565b61325981856131a1565b93506132698185602086016129af565b80840191505092915050565b7f2e6a736f6e000000000000000000000000000000000000000000000000000000600082015250565b60006132ab6005836131a1565b91506132b682613275565b600582019050919050565b60006132cc82613221565b91506132d88284613244565b91506132e38261329e565b915081905092915050565b7f546f6b656e204d696e74696e672069732063757272656e746c7920706175736560008201527f6400000000000000000000000000000000000000000000000000000000000000602082015250565b600061334a60218361299e565b9150613355826132ee565b604082019050919050565b600060208201905081810360008301526133798161333d565b9050919050565b7f596f75206e65656420746f206d696e74206174206c65617374203120746f6b6560008201527f6e00000000000000000000000000000000000000000000000000000000000000602082015250565b60006133dc60218361299e565b91506133e782613380565b604082019050919050565b6000602082019050818103600083015261340b816133cf565b9050919050565b7f54686520616464726573732069736e277420617574686f72697a656400000000600082015250565b6000613448601c8361299e565b915061345382613412565b602082019050919050565b600060208201905081810360008301526134778161343b565b9050919050565b7f4e756d626572206f6620746f6b656e73206d696e74656420657863656564206d60008201527f6178696d756d2073657420666f7220707269766174652073616c650000000000602082015250565b60006134da603b8361299e565b91506134e58261347e565b604082019050919050565b60006020820190508181036000830152613509816134cd565b9050919050565b7f4e756d626572206f6620746f6b656e73206d696e74656420657863656564206d60008201527f6178696d756d2073657420666f7220707269766174652073616c65207065722060208201527f6d696e7400000000000000000000000000000000000000000000000000000000604082015250565b600061359260448361299e565b915061359d82613510565b606082019050919050565b600060208201905081810360008301526135c181613585565b9050919050565b7f4e487b7100000000000000000000000000000000000000000000000000000000600052601160045260246000fd5b60006136028261280b565b91507fffffffffffffffffffffffffffffffffffffffffffffffffffffffffffffffff821415613635576136346135c8565b5b600182019050919050565b7f4e756d626572206f6620746f6b656e73206d696e74656420657863656564206d60008201527f6178696d756d2073657420666f72207075626c69632073616c6520706572206d60208201527f696e740000000000000000000000000000000000000000000000000000000000604082015250565b60006136c260438361299e565b91506136cd82613640565b606082019050919050565b600060208201905081810360008301526136f1816136b5565b9050919050565b7f4e6f7420656e6f7567682045746865722073656e742e00000000000000000000600082015250565b600061372e60168361299e565b9150613739826136f8565b602082019050919050565b6000602082019050818103600083015261375d81613721565b9050919050565b7f455243313135353a207472616e736665722063616c6c6572206973206e6f742060008201527f6f776e6572206e6f7220617070726f7665640000000000000000000000000000602082015250565b60006137c060328361299e565b91506137cb82613764565b604082019050919050565b600060208201905081810360008301526137ef816137b3565b9050919050565b7f4f776e61626c653a2063616c6c6572206973206e6f7420746865206f776e6572600082015250565b600061382c60208361299e565b9150613837826137f6565b602082019050919050565b6000602082019050818103600083015261385b8161381f565b9050919050565b7f455243313135353a206163636f756e747320616e6420696473206c656e67746860008201527f206d69736d617463680000000000000000000000000000000000000000000000602082015250565b60006138be60298361299e565b91506138c982613862565b604082019050919050565b600060208201905081810360008301526138ed816138b1565b9050919050565b7f4e487b7100000000000000000000000000000000000000000000000000000000600052603260045260246000fd5b7f455243313135353a2063616c6c6572206973206e6f74206f776e6572206e6f7260008201527f20617070726f7665640000000000000000000000000000000000000000000000602082015250565b600061397f60298361299e565b915061398a82613923565b604082019050919050565b600060208201905081810360008301526139ae81613972565b9050919050565b7f4f776e61626c653a206e6577206f776e657220697320746865207a65726f206160008201527f6464726573730000000000000000000000000000000000000000000000000000602082015250565b6000613a1160268361299e565b9150613a1c826139b5565b604082019050919050565b60006020820190508181036000830152613a4081613a04565b9050919050565b7f4e487b7100000000000000000000000000000000000000000000000000000000600052601260045260246000fd5b6000613a818261280b565b9150613a8c8361280b565b925082613a9c57613a9b613a47565b5b828204905092915050565b6000613ab28261280b565b9150613abd8361280b565b925082821015613ad057613acf6135c8565b5b828203905092915050565b6000613ae68261280b565b9150613af18361280b565b925082613b0157613b00613a47565b5b828206905092915050565b6000613b178261280b565b9150613b228361280b565b9250827fffffffffffffffffffffffffffffffffffffffffffffffffffffffffffffffff03821115613b5757613b566135c8565b5b828201905092915050565b6000613b6d8261280b565b9150613b788361280b565b9250817fffffffffffffffffffffffffffffffffffffffffffffffffffffffffffffffff0483118215151615613bb157613bb06135c8565b5b828202905092915050565b7f455243313135353a206d696e7420746f20746865207a65726f2061646472657360008201527f7300000000000000000000000000000000000000000000000000000000000000602082015250565b6000613c1860218361299e565b9150613c2382613bbc565b604082019050919050565b60006020820190508181036000830152613c4781613c0b565b9050919050565b6000604082019050613c636000830185612881565b613c706020830184612881565b9392505050565b7f455243313135353a2069647320616e6420616d6f756e7473206c656e6774682060008201527f6d69736d61746368000000000000000000000000000000000000000000000000602082015250565b6000613cd360288361299e565b9150613cde82613c77565b604082019050919050565b60006020820190508181036000830152613d0281613cc6565b9050919050565b7f455243313135353a207472616e7366657220746f20746865207a65726f20616460008201527f6472657373000000000000000000000000000000000000000000000000000000602082015250565b6000613d6560258361299e565b9150613d7082613d09565b604082019050919050565b60006020820190508181036000830152613d9481613d58565b9050919050565b7f455243313135353a20696e73756666696369656e742062616c616e636520666f60008201527f72207472616e7366657200000000000000000000000000000000000000000000602082015250565b6000613df7602a8361299e565b9150613e0282613d9b565b604082019050919050565b60006020820190508181036000830152613e2681613dea565b9050919050565b60006040820190508181036000830152613e478185612ef5565b90508181036020830152613e5b8184612ef5565b90509392505050565b7f455243313135353a2073657474696e6720617070726f76616c2073746174757360008201527f20666f722073656c660000000000000000000000000000000000000000000000602082015250565b6000613ec060298361299e565b9150613ecb82613e64565b604082019050919050565b60006020820190508181036000830152613eef81613eb3565b9050919050565b600081519050919050565b600082825260208201905092915050565b6000613f1d82613ef6565b613f278185613f01565b9350613f378185602086016129af565b613f40816129e2565b840191505092915050565b600060a082019050613f606000830188612f75565b613f6d6020830187612f75565b613f7a6040830186612881565b613f876060830185612881565b8181036080830152613f998184613f12565b90509695505050505050565b600081519050613fb4816128d7565b92915050565b600060208284031215613fd057613fcf6127a3565b5b6000613fde84828501613fa5565b91505092915050565b60008160e01c9050919050565b600060033d11156140135760046000803e614010600051613fe7565b90505b90565b600060443d1015614026576140a9565b61402e612799565b60043d036004823e80513d602482011167ffffffffffffffff821117156140565750506140a9565b808201805167ffffffffffffffff81111561407457505050506140a9565b80602083010160043d0385018111156140915750505050506140a9565b6140a082602001850186612ac2565b82955050505050505b90565b7f455243313135353a207472616e7366657220746f206e6f6e204552433131353560008201527f526563656976657220696d706c656d656e746572000000000000000000000000602082015250565b600061410860348361299e565b9150614113826140ac565b604082019050919050565b60006020820190508181036000830152614137816140fb565b9050919050565b7f455243313135353a204552433131353552656365697665722072656a6563746560008201527f6420746f6b656e73000000000000000000000000000000000000000000000000602082015250565b600061419a60288361299e565b91506141a58261413e565b604082019050919050565b600060208201905081810360008301526141c98161418d565b9050919050565b600060a0820190506141e56000830188612f75565b6141f26020830187612f75565b81810360408301526142048186612ef5565b905081810360608301526142188185612ef5565b9050818103608083015261422c8184613f12565b9050969550505050505056fea26469706673582212201defc980f2b70ce1eecbc0fcc13aeea3b28c123c21d509ec9f241d622fbb085264736f6c634300080c003368747470733a2f2f676174657761792e70696e6174612e636c6f75642f697066732f516d5245677a646964474e354a587956337a506237446f586870357434444468376f6f694d6257696653736e6d682f7b69647d2e6a736f6e",
  "immutableReferences": {},
  "source": "// SPDX-License-Identifier: MIT\npragma solidity >=0.4.22 <0.9.0;\n\nimport \"@openzeppelin/contracts/utils/math/SafeMath.sol\";\nimport \"@openzeppelin/contracts/token/ERC1155/ERC1155.sol\";\nimport \"@openzeppelin/contracts/access/Ownable.sol\";\nimport \"@openzeppelin/contracts/token/ERC1155/extensions/ERC1155Supply.sol\";\nimport \"@openzeppelin/contracts/utils/math/SafeMath.sol\";\nimport \"@openzeppelin/contracts/utils/Strings.sol\";\ncontract NftContract is ERC1155Supply,Ownable {\n  using SafeMath for uint;\n  \n  bool private mintPaused;\n\n  mapping(address=>bool) private privateSaleUserWhitelist;\n  mapping(address=>uint256) private privateSaleUserMints;\n  uint256 public privateSalePrice;\n  mapping(uint256=>uint256) public publicSalePrice;\n  uint256 public deployTime;\n  uint256 public maxTokensPerMintPublicSale;\n  uint256 public maxTokensPerMintPrivateSale;\n  uint256 public maxTokensPerUserPrivateSale;\n\n\n  constructor() ERC1155(\"https://gateway.pinata.cloud/ipfs/QmREgzdidGN5JXyV3zPb7DoXhp5t4DDh7ooiMbWifSsnmh/{id}.json\") {\n        privateSalePrice=0.1 ether;\n        publicSalePrice[0]=0 ether;\n        publicSalePrice[1]=0 ether;\n        publicSalePrice[2]=0 ether;\n        publicSalePrice[3]=0 ether;\n        deployTime=block.timestamp;\n        maxTokensPerMintPublicSale=1;\n        maxTokensPerMintPrivateSale=1;\n        maxTokensPerUserPrivateSale=1;\n  }\n\n  function setMaxTokensPerUserPrivateSale(uint256 _maxTokensPerUserPrivateSale) external onlyOwner{\n      maxTokensPerUserPrivateSale=_maxTokensPerUserPrivateSale;\n  }\n  function setMaxTokensPerMintPublicSale(uint256 _maxTokensPerMintPublicSale) external onlyOwner{\n      maxTokensPerMintPublicSale=_maxTokensPerMintPublicSale;\n  }\n  function setMaxTokensPerMintPrivateSale(uint256 _maxTokensPerMintPrivateSale) external onlyOwner{\n      maxTokensPerMintPrivateSale=_maxTokensPerMintPrivateSale;\n  }\n  function setPrivateSalePrice(uint256 _privateSalePrice) external onlyOwner{\n      privateSalePrice=_privateSalePrice;\n  }\n  function setPublicSalePrice(uint256 id,uint256 _publicSalePrice) external onlyOwner{\n      publicSalePrice[id]=_publicSalePrice;\n  }\n\n  function getTokenPrice(uint256 id) public view returns(uint256){\n      if(deployTime.add(1 days)>=block.timestamp){\n        return privateSalePrice;\n      }else{\n        return publicSalePrice[id];\n      }\n  }\n\n\n  function mint(uint256 id,uint256 numberOfTokens) public payable {\n        require(mintPaused==false, \"Token Minting is currently paused\");\n        require(numberOfTokens != 0, \"You need to mint at least 1 token\");\n        uint256 salePrice;\n        //Private Sale\n        if(deployTime.add(1 days)>=block.timestamp){\n            salePrice=privateSalePrice;\n            require(privateSaleUserWhitelist[msg.sender],\"The address isn't authorized\");\n            require(privateSaleUserMints[msg.sender].add(numberOfTokens)<=maxTokensPerUserPrivateSale,\"Number of tokens minted exceed maximum set for private sale\");\n            require(numberOfTokens<=maxTokensPerMintPrivateSale,\"Number of tokens minted exceed maximum set for private sale per mint\");\n            privateSaleUserMints[msg.sender]++;\n        }else{\n            salePrice=publicSalePrice[id];\n            require(numberOfTokens<=maxTokensPerMintPublicSale,\"Number of tokens minted exceed maximum set for public sale per mint\");\n        }\n        require(salePrice.mul(numberOfTokens) <= msg.value, \"Not enough Ether sent.\");\n\n        _mint(msg.sender, id,numberOfTokens,\"\");\n    }\n\n\n    function addPrivateSaleBuyer(address user)external onlyOwner{\n        privateSaleUserWhitelist[user]=true;\n    }\n\n    function togglePauseMinting() external onlyOwner {\n        mintPaused = !mintPaused;\n    }\n\n    function withdraw() external onlyOwner {\n        payable(owner()).transfer(address(this).balance);\n    }\n\n    function uri(uint256 id) override public pure returns(string memory){\n        return string(\n            abi.encodePacked(\n                \"https://gateway.pinata.cloud/ipfs/QmREgzdidGN5JXyV3zPb7DoXhp5t4DDh7ooiMbWifSsnmh/\",\n                Strings.toString(id),\n                \".json\"\n            )\n        );\n    }\n}\n",
  "sourcePath": "C:\\Users\\user\\blocks\\nftMinting\\contracts\\NftContract.sol",
  "compiler": {
    "name": "solc",
    "version": "0.8.12+commit.f00d7308.Emscripten.clang"
  },
  "schemaVersion": "3.4.3",
  "updatedAt": "2022-02-27T18:12:20.835Z",
  "networkType": "ethereum",
  "devdoc": {
    "kind": "dev",
    "methods": {
      "balanceOf(address,uint256)": {
        "details": "See {IERC1155-balanceOf}. Requirements: - `account` cannot be the zero address."
      },
      "balanceOfBatch(address[],uint256[])": {
        "details": "See {IERC1155-balanceOfBatch}. Requirements: - `accounts` and `ids` must have the same length."
      },
      "exists(uint256)": {
        "details": "Indicates whether any token exist with a given id, or not."
      },
      "isApprovedForAll(address,address)": {
        "details": "See {IERC1155-isApprovedForAll}."
      },
      "owner()": {
        "details": "Returns the address of the current owner."
      },
      "renounceOwnership()": {
        "details": "Leaves the contract without owner. It will not be possible to call `onlyOwner` functions anymore. Can only be called by the current owner. NOTE: Renouncing ownership will leave the contract without an owner, thereby removing any functionality that is only available to the owner."
      },
      "safeBatchTransferFrom(address,address,uint256[],uint256[],bytes)": {
        "details": "See {IERC1155-safeBatchTransferFrom}."
      },
      "safeTransferFrom(address,address,uint256,uint256,bytes)": {
        "details": "See {IERC1155-safeTransferFrom}."
      },
      "setApprovalForAll(address,bool)": {
        "details": "See {IERC1155-setApprovalForAll}."
      },
      "supportsInterface(bytes4)": {
        "details": "See {IERC165-supportsInterface}."
      },
      "totalSupply(uint256)": {
        "details": "Total amount of tokens in with a given id."
      },
      "transferOwnership(address)": {
        "details": "Transfers ownership of the contract to a new account (`newOwner`). Can only be called by the current owner."
      }
    },
    "version": 1
  },
  "userdoc": {
    "kind": "user",
    "methods": {},
    "version": 1
  }
}